{"abi":[{"type":"constructor","inputs":[],"stateMutability":"nonpayable"},{"type":"function","name":"addDonationToBatch","inputs":[{"name":"batchId","type":"uint256","internalType":"uint256"},{"name":"donationId","type":"uint256","internalType":"uint256"}],"outputs":[],"stateMutability":"nonpayable"},{"type":"function","name":"addMember","inputs":[{"name":"name","type":"string","internalType":"string"},{"name":"account","type":"address","internalType":"address"},{"name":"role","type":"uint8","internalType":"enum IDataTypes.Role"}],"outputs":[],"stateMutability":"nonpayable"},{"type":"function","name":"balanceOf","inputs":[{"name":"account","type":"address","internalType":"address"},{"name":"id","type":"uint256","internalType":"uint256"}],"outputs":[{"name":"","type":"uint256","internalType":"uint256"}],"stateMutability":"view"},{"type":"function","name":"balanceOfBatch","inputs":[{"name":"accounts","type":"address[]","internalType":"address[]"},{"name":"ids","type":"uint256[]","internalType":"uint256[]"}],"outputs":[{"name":"","type":"uint256[]","internalType":"uint256[]"}],"stateMutability":"view"},{"type":"function","name":"claimBatchForDelivery","inputs":[{"name":"batchId","type":"uint256","internalType":"uint256"}],"outputs":[],"stateMutability":"nonpayable"},{"type":"function","name":"claimBatchForTransporter","inputs":[{"name":"batchId","type":"uint256","internalType":"uint256"}],"outputs":[],"stateMutability":"nonpayable"},{"type":"function","name":"closeBatch","inputs":[{"name":"batchId","type":"uint256","internalType":"uint256"}],"outputs":[],"stateMutability":"nonpayable"},{"type":"function","name":"createBatch","inputs":[{"name":"latitude","type":"string","internalType":"string"},{"name":"longitude","type":"string","internalType":"string"}],"outputs":[],"stateMutability":"nonpayable"},{"type":"function","name":"createDonation","inputs":[{"name":"productDescription","type":"string","internalType":"string"},{"name":"donation","type":"uint8","internalType":"enum IDataTypes.DonationType"},{"name":"image","type":"string","internalType":"string"}],"outputs":[{"name":"","type":"uint256","internalType":"uint256"}],"stateMutability":"nonpayable"},{"type":"function","name":"getAllBatches","inputs":[],"outputs":[{"name":"","type":"tuple[]","internalType":"struct IDataTypes.Batch[]","components":[{"name":"id","type":"uint256","internalType":"uint256"},{"name":"destinationZone","type":"uint8","internalType":"enum IDataTypes.DistributionZones"},{"name":"status","type":"uint8","internalType":"enum IDataTypes.BatchStatus"},{"name":"currentHandler","type":"address","internalType":"address"},{"name":"donations","type":"tuple[]","internalType":"struct IDataTypes.Donation[]","components":[{"name":"donor","type":"address","internalType":"address"},{"name":"description","type":"string","internalType":"string"},{"name":"timestamp","type":"uint256","internalType":"uint256"},{"name":"donationType","type":"uint8","internalType":"enum IDataTypes.DonationType"},{"name":"imageUrl","type":"string","internalType":"string"}]},{"name":"locations","type":"tuple[]","internalType":"struct IDataTypes.Location[]","components":[{"name":"latitude","type":"string","internalType":"string"},{"name":"longitude","type":"string","internalType":"string"}]}]}],"stateMutability":"view"},{"type":"function","name":"getAllBatchesWithStatusClosedReadyForTransporter","inputs":[],"outputs":[{"name":"","type":"tuple[]","internalType":"struct IDataTypes.Batch[]","components":[{"name":"id","type":"uint256","internalType":"uint256"},{"name":"destinationZone","type":"uint8","internalType":"enum IDataTypes.DistributionZones"},{"name":"status","type":"uint8","internalType":"enum IDataTypes.BatchStatus"},{"name":"currentHandler","type":"address","internalType":"address"},{"name":"donations","type":"tuple[]","internalType":"struct IDataTypes.Donation[]","components":[{"name":"donor","type":"address","internalType":"address"},{"name":"description","type":"string","internalType":"string"},{"name":"timestamp","type":"uint256","internalType":"uint256"},{"name":"donationType","type":"uint8","internalType":"enum IDataTypes.DonationType"},{"name":"imageUrl","type":"string","internalType":"string"}]},{"name":"locations","type":"tuple[]","internalType":"struct IDataTypes.Location[]","components":[{"name":"latitude","type":"string","internalType":"string"},{"name":"longitude","type":"string","internalType":"string"}]}]}],"stateMutability":"view"},{"type":"function","name":"getAllBatchesWithStatusInTransitReadyForDeliveryIn","inputs":[],"outputs":[{"name":"","type":"tuple[]","internalType":"struct IDataTypes.Batch[]","components":[{"name":"id","type":"uint256","internalType":"uint256"},{"name":"destinationZone","type":"uint8","internalType":"enum IDataTypes.DistributionZones"},{"name":"status","type":"uint8","internalType":"enum IDataTypes.BatchStatus"},{"name":"currentHandler","type":"address","internalType":"address"},{"name":"donations","type":"tuple[]","internalType":"struct IDataTypes.Donation[]","components":[{"name":"donor","type":"address","internalType":"address"},{"name":"description","type":"string","internalType":"string"},{"name":"timestamp","type":"uint256","internalType":"uint256"},{"name":"donationType","type":"uint8","internalType":"enum IDataTypes.DonationType"},{"name":"imageUrl","type":"string","internalType":"string"}]},{"name":"locations","type":"tuple[]","internalType":"struct IDataTypes.Location[]","components":[{"name":"latitude","type":"string","internalType":"string"},{"name":"longitude","type":"string","internalType":"string"}]}]}],"stateMutability":"view"},{"type":"function","name":"getAllDonationsInAllBatches","inputs":[],"outputs":[{"name":"","type":"tuple[]","internalType":"struct IDataTypes.Donation[]","components":[{"name":"donor","type":"address","internalType":"address"},{"name":"description","type":"string","internalType":"string"},{"name":"timestamp","type":"uint256","internalType":"uint256"},{"name":"donationType","type":"uint8","internalType":"enum IDataTypes.DonationType"},{"name":"imageUrl","type":"string","internalType":"string"}]}],"stateMutability":"view"},{"type":"function","name":"getAllListOfMembers","inputs":[],"outputs":[{"name":"","type":"tuple[]","internalType":"struct IDataTypes.Members[]","components":[{"name":"name","type":"string","internalType":"string"},{"name":"account","type":"address","internalType":"address"},{"name":"role","type":"uint8","internalType":"enum IDataTypes.Role"},{"name":"isActive","type":"bool","internalType":"bool"}]}],"stateMutability":"view"},{"type":"function","name":"getBatch","inputs":[{"name":"batchId","type":"uint256","internalType":"uint256"}],"outputs":[{"name":"","type":"tuple","internalType":"struct IDataTypes.Batch","components":[{"name":"id","type":"uint256","internalType":"uint256"},{"name":"destinationZone","type":"uint8","internalType":"enum IDataTypes.DistributionZones"},{"name":"status","type":"uint8","internalType":"enum IDataTypes.BatchStatus"},{"name":"currentHandler","type":"address","internalType":"address"},{"name":"donations","type":"tuple[]","internalType":"struct IDataTypes.Donation[]","components":[{"name":"donor","type":"address","internalType":"address"},{"name":"description","type":"string","internalType":"string"},{"name":"timestamp","type":"uint256","internalType":"uint256"},{"name":"donationType","type":"uint8","internalType":"enum IDataTypes.DonationType"},{"name":"imageUrl","type":"string","internalType":"string"}]},{"name":"locations","type":"tuple[]","internalType":"struct IDataTypes.Location[]","components":[{"name":"latitude","type":"string","internalType":"string"},{"name":"longitude","type":"string","internalType":"string"}]}]}],"stateMutability":"view"},{"type":"function","name":"getDonation","inputs":[{"name":"batchId","type":"uint256","internalType":"uint256"},{"name":"index","type":"uint256","internalType":"uint256"}],"outputs":[{"name":"","type":"tuple","internalType":"struct IDataTypes.Donation","components":[{"name":"donor","type":"address","internalType":"address"},{"name":"description","type":"string","internalType":"string"},{"name":"timestamp","type":"uint256","internalType":"uint256"},{"name":"donationType","type":"uint8","internalType":"enum IDataTypes.DonationType"},{"name":"imageUrl","type":"string","internalType":"string"}]}],"stateMutability":"view"},{"type":"function","name":"isApprovedForAll","inputs":[{"name":"account","type":"address","internalType":"address"},{"name":"operator","type":"address","internalType":"address"}],"outputs":[{"name":"","type":"bool","internalType":"bool"}],"stateMutability":"view"},{"type":"function","name":"safeBatchTransferFrom","inputs":[{"name":"from","type":"address","internalType":"address"},{"name":"to","type":"address","internalType":"address"},{"name":"ids","type":"uint256[]","internalType":"uint256[]"},{"name":"values","type":"uint256[]","internalType":"uint256[]"},{"name":"data","type":"bytes","internalType":"bytes"}],"outputs":[],"stateMutability":"nonpayable"},{"type":"function","name":"safeTransferFrom","inputs":[{"name":"from","type":"address","internalType":"address"},{"name":"to","type":"address","internalType":"address"},{"name":"id","type":"uint256","internalType":"uint256"},{"name":"value","type":"uint256","internalType":"uint256"},{"name":"data","type":"bytes","internalType":"bytes"}],"outputs":[],"stateMutability":"nonpayable"},{"type":"function","name":"setApprovalForAll","inputs":[{"name":"operator","type":"address","internalType":"address"},{"name":"approved","type":"bool","internalType":"bool"}],"outputs":[],"stateMutability":"nonpayable"},{"type":"function","name":"supportsInterface","inputs":[{"name":"interfaceId","type":"bytes4","internalType":"bytes4"}],"outputs":[{"name":"","type":"bool","internalType":"bool"}],"stateMutability":"view"},{"type":"function","name":"transferBatch","inputs":[{"name":"batchId","type":"uint256","internalType":"uint256"},{"name":"newHandler","type":"address","internalType":"address"},{"name":"latitude","type":"string","internalType":"string"},{"name":"longitude","type":"string","internalType":"string"}],"outputs":[],"stateMutability":"nonpayable"},{"type":"function","name":"updateLocation","inputs":[{"name":"batchId","type":"uint256","internalType":"uint256"},{"name":"latitude","type":"string","internalType":"string"},{"name":"longitude","type":"string","internalType":"string"}],"outputs":[],"stateMutability":"nonpayable"},{"type":"function","name":"uri","inputs":[{"name":"","type":"uint256","internalType":"uint256"}],"outputs":[{"name":"","type":"string","internalType":"string"}],"stateMutability":"view"},{"type":"event","name":"ApprovalForAll","inputs":[{"name":"account","type":"address","indexed":true,"internalType":"address"},{"name":"operator","type":"address","indexed":true,"internalType":"address"},{"name":"approved","type":"bool","indexed":false,"internalType":"bool"}],"anonymous":false},{"type":"event","name":"BatchClaimed","inputs":[{"name":"batchId","type":"uint256","indexed":false,"internalType":"uint256"},{"name":"status","type":"uint8","indexed":false,"internalType":"enum IDataTypes.BatchStatus"}],"anonymous":false},{"type":"event","name":"BatchClosed","inputs":[{"name":"batchId","type":"uint256","indexed":false,"internalType":"uint256"}],"anonymous":false},{"type":"event","name":"BatchCreated","inputs":[{"name":"batchId","type":"uint256","indexed":false,"internalType":"uint256"},{"name":"currentHandler","type":"address","indexed":false,"internalType":"address"}],"anonymous":false},{"type":"event","name":"BatchTransferred","inputs":[{"name":"batchId","type":"uint256","indexed":true,"internalType":"uint256"},{"name":"newHandler","type":"address","indexed":true,"internalType":"address"},{"name":"latitude","type":"string","indexed":false,"internalType":"string"},{"name":"longitude","type":"string","indexed":false,"internalType":"string"}],"anonymous":false},{"type":"event","name":"DistributionZoneUpdated","inputs":[{"name":"batchId","type":"uint256","indexed":false,"internalType":"uint256"},{"name":"destinationZone","type":"uint8","indexed":false,"internalType":"enum IDataTypes.DistributionZones"}],"anonymous":false},{"type":"event","name":"DonationCreated","inputs":[{"name":"donationId","type":"uint256","indexed":false,"internalType":"uint256"},{"name":"donor","type":"address","indexed":false,"internalType":"address"}],"anonymous":false},{"type":"event","name":"LocationUpdated","inputs":[{"name":"batchId","type":"uint256","indexed":false,"internalType":"uint256"},{"name":"latitude","type":"string","indexed":false,"internalType":"string"},{"name":"longitude","type":"string","indexed":false,"internalType":"string"}],"anonymous":false},{"type":"event","name":"ProductAdded","inputs":[{"name":"batchId","type":"uint256","indexed":false,"internalType":"uint256"},{"name":"productIndex","type":"uint256","indexed":false,"internalType":"uint256"},{"name":"donor","type":"address","indexed":false,"internalType":"address"}],"anonymous":false},{"type":"event","name":"TransferBatch","inputs":[{"name":"operator","type":"address","indexed":true,"internalType":"address"},{"name":"from","type":"address","indexed":true,"internalType":"address"},{"name":"to","type":"address","indexed":true,"internalType":"address"},{"name":"ids","type":"uint256[]","indexed":false,"internalType":"uint256[]"},{"name":"values","type":"uint256[]","indexed":false,"internalType":"uint256[]"}],"anonymous":false},{"type":"event","name":"TransferSingle","inputs":[{"name":"operator","type":"address","indexed":true,"internalType":"address"},{"name":"from","type":"address","indexed":true,"internalType":"address"},{"name":"to","type":"address","indexed":true,"internalType":"address"},{"name":"id","type":"uint256","indexed":false,"internalType":"uint256"},{"name":"value","type":"uint256","indexed":false,"internalType":"uint256"}],"anonymous":false},{"type":"event","name":"URI","inputs":[{"name":"value","type":"string","indexed":false,"internalType":"string"},{"name":"id","type":"uint256","indexed":true,"internalType":"uint256"}],"anonymous":false},{"type":"error","name":"ERC1155InsufficientBalance","inputs":[{"name":"sender","type":"address","internalType":"address"},{"name":"balance","type":"uint256","internalType":"uint256"},{"name":"needed","type":"uint256","internalType":"uint256"},{"name":"tokenId","type":"uint256","internalType":"uint256"}]},{"type":"error","name":"ERC1155InvalidApprover","inputs":[{"name":"approver","type":"address","internalType":"address"}]},{"type":"error","name":"ERC1155InvalidArrayLength","inputs":[{"name":"idsLength","type":"uint256","internalType":"uint256"},{"name":"valuesLength","type":"uint256","internalType":"uint256"}]},{"type":"error","name":"ERC1155InvalidOperator","inputs":[{"name":"operator","type":"address","internalType":"address"}]},{"type":"error","name":"ERC1155InvalidReceiver","inputs":[{"name":"receiver","type":"address","internalType":"address"}]},{"type":"error","name":"ERC1155InvalidSender","inputs":[{"name":"sender","type":"address","internalType":"address"}]},{"type":"error","name":"ERC1155MissingApprovalForAll","inputs":[{"name":"operator","type":"address","internalType":"address"},{"name":"owner","type":"address","internalType":"address"}]}],"bytecode":{"object":"0x608060405260016003555f600455600160055534801561001d575f80fd5b5060405180606001604052806022815260200161483c60229139610040816101dd565b506040805160c081018252600d608082019081526c20b236b4b734b9ba3930ba37b960991b60a083015281523360208201529081015f81526001602091820152335f9081526006909152604090208151819061009c9082610299565b5060208201516001820180546001600160a01b039092166001600160a01b03198316811782556040850151926001600160a81b03191617600160a01b8360028111156100ea576100ea6101ed565b02179055506060919091015160019091018054911515600160a81b0260ff60a81b19909216919091179055335f908152600660209081526040808320600454845260079092529091208061013e8382610356565b506001828101805491830180546001600160a01b031981166001600160a01b039094169384178255915460ff600160a01b91829004169391926001600160a81b03191690911790836002811115610197576101976101ed565b02179055506001918201549101805460ff60a81b1916600160a81b9283900460ff16151590920291909117905560048054905f6101d383610422565b9190505550610446565b60026101e98282610299565b5050565b634e487b7160e01b5f52602160045260245ffd5b634e487b7160e01b5f52604160045260245ffd5b600181811c9082168061022957607f821691505b60208210810361024757634e487b7160e01b5f52602260045260245ffd5b50919050565b601f82111561029457805f5260205f20601f840160051c810160208510156102725750805b601f840160051c820191505b81811015610291575f815560010161027e565b50505b505050565b81516001600160401b038111156102b2576102b2610201565b6102c6816102c08454610215565b8461024d565b6020601f8211600181146102fb575f83156102e15750848201515b600184901b5f19600386901b1c198216175b855550610291565b5f84815260208120601f198516915b8281101561032a578785015182556020948501946001909201910161030a565b508482101561034757868401515f19600387901b60f8161c191681555b50505050600190811b01905550565b818103610361575050565b61036b8254610215565b6001600160401b0381111561038257610382610201565b610390816102c08454610215565b5f601f8211600181146103bf575f83156102e1575081850154600184901b5f19600386901b1c198216176102f3565b5f8581526020808220868352908220601f198616925b838110156103f557828601548255600195860195909101906020016103d5565b508583101561041257818501545f19600388901b60f8161c191681555b5050505050600190811b01905550565b5f6001820161043f57634e487b7160e01b5f52601160045260245ffd5b5060010190565b6143e9806104535f395ff3fe608060405234801561000f575f80fd5b5060043610610152575f3560e01c806392b8f021116100bf578063bd99c34411610079578063bd99c3441461030b578063d2c411d31461031e578063e80e076b14610331578063e985e9c514610339578063e9cf8c061461034c578063f242432a14610354575f80fd5b806392b8f0211461029957806398f681c8146102ac578063a1cc2939146102bf578063a22cb465146102d2578063b3641cfd146102e5578063b7472885146102f8575f80fd5b80635ac44282116101105780635ac4428214610209578063718966cf1461022957806376ff7bf41461023c5780637a692ba21461025c5780637ce8dc78146102715780637ef2a56914610284575f80fd5b8062fdd58e1461015657806301ffc9a71461017c5780630e89341c1461019f57806317b42c77146101bf5780632eb2c2d6146101d45780634e1273f4146101e9575b5f80fd5b6101696101643660046135c4565b610367565b6040519081526020015b60405180910390f35b61018f61018a366004613604565b61038e565b6040519015158152602001610173565b6101b26101ad366004613626565b6103dd565b604051610173919061366b565b6101c761046f565b6040516101739190613708565b6101e76101e23660046138ac565b610715565b005b6101fc6101f7366004613958565b610781565b6040516101739190613a53565b61021c610217366004613626565b61084b565b6040516101739190613bb0565b6101e7610237366004613bc2565b610c44565b61024f61024a366004613bc2565b610f0a565b6040516101739190613be2565b6102646110c8565b6040516101739190613bf4565b6101e761027f366004613c57565b6115d3565b61028c611803565b6040516101739190613cb4565b6101e76102a7366004613d49565b6119d5565b6101e76102ba366004613626565b611b42565b6101e76102cd366004613626565b611ca0565b6101e76102e0366004613da2565b611df6565b6101e76102f3366004613ddb565b611e05565b6101e7610306366004613e57565b612038565b610169610319366004613ec2565b61219e565b6101e761032c366004613626565b61237f565b6102646124c4565b61018f610347366004613f20565b612950565b61026461297d565b6101e7610362366004613f51565b612e88565b5f818152602081815260408083206001600160a01b03861684529091529020545b92915050565b5f6001600160e01b03198216636cdb3d1360e11b14806103be57506001600160e01b031982166303a24d0760e21b145b8061038857506301ffc9a760e01b6001600160e01b0319831614610388565b6060600280546103ec90613fa4565b80601f016020809104026020016040519081016040528092919081815260200182805461041890613fa4565b80156104635780601f1061043a57610100808354040283529160200191610463565b820191905f5260205f20905b81548152906001019060200180831161044657829003601f168201915b50505050509050919050565b60605f60015b6003548110156104a4575f8181526008602052604090206002015461049a9083613fea565b9150600101610475565b505f816001600160401b038111156104be576104be61376b565b6040519080825280602002602001820160405280156104f757816020015b6104e4613531565b8152602001906001900390816104dc5790505b5090505f60015b60035481101561070c575f5b5f82815260086020526040902060020154811015610703575f82815260086020526040902060020180548290811061054457610544613ffd565b5f9182526020918290206040805160a0810190915260059092020180546001600160a01b03168252600181018054929391929184019161058390613fa4565b80601f01602080910402602001604051908101604052809291908181526020018280546105af90613fa4565b80156105fa5780601f106105d1576101008083540402835291602001916105fa565b820191905f5260205f20905b8154815290600101906020018083116105dd57829003601f168201915b50505091835250506002828101546020830152600383015460409092019160ff169081111561062b5761062b61367d565b600281111561063c5761063c61367d565b815260200160048201805461065090613fa4565b80601f016020809104026020016040519081016040528092919081815260200182805461067c90613fa4565b80156106c75780601f1061069e576101008083540402835291602001916106c7565b820191905f5260205f20905b8154815290600101906020018083116106aa57829003601f168201915b5050505050815250508484815181106106e2576106e2613ffd565b602002602001018190525082806106f890614011565b93505060010161050a565b506001016104fe565b50909392505050565b336001600160a01b038616811480159061073657506107348682612950565b155b1561076c5760405163711bec9160e11b81526001600160a01b038083166004830152871660248201526044015b60405180910390fd5b6107798686868686612ee7565b505050505050565b606081518351146107b25781518351604051635b05999160e01b815260048101929092526024820152604401610763565b5f83516001600160401b038111156107cc576107cc61376b565b6040519080825280602002602001820160405280156107f5578160200160208202803683370190505b5090505f5b84518110156108435760208082028601015161081e90602080840287010151610367565b82828151811061083057610830613ffd565b60209081029190910101526001016107fa565b509392505050565b610853613577565b5f82815260086020908152604091829020825160c08101909352805483526001810154909183019060ff16600381111561088f5761088f61367d565b60038111156108a0576108a061367d565b81526020016001820160019054906101000a900460ff1660038111156108c8576108c861367d565b60038111156108d9576108d961367d565b815260018201546201000090046001600160a01b031660208083019190915260028301805460408051828502810185018252828152940193925f9084015b82821015610abb575f8481526020908190206040805160a081019091526005850290910180546001600160a01b03168252600181018054929391929184019161095f90613fa4565b80601f016020809104026020016040519081016040528092919081815260200182805461098b90613fa4565b80156109d65780601f106109ad576101008083540402835291602001916109d6565b820191905f5260205f20905b8154815290600101906020018083116109b957829003601f168201915b50505091835250506002828101546020830152600383015460409092019160ff1690811115610a0757610a0761367d565b6002811115610a1857610a1861367d565b8152602001600482018054610a2c90613fa4565b80601f0160208091040260200160405190810160405280929190818152602001828054610a5890613fa4565b8015610aa35780601f10610a7a57610100808354040283529160200191610aa3565b820191905f5260205f20905b815481529060010190602001808311610a8657829003601f168201915b50505050508152505081526020019060010190610917565b50505050815260200160038201805480602002602001604051908101604052809291908181526020015f905b82821015610c36578382905f5260205f2090600202016040518060400160405290815f82018054610b1790613fa4565b80601f0160208091040260200160405190810160405280929190818152602001828054610b4390613fa4565b8015610b8e5780601f10610b6557610100808354040283529160200191610b8e565b820191905f5260205f20905b815481529060010190602001808311610b7157829003601f168201915b50505050508152602001600182018054610ba790613fa4565b80601f0160208091040260200160405190810160405280929190818152602001828054610bd390613fa4565b8015610c1e5780601f10610bf557610100808354040283529160200191610c1e565b820191905f5260205f20905b815481529060010190602001808311610c0157829003601f168201915b50505050508152505081526020019060010190610ae7565b505050915250909392505050565b5f80335f90815260066020526040902060010154600160a01b900460ff166002811115610c7357610c7361367d565b14610c905760405162461bcd60e51b815260040161076390614029565b335f90815260066020526040902060010154600160a81b900460ff16610cc85760405162461bcd60e51b81526004016107639061404f565b5f8084815260086020526040902060010154610100900460ff166003811115610cf357610cf361367d565b14610d315760405162461bcd60e51b815260206004820152600e60248201526d2130ba31b4103737ba1037b832b760911b6044820152606401610763565b5f828152600b602052604090205460ff1615610d8f5760405162461bcd60e51b815260206004820152601960248201527f446f6e6174696f6e20616c72656164792061737369676e6564000000000000006044820152606401610763565b5f83815260086020526040902060020154600511610ddf5760405162461bcd60e51b815260206004820152600d60248201526c10985d18da081a5cc8199d5b1b609a1b6044820152606401610763565b5f82815260096020526040902080546001600160a01b0316610e435760405162461bcd60e51b815260206004820152601760248201527f446f6e6174696f6e20646f6573206e6f742065786973740000000000000000006044820152606401610763565b5f848152600860209081526040822060020180546001818101835591845291909220835460059092020180546001600160a01b0319166001600160a01b03909216919091178155829181810190610e9c908401826140c2565b5060028281015482820155600380840154908301805460ff90921692909160ff1916906001908490811115610ed357610ed361367d565b0217905550600481810190610eea908401826140c2565b5050505f9283525050600b60205260409020805460ff1916600117905550565b610f12613531565b5f838152600860205260409020600201805483908110610f3457610f34613ffd565b5f9182526020918290206040805160a0810190915260059092020180546001600160a01b031682526001810180549293919291840191610f7390613fa4565b80601f0160208091040260200160405190810160405280929190818152602001828054610f9f90613fa4565b8015610fea5780601f10610fc157610100808354040283529160200191610fea565b820191905f5260205f20905b815481529060010190602001808311610fcd57829003601f168201915b50505091835250506002828101546020830152600383015460409092019160ff169081111561101b5761101b61367d565b600281111561102c5761102c61367d565b815260200160048201805461104090613fa4565b80601f016020809104026020016040519081016040528092919081815260200182805461106c90613fa4565b80156110b75780601f1061108e576101008083540402835291602001916110b7565b820191905f5260205f20905b81548152906001019060200180831161109a57829003601f168201915b505050505081525050905092915050565b60605f60015b60035481101561111f5760025f82815260086020526040902060010154610100900460ff1660038111156111045761110461367d565b03611117578161111381614011565b9250505b6001016110ce565b505f816001600160401b038111156111395761113961376b565b60405190808252806020026020018201604052801561117257816020015b61115f613577565b8152602001906001900390816111575790505b5090505f60015b60035481101561070c5760025f82815260086020526040902060010154610100900460ff1660038111156111af576111af61367d565b036115cb575f81815260086020908152604091829020825160c08101909352805483526001810154909183019060ff1660038111156111f0576111f061367d565b60038111156112015761120161367d565b81526020016001820160019054906101000a900460ff1660038111156112295761122961367d565b600381111561123a5761123a61367d565b815260018201546201000090046001600160a01b031660208083019190915260028301805460408051828502810185018252828152940193925f9084015b8282101561141c575f8481526020908190206040805160a081019091526005850290910180546001600160a01b0316825260018101805492939192918401916112c090613fa4565b80601f01602080910402602001604051908101604052809291908181526020018280546112ec90613fa4565b80156113375780601f1061130e57610100808354040283529160200191611337565b820191905f5260205f20905b81548152906001019060200180831161131a57829003601f168201915b50505091835250506002828101546020830152600383015460409092019160ff16908111156113685761136861367d565b60028111156113795761137961367d565b815260200160048201805461138d90613fa4565b80601f01602080910402602001604051908101604052809291908181526020018280546113b990613fa4565b80156114045780601f106113db57610100808354040283529160200191611404565b820191905f5260205f20905b8154815290600101906020018083116113e757829003601f168201915b50505050508152505081526020019060010190611278565b50505050815260200160038201805480602002602001604051908101604052809291908181526020015f905b82821015611597578382905f5260205f2090600202016040518060400160405290815f8201805461147890613fa4565b80601f01602080910402602001604051908101604052809291908181526020018280546114a490613fa4565b80156114ef5780601f106114c6576101008083540402835291602001916114ef565b820191905f5260205f20905b8154815290600101906020018083116114d257829003601f168201915b5050505050815260200160018201805461150890613fa4565b80601f016020809104026020016040519081016040528092919081815260200182805461153490613fa4565b801561157f5780601f106115565761010080835404028352916020019161157f565b820191905f5260205f20905b81548152906001019060200180831161156257829003601f168201915b50505050508152505081526020019060010190611448565b50505050815250508383815181106115b1576115b1613ffd565b602002602001018190525081806115c790614011565b9250505b600101611179565b5f80335f90815260066020526040902060010154600160a01b900460ff1660028111156116025761160261367d565b1461161f5760405162461bcd60e51b815260040161076390614029565b335f90815260066020526040902060010154600160a81b900460ff166116575760405162461bcd60e51b81526004016107639061404f565b6040518060800160405280858152602001846001600160a01b031681526020018360028111156116895761168961367d565b815260016020918201526001600160a01b0385165f908152600690915260409020815181906116b89082614199565b5060208201516001820180546001600160a01b039092166001600160a01b03198316811782556040850151926001600160a81b03191617600160a01b8360028111156117065761170661367d565b02179055506060919091015160019091018054911515600160a81b0260ff60a81b199092169190911790556001600160a01b0383165f908152600660209081526040808320600454845260079092529091208061176383826140c2565b506001828101805491830180546001600160a01b031981166001600160a01b039094169384178255915460ff600160a01b91829004169391926001600160a81b031916909117908360028111156117bc576117bc61367d565b02179055506001918201549101805460ff60a81b1916600160a81b9283900460ff16151590920291909117905560048054905f6117f883614011565b919050555050505050565b60605f6004546001600160401b038111156118205761182061376b565b60405190808252806020026020018201604052801561187157816020015b6040805160808101825260608082525f60208084018290529383018190529082015282525f1990920191018161183e5790505b5090505f5b6004548110156119cf575f81815260076020526040902060010154600160a81b900460ff16156119c7575f81815260076020526040908190208151608081019092528054829082906118c790613fa4565b80601f01602080910402602001604051908101604052809291908181526020018280546118f390613fa4565b801561193e5780601f106119155761010080835404028352916020019161193e565b820191905f5260205f20905b81548152906001019060200180831161192157829003601f168201915b505050918352505060018201546001600160a01b0381166020830152604090910190600160a01b900460ff16600281111561197b5761197b61367d565b600281111561198c5761198c61367d565b815260019190910154600160a81b900460ff16151560209091015282518390839081106119bb576119bb613ffd565b60200260200101819052505b600101611876565b50919050565b5f80335f90815260066020526040902060010154600160a01b900460ff166002811115611a0457611a0461367d565b14611a215760405162461bcd60e51b815260040161076390614029565b335f90815260066020526040902060010154600160a81b900460ff16611a595760405162461bcd60e51b81526004016107639061404f565b611a7633600354600160405180602001604052805f815250612f4c565b600380545f81815260086020908152604080832093845560018085018054610100600160b01b03191633620100000217905581518083019092528882528183018890529484018054958601815583529120815192939192600290920201908190611ae09082614199565b5060208201516001820190611af59082614199565b5050600354604080519182523360208301527f03b090a5f073126ba1311454936e50b13b4eb5a69549338b4886ff9a0c1bfaed92500160405180910390a160038054905f6117f883614011565b600180335f90815260066020526040902060010154600160a01b900460ff166002811115611b7257611b7261367d565b14611b8f5760405162461bcd60e51b815260040161076390614029565b335f90815260066020526040902060010154600160a81b900460ff16611bc75760405162461bcd60e51b81526004016107639061404f565b60015f83815260086020526040902060010154610100900460ff166003811115611bf357611bf361367d565b14611c325760405162461bcd60e51b815260206004820152600f60248201526e4261746368206e6f7420726561647960881b6044820152606401610763565b5f82815260086020526040908190206001018054610100600160b01b03191633620100000261ff00191617610200179055517fc73ef165ea3d5a0161b64208f0ce43072ee61627d652c5b824a795315419503f90611c9490849060029061424b565b60405180910390a15050565b5f80335f90815260066020526040902060010154600160a01b900460ff166002811115611ccf57611ccf61367d565b14611cec5760405162461bcd60e51b815260040161076390614029565b335f90815260066020526040902060010154600160a81b900460ff16611d245760405162461bcd60e51b81526004016107639061404f565b60025f83815260086020526040902060010154610100900460ff166003811115611d5057611d5061367d565b14611d945760405162461bcd60e51b815260206004820152601460248201527310985d18da081b9bdd081a5b881d1c985b9cda5d60621b6044820152606401610763565b5f82815260086020526040908190206001018054610100600160b01b03191633620100000261ff00191617610300179055517fc73ef165ea3d5a0161b64208f0ce43072ee61627d652c5b824a795315419503f90611c9490849060039061424b565b611e01338383612fa7565b5050565b600180335f90815260066020526040902060010154600160a01b900460ff166002811115611e3557611e3561367d565b14611e525760405162461bcd60e51b815260040161076390614029565b335f90815260066020526040902060010154600160a81b900460ff16611e8a5760405162461bcd60e51b81526004016107639061404f565b5f858152600860205260409020600101546201000090046001600160a01b03163314611ef85760405162461bcd60e51b815260206004820152601760248201527f4e6f74207468652063757272656e742068616e646c65720000000000000000006044820152606401610763565b60025f86815260086020526040902060010154610100900460ff166003811115611f2457611f2461367d565b14611f685760405162461bcd60e51b815260206004820152601460248201527310985d18da081b9bdd081a5b881d1c985b9cda5d60621b6044820152606401610763565b5f8581526008602090815260408083206001808201805462010000600160b01b031916620100006001600160a01b038c160217905582518084019093528783528284018790526003909101805491820181558452919092208251600290920201908190611fd59082614199565b5060208201516001820190611fea9082614199565b505050836001600160a01b0316857f3d4c1e51e991e881ea130ad20e8ceb50acd92250ac0acde4bc7d82e29e84f5b28585604051612029929190614268565b60405180910390a35050505050565b5f838152600860205260409020600101546201000090046001600160a01b031633146120945760405162461bcd60e51b815260206004820152600b60248201526a2737ba103430b7323632b960a91b6044820152606401610763565b60025f84815260086020526040902060010154610100900460ff1660038111156120c0576120c061367d565b146120fe5760405162461bcd60e51b815260206004820152600e60248201526d139bdd081a5b881d1c985b9cda5d60921b6044820152606401610763565b5f838152600860209081526040808320815180830190925285825281830185905260030180546001810182559084529190922082516002909202019081906121469082614199565b506020820151600182019061215b9082614199565b5050507f5386c66b9ad3ab4d97f42fc9a18b9c5b6526c0acda4e9902a147f9df07f184ca8383836040516121919392919061428c565b60405180910390a1505050565b5f600280335f90815260066020526040902060010154600160a01b900460ff1660028111156121cf576121cf61367d565b146121ec5760405162461bcd60e51b815260040161076390614029565b335f90815260066020526040902060010154600160a81b900460ff166122245760405162461bcd60e51b81526004016107639061404f565b5f60055490506040518060a00160405280336001600160a01b031681526020018781526020014281526020018660028111156122625761226261367d565b815260209081018690525f8381526009825260409020825181546001600160a01b0319166001600160a01b039091161781559082015160018201906122a79082614199565b50604082015181600201556060820151816003015f6101000a81548160ff021916908360028111156122db576122db61367d565b0217905550608082015160048201906122f49082614199565b5050600a80546001810182555f9182527fc65a7bb8d6351c1cf70c95a316cc6a92839c986682d98bc35f958f4883f9d2a8018390556005805492509061233983614011565b9091555050604080518281523360208201527f9b5fba485f7739d84caad84e1e07e7c9f2515477bd6b5854ecf133ce191a0a2a910160405180910390a195945050505050565b5f80335f90815260066020526040902060010154600160a01b900460ff1660028111156123ae576123ae61367d565b146123cb5760405162461bcd60e51b815260040161076390614029565b335f90815260066020526040902060010154600160a81b900460ff166124035760405162461bcd60e51b81526004016107639061404f565b5f8083815260086020526040902060010154610100900460ff16600381111561242e5761242e61367d565b146124725760405162461bcd60e51b8152602060048201526014602482015273496e76616c69642062617463682073746174757360601b6044820152606401610763565b5f8281526008602052604090206001908101805461ff0019166101008302179055506040518281527f0d12a96208f78b6b173d4bc5f7de1d8a9377c4e33639c8ef954056f7d350858790602001611c94565b60605f60016003546124d691906142c0565b6001600160401b038111156124ed576124ed61376b565b60405190808252806020026020018201604052801561252657816020015b612513613577565b81526020019060019003908161250b5790505b50905060015b6003548110156119cf575f81815260086020908152604091829020825160c08101909352805483526001810154909183019060ff1660038111156125725761257261367d565b60038111156125835761258361367d565b81526020016001820160019054906101000a900460ff1660038111156125ab576125ab61367d565b60038111156125bc576125bc61367d565b815260018201546201000090046001600160a01b031660208083019190915260028301805460408051828502810185018252828152940193925f9084015b8282101561279e575f8481526020908190206040805160a081019091526005850290910180546001600160a01b03168252600181018054929391929184019161264290613fa4565b80601f016020809104026020016040519081016040528092919081815260200182805461266e90613fa4565b80156126b95780601f10612690576101008083540402835291602001916126b9565b820191905f5260205f20905b81548152906001019060200180831161269c57829003601f168201915b50505091835250506002828101546020830152600383015460409092019160ff16908111156126ea576126ea61367d565b60028111156126fb576126fb61367d565b815260200160048201805461270f90613fa4565b80601f016020809104026020016040519081016040528092919081815260200182805461273b90613fa4565b80156127865780601f1061275d57610100808354040283529160200191612786565b820191905f5260205f20905b81548152906001019060200180831161276957829003601f168201915b505050505081525050815260200190600101906125fa565b50505050815260200160038201805480602002602001604051908101604052809291908181526020015f905b82821015612919578382905f5260205f2090600202016040518060400160405290815f820180546127fa90613fa4565b80601f016020809104026020016040519081016040528092919081815260200182805461282690613fa4565b80156128715780601f1061284857610100808354040283529160200191612871565b820191905f5260205f20905b81548152906001019060200180831161285457829003601f168201915b5050505050815260200160018201805461288a90613fa4565b80601f01602080910402602001604051908101604052809291908181526020018280546128b690613fa4565b80156129015780601f106128d857610100808354040283529160200191612901565b820191905f5260205f20905b8154815290600101906020018083116128e457829003601f168201915b505050505081525050815260200190600101906127ca565b50505091525083905061292d6001846142c0565b8151811061293d5761293d613ffd565b602090810291909101015260010161252c565b6001600160a01b039182165f90815260016020908152604080832093909416825291909152205460ff1690565b60605f60015b6003548110156129d45760015f82815260086020526040902060010154610100900460ff1660038111156129b9576129b961367d565b036129cc57816129c881614011565b9250505b600101612983565b505f816001600160401b038111156129ee576129ee61376b565b604051908082528060200260200182016040528015612a2757816020015b612a14613577565b815260200190600190039081612a0c5790505b5090505f60015b60035481101561070c5760015f82815260086020526040902060010154610100900460ff166003811115612a6457612a6461367d565b03612e80575f81815260086020908152604091829020825160c08101909352805483526001810154909183019060ff166003811115612aa557612aa561367d565b6003811115612ab657612ab661367d565b81526020016001820160019054906101000a900460ff166003811115612ade57612ade61367d565b6003811115612aef57612aef61367d565b815260018201546201000090046001600160a01b031660208083019190915260028301805460408051828502810185018252828152940193925f9084015b82821015612cd1575f8481526020908190206040805160a081019091526005850290910180546001600160a01b031682526001810180549293919291840191612b7590613fa4565b80601f0160208091040260200160405190810160405280929190818152602001828054612ba190613fa4565b8015612bec5780601f10612bc357610100808354040283529160200191612bec565b820191905f5260205f20905b815481529060010190602001808311612bcf57829003601f168201915b50505091835250506002828101546020830152600383015460409092019160ff1690811115612c1d57612c1d61367d565b6002811115612c2e57612c2e61367d565b8152602001600482018054612c4290613fa4565b80601f0160208091040260200160405190810160405280929190818152602001828054612c6e90613fa4565b8015612cb95780601f10612c9057610100808354040283529160200191612cb9565b820191905f5260205f20905b815481529060010190602001808311612c9c57829003601f168201915b50505050508152505081526020019060010190612b2d565b50505050815260200160038201805480602002602001604051908101604052809291908181526020015f905b82821015612e4c578382905f5260205f2090600202016040518060400160405290815f82018054612d2d90613fa4565b80601f0160208091040260200160405190810160405280929190818152602001828054612d5990613fa4565b8015612da45780601f10612d7b57610100808354040283529160200191612da4565b820191905f5260205f20905b815481529060010190602001808311612d8757829003601f168201915b50505050508152602001600182018054612dbd90613fa4565b80601f0160208091040260200160405190810160405280929190818152602001828054612de990613fa4565b8015612e345780601f10612e0b57610100808354040283529160200191612e34565b820191905f5260205f20905b815481529060010190602001808311612e1757829003601f168201915b50505050508152505081526020019060010190612cfd565b5050505081525050838381518110612e6657612e66613ffd565b60200260200101819052508180612e7c90614011565b9250505b600101612a2e565b336001600160a01b0386168114801590612ea95750612ea78682612950565b155b15612eda5760405163711bec9160e11b81526001600160a01b03808316600483015287166024820152604401610763565b610779868686868661303b565b6001600160a01b038416612f1057604051632bfa23e760e11b81525f6004820152602401610763565b6001600160a01b038516612f3857604051626a0d4560e21b81525f6004820152602401610763565b612f4585858585856130c7565b5050505050565b6001600160a01b038416612f7557604051632bfa23e760e11b81525f6004820152602401610763565b604080516001808252602082018690528183019081526060820185905260808201909252906107795f878484876130c7565b6001600160a01b038216612fcf5760405162ced3e160e81b81525f6004820152602401610763565b6001600160a01b038381165f81815260016020908152604080832094871680845294825291829020805460ff191686151590811790915591519182527f17307eab39ab6107e8899845ad3d59bd9653f200f220920489ca2b5937696c31910160405180910390a3505050565b6001600160a01b03841661306457604051632bfa23e760e11b81525f6004820152602401610763565b6001600160a01b03851661308c57604051626a0d4560e21b81525f6004820152602401610763565b604080516001808252602082018690528183019081526060820185905260808201909252906130be87878484876130c7565b50505050505050565b6130d38585858561311a565b6001600160a01b03841615612f45578251339060010361310c5760208481015190840151613105838989858589613329565b5050610779565b61077981878787878761344a565b80518251146131495781518151604051635b05999160e01b815260048101929092526024820152604401610763565b335f5b835181101561324b576020818102858101820151908501909101516001600160a01b038816156131fd575f828152602081815260408083206001600160a01b038c168452909152902054818110156131d7576040516303dee4c560e01b81526001600160a01b038a166004820152602481018290526044810183905260648101849052608401610763565b5f838152602081815260408083206001600160a01b038d16845290915290209082900390555b6001600160a01b03871615613241575f828152602081815260408083206001600160a01b038b1684529091528120805483929061323b908490613fea565b90915550505b505060010161314c565b5082516001036132cb5760208301515f906020840151909150856001600160a01b0316876001600160a01b0316846001600160a01b03167fc3d58168c5ae7397731d063d5bbf3d657854427343f4c083240f7aacaa2d0f6285856040516132bc929190918252602082015260400190565b60405180910390a45050612f45565b836001600160a01b0316856001600160a01b0316826001600160a01b03167f4a39dc06d4c0dbc64b70af90fd698a233a518aa5d07e595d983b8c0526c8f7fb868660405161331a9291906142d3565b60405180910390a45050505050565b6001600160a01b0384163b156107795760405163f23a6e6160e01b81526001600160a01b0385169063f23a6e619061336d90899089908890889088906004016142f7565b6020604051808303815f875af19250505080156133a7575060408051601f3d908101601f191682019092526133a49181019061433b565b60015b61340e573d8080156133d4576040519150601f19603f3d011682016040523d82523d5f602084013e6133d9565b606091505b5080515f0361340657604051632bfa23e760e11b81526001600160a01b0386166004820152602401610763565b805181602001fd5b6001600160e01b0319811663f23a6e6160e01b146130be57604051632bfa23e760e11b81526001600160a01b0386166004820152602401610763565b6001600160a01b0384163b156107795760405163bc197c8160e01b81526001600160a01b0385169063bc197c819061348e9089908990889088908890600401614356565b6020604051808303815f875af19250505080156134c8575060408051601f3d908101601f191682019092526134c59181019061433b565b60015b6134f5573d8080156133d4576040519150601f19603f3d011682016040523d82523d5f602084013e6133d9565b6001600160e01b0319811663bc197c8160e01b146130be57604051632bfa23e760e11b81526001600160a01b0386166004820152602401610763565b6040518060a001604052805f6001600160a01b03168152602001606081526020015f81526020015f600281111561356a5761356a61367d565b8152602001606081525090565b6040805160c081019091525f808252602082019081526020015f81525f60208201526060604082018190529081015290565b80356001600160a01b03811681146135bf575f80fd5b919050565b5f80604083850312156135d5575f80fd5b6135de836135a9565b946020939093013593505050565b6001600160e01b031981168114613601575f80fd5b50565b5f60208284031215613614575f80fd5b813561361f816135ec565b9392505050565b5f60208284031215613636575f80fd5b5035919050565b5f81518084528060208401602086015e5f602082860101526020601f19601f83011685010191505092915050565b602081525f61361f602083018461363d565b634e487b7160e01b5f52602160045260245ffd5b600381106136015761360161367d565b60018060a01b0381511682525f602082015160a060208501526136c760a085018261363d565b90506040830151604085015260608301516136e181613691565b80606086015250608083015184820360808601526136ff828261363d565b95945050505050565b5f602082016020835280845180835260408501915060408160051b8601019250602086015f5b8281101561375f57603f1987860301845261374a8583516136a1565b9450602093840193919091019060010161372e565b50929695505050505050565b634e487b7160e01b5f52604160045260245ffd5b604051601f8201601f191681016001600160401b03811182821017156137a7576137a761376b565b604052919050565b5f6001600160401b038211156137c7576137c761376b565b5060051b60200190565b5f82601f8301126137e0575f80fd5b81356137f36137ee826137af565b61377f565b8082825260208201915060208360051b860101925085831115613814575f80fd5b602085015b83811015613831578035835260209283019201613819565b5095945050505050565b5f82601f83011261384a575f80fd5b8135602083015f806001600160401b038411156138695761386961376b565b50601f8301601f191660200161387e8161377f565b915050828152858383011115613892575f80fd5b828260208301375f92810160200192909252509392505050565b5f805f805f60a086880312156138c0575f80fd5b6138c9866135a9565b94506138d7602087016135a9565b935060408601356001600160401b038111156138f1575f80fd5b6138fd888289016137d1565b93505060608601356001600160401b03811115613918575f80fd5b613924888289016137d1565b92505060808601356001600160401b0381111561393f575f80fd5b61394b8882890161383b565b9150509295509295909350565b5f8060408385031215613969575f80fd5b82356001600160401b0381111561397e575f80fd5b8301601f8101851361398e575f80fd5b803561399c6137ee826137af565b8082825260208201915060208360051b8501019250878311156139bd575f80fd5b6020840193505b828410156139e6576139d5846135a9565b8252602093840193909101906139c4565b945050505060208301356001600160401b03811115613a03575f80fd5b613a0f858286016137d1565b9150509250929050565b5f8151808452602084019350602083015f5b82811015613a49578151865260209586019590910190600101613a2b565b5093949350505050565b602081525f61361f6020830184613a19565b600481106136015761360161367d565b5f82825180855260208501945060208160051b830101602085015f5b83811015613aea57601f198584030188528151805160408552613ab7604086018261363d565b9050602082015191508481036020860152613ad2818361363d565b60209a8b019a90955093909301925050600101613a91565b50909695505050505050565b5f60c08301825184526020830151613b0d81613a65565b60208501526040830151613b2081613a65565b8060408601525060018060a01b036060840151166060850152608083015160c0608086015281815180845260e08701915060e08160051b88010193506020830192505f5b81811015613b955760df19888603018352613b808585516136a1565b94506020938401939290920191600101613b64565b5050505060a083015184820360a08601526136ff8282613a75565b602081525f61361f6020830184613af6565b5f8060408385031215613bd3575f80fd5b50508035926020909101359150565b602081525f61361f60208301846136a1565b5f602082016020835280845180835260408501915060408160051b8601019250602086015f5b8281101561375f57603f19878603018452613c36858351613af6565b94506020938401939190910190600101613c1a565b60038110613601575f80fd5b5f805f60608486031215613c69575f80fd5b83356001600160401b03811115613c7e575f80fd5b613c8a8682870161383b565b935050613c99602085016135a9565b91506040840135613ca981613c4b565b809150509250925092565b5f602082016020835280845180835260408501915060408160051b8601019250602086015f5b8281101561375f57603f198786030184528151805160808752613d00608088018261363d565b6020838101516001600160a01b0316908901526040830151909150613d2481613691565b6040880152606091820151151591909601526020938401939190910190600101613cda565b5f8060408385031215613d5a575f80fd5b82356001600160401b03811115613d6f575f80fd5b613d7b8582860161383b565b92505060208301356001600160401b03811115613d96575f80fd5b613a0f8582860161383b565b5f8060408385031215613db3575f80fd5b613dbc836135a9565b915060208301358015158114613dd0575f80fd5b809150509250929050565b5f805f8060808587031215613dee575f80fd5b84359350613dfe602086016135a9565b925060408501356001600160401b03811115613e18575f80fd5b613e248782880161383b565b92505060608501356001600160401b03811115613e3f575f80fd5b613e4b8782880161383b565b91505092959194509250565b5f805f60608486031215613e69575f80fd5b8335925060208401356001600160401b03811115613e85575f80fd5b613e918682870161383b565b92505060408401356001600160401b03811115613eac575f80fd5b613eb88682870161383b565b9150509250925092565b5f805f60608486031215613ed4575f80fd5b83356001600160401b03811115613ee9575f80fd5b613ef58682870161383b565b9350506020840135613f0681613c4b565b915060408401356001600160401b03811115613eac575f80fd5b5f8060408385031215613f31575f80fd5b613f3a836135a9565b9150613f48602084016135a9565b90509250929050565b5f805f805f60a08688031215613f65575f80fd5b613f6e866135a9565b9450613f7c602087016135a9565b9350604086013592506060860135915060808601356001600160401b0381111561393f575f80fd5b600181811c90821680613fb857607f821691505b6020821081036119cf57634e487b7160e01b5f52602260045260245ffd5b634e487b7160e01b5f52601160045260245ffd5b8082018082111561038857610388613fd6565b634e487b7160e01b5f52603260045260245ffd5b5f6001820161402257614022613fd6565b5060010190565b6020808252600c908201526b155b985d5d1a1bdc9a5e995960a21b604082015260600190565b60208082526010908201526f4163636f756e7420696e61637469766560801b604082015260600190565b601f8211156140bd57805f5260205f20601f840160051c8101602085101561409e5750805b601f840160051c820191505b81811015612f45575f81556001016140aa565b505050565b8181036140cd575050565b6140d78254613fa4565b6001600160401b038111156140ee576140ee61376b565b614102816140fc8454613fa4565b84614079565b5f601f821160018114614136575f831561411c5750848201545b600184901b5f19600386901b1c198216175b855550612f45565b5f8581526020808220868352908220601f198616925b8381101561416c578286015482556001958601959091019060200161414c565b508583101561418957818501545f19600388901b60f8161c191681555b5050505050600190811b01905550565b81516001600160401b038111156141b2576141b261376b565b6141c0816140fc8454613fa4565b6020601f8211600181146141f0575f831561411c575081850151600184901b5f19600386901b1c1982161761412e565b5f84815260208120601f198516915b8281101561421f57878501518255602094850194600190920191016141ff565b508482101561423c57868401515f19600387901b60f8161c191681555b50505050600190811b01905550565b8281526040810161425b83613a65565b8260208301529392505050565b604081525f61427a604083018561363d565b82810360208401526136ff818561363d565b838152606060208201525f6142a4606083018561363d565b82810360408401526142b6818561363d565b9695505050505050565b8181038181111561038857610388613fd6565b604081525f6142e56040830185613a19565b82810360208401526136ff8185613a19565b6001600160a01b03868116825285166020820152604081018490526060810183905260a0608082018190525f906143309083018461363d565b979650505050505050565b5f6020828403121561434b575f80fd5b815161361f816135ec565b6001600160a01b0386811682528516602082015260a0604082018190525f9061438190830186613a19565b82810360608401526143938186613a19565b905082810360808401526143a7818561363d565b9897505050505050505056fea26469706673582212201dd483598f7670562be30b9f3c02b2169532ea5818e47ae42180fdf9884f18b564736f6c634300081a003368747470733a2f2f746f6b656e2d63646e2d646f6d61696e2f7b69647d2e6a736f6e","linkReferences":{}},"methodIdentifiers":{"addDonationToBatch(uint256,uint256)":"718966cf","addMember(string,address,uint8)":"7ce8dc78","balanceOf(address,uint256)":"00fdd58e","balanceOfBatch(address[],uint256[])":"4e1273f4","claimBatchForDelivery(uint256)":"a1cc2939","claimBatchForTransporter(uint256)":"98f681c8","closeBatch(uint256)":"d2c411d3","createBatch(string,string)":"92b8f021","createDonation(string,uint8,string)":"bd99c344","getAllBatches()":"e80e076b","getAllBatchesWithStatusClosedReadyForTransporter()":"e9cf8c06","getAllBatchesWithStatusInTransitReadyForDeliveryIn()":"7a692ba2","getAllDonationsInAllBatches()":"17b42c77","getAllListOfMembers()":"7ef2a569","getBatch(uint256)":"5ac44282","getDonation(uint256,uint256)":"76ff7bf4","isApprovedForAll(address,address)":"e985e9c5","safeBatchTransferFrom(address,address,uint256[],uint256[],bytes)":"2eb2c2d6","safeTransferFrom(address,address,uint256,uint256,bytes)":"f242432a","setApprovalForAll(address,bool)":"a22cb465","supportsInterface(bytes4)":"01ffc9a7","transferBatch(uint256,address,string,string)":"b3641cfd","updateLocation(uint256,string,string)":"b7472885","uri(uint256)":"0e89341c"},"id":42}