{"abi":[{"type":"constructor","inputs":[],"stateMutability":"nonpayable"},{"type":"function","name":"addDonation","inputs":[{"name":"batchId","type":"uint256","internalType":"uint256"},{"name":"productDescription","type":"string","internalType":"string"}],"outputs":[],"stateMutability":"nonpayable"},{"type":"function","name":"addMember","inputs":[{"name":"account","type":"address","internalType":"address"},{"name":"role","type":"uint8","internalType":"enum IDataTypes.Role"},{"name":"isActive","type":"bool","internalType":"bool"}],"outputs":[],"stateMutability":"nonpayable"},{"type":"function","name":"balanceOf","inputs":[{"name":"account","type":"address","internalType":"address"},{"name":"id","type":"uint256","internalType":"uint256"}],"outputs":[{"name":"","type":"uint256","internalType":"uint256"}],"stateMutability":"view"},{"type":"function","name":"balanceOfBatch","inputs":[{"name":"accounts","type":"address[]","internalType":"address[]"},{"name":"ids","type":"uint256[]","internalType":"uint256[]"}],"outputs":[{"name":"","type":"uint256[]","internalType":"uint256[]"}],"stateMutability":"view"},{"type":"function","name":"claimBatchForDelivery","inputs":[{"name":"batchId","type":"uint256","internalType":"uint256"}],"outputs":[],"stateMutability":"nonpayable"},{"type":"function","name":"claimBatchForTransporter","inputs":[{"name":"batchId","type":"uint256","internalType":"uint256"}],"outputs":[],"stateMutability":"nonpayable"},{"type":"function","name":"closeBatch","inputs":[{"name":"batchId","type":"uint256","internalType":"uint256"}],"outputs":[],"stateMutability":"nonpayable"},{"type":"function","name":"createBatch","inputs":[{"name":"latitude","type":"string","internalType":"string"},{"name":"longitude","type":"string","internalType":"string"}],"outputs":[],"stateMutability":"nonpayable"},{"type":"function","name":"getAllBatches","inputs":[],"outputs":[{"name":"","type":"tuple[]","internalType":"struct IDataTypes.Batch[]","components":[{"name":"id","type":"uint256","internalType":"uint256"},{"name":"destinationZone","type":"uint8","internalType":"enum IDataTypes.DistributionZones"},{"name":"status","type":"uint8","internalType":"enum IDataTypes.BatchStatus"},{"name":"currentHandler","type":"address","internalType":"address"},{"name":"donations","type":"tuple[]","internalType":"struct IDataTypes.Donation[]","components":[{"name":"donor","type":"address","internalType":"address"},{"name":"description","type":"string","internalType":"string"},{"name":"timestamp","type":"uint256","internalType":"uint256"}]},{"name":"locations","type":"tuple[]","internalType":"struct IDataTypes.Location[]","components":[{"name":"latitude","type":"string","internalType":"string"},{"name":"longitude","type":"string","internalType":"string"}]}]}],"stateMutability":"view"},{"type":"function","name":"getAllBatchesWithStatusClosedReadyForTransporter","inputs":[],"outputs":[{"name":"","type":"tuple[]","internalType":"struct IDataTypes.Batch[]","components":[{"name":"id","type":"uint256","internalType":"uint256"},{"name":"destinationZone","type":"uint8","internalType":"enum IDataTypes.DistributionZones"},{"name":"status","type":"uint8","internalType":"enum IDataTypes.BatchStatus"},{"name":"currentHandler","type":"address","internalType":"address"},{"name":"donations","type":"tuple[]","internalType":"struct IDataTypes.Donation[]","components":[{"name":"donor","type":"address","internalType":"address"},{"name":"description","type":"string","internalType":"string"},{"name":"timestamp","type":"uint256","internalType":"uint256"}]},{"name":"locations","type":"tuple[]","internalType":"struct IDataTypes.Location[]","components":[{"name":"latitude","type":"string","internalType":"string"},{"name":"longitude","type":"string","internalType":"string"}]}]}],"stateMutability":"view"},{"type":"function","name":"getAllBatchesWithStatusInTransitReadyForDelivery","inputs":[],"outputs":[{"name":"","type":"tuple[]","internalType":"struct IDataTypes.Batch[]","components":[{"name":"id","type":"uint256","internalType":"uint256"},{"name":"destinationZone","type":"uint8","internalType":"enum IDataTypes.DistributionZones"},{"name":"status","type":"uint8","internalType":"enum IDataTypes.BatchStatus"},{"name":"currentHandler","type":"address","internalType":"address"},{"name":"donations","type":"tuple[]","internalType":"struct IDataTypes.Donation[]","components":[{"name":"donor","type":"address","internalType":"address"},{"name":"description","type":"string","internalType":"string"},{"name":"timestamp","type":"uint256","internalType":"uint256"}]},{"name":"locations","type":"tuple[]","internalType":"struct IDataTypes.Location[]","components":[{"name":"latitude","type":"string","internalType":"string"},{"name":"longitude","type":"string","internalType":"string"}]}]}],"stateMutability":"view"},{"type":"function","name":"getAllDonationsInAllBatches","inputs":[],"outputs":[{"name":"","type":"tuple[]","internalType":"struct IDataTypes.Donation[]","components":[{"name":"donor","type":"address","internalType":"address"},{"name":"description","type":"string","internalType":"string"},{"name":"timestamp","type":"uint256","internalType":"uint256"}]}],"stateMutability":"view"},{"type":"function","name":"getAllListOfMembers","inputs":[],"outputs":[{"name":"","type":"tuple[]","internalType":"struct IDataTypes.Members[]","components":[{"name":"account","type":"address","internalType":"address"},{"name":"role","type":"uint8","internalType":"enum IDataTypes.Role"},{"name":"isActive","type":"bool","internalType":"bool"}]}],"stateMutability":"view"},{"type":"function","name":"getBatch","inputs":[{"name":"batchId","type":"uint256","internalType":"uint256"}],"outputs":[{"name":"","type":"tuple","internalType":"struct IDataTypes.Batch","components":[{"name":"id","type":"uint256","internalType":"uint256"},{"name":"destinationZone","type":"uint8","internalType":"enum IDataTypes.DistributionZones"},{"name":"status","type":"uint8","internalType":"enum IDataTypes.BatchStatus"},{"name":"currentHandler","type":"address","internalType":"address"},{"name":"donations","type":"tuple[]","internalType":"struct IDataTypes.Donation[]","components":[{"name":"donor","type":"address","internalType":"address"},{"name":"description","type":"string","internalType":"string"},{"name":"timestamp","type":"uint256","internalType":"uint256"}]},{"name":"locations","type":"tuple[]","internalType":"struct IDataTypes.Location[]","components":[{"name":"latitude","type":"string","internalType":"string"},{"name":"longitude","type":"string","internalType":"string"}]}]}],"stateMutability":"view"},{"type":"function","name":"getDonation","inputs":[{"name":"batchId","type":"uint256","internalType":"uint256"},{"name":"index","type":"uint256","internalType":"uint256"}],"outputs":[{"name":"","type":"tuple","internalType":"struct IDataTypes.Donation","components":[{"name":"donor","type":"address","internalType":"address"},{"name":"description","type":"string","internalType":"string"},{"name":"timestamp","type":"uint256","internalType":"uint256"}]}],"stateMutability":"view"},{"type":"function","name":"isApprovedForAll","inputs":[{"name":"account","type":"address","internalType":"address"},{"name":"operator","type":"address","internalType":"address"}],"outputs":[{"name":"","type":"bool","internalType":"bool"}],"stateMutability":"view"},{"type":"function","name":"safeBatchTransferFrom","inputs":[{"name":"from","type":"address","internalType":"address"},{"name":"to","type":"address","internalType":"address"},{"name":"ids","type":"uint256[]","internalType":"uint256[]"},{"name":"values","type":"uint256[]","internalType":"uint256[]"},{"name":"data","type":"bytes","internalType":"bytes"}],"outputs":[],"stateMutability":"nonpayable"},{"type":"function","name":"safeTransferFrom","inputs":[{"name":"from","type":"address","internalType":"address"},{"name":"to","type":"address","internalType":"address"},{"name":"id","type":"uint256","internalType":"uint256"},{"name":"value","type":"uint256","internalType":"uint256"},{"name":"data","type":"bytes","internalType":"bytes"}],"outputs":[],"stateMutability":"nonpayable"},{"type":"function","name":"setApprovalForAll","inputs":[{"name":"operator","type":"address","internalType":"address"},{"name":"approved","type":"bool","internalType":"bool"}],"outputs":[],"stateMutability":"nonpayable"},{"type":"function","name":"supportsInterface","inputs":[{"name":"interfaceId","type":"bytes4","internalType":"bytes4"}],"outputs":[{"name":"","type":"bool","internalType":"bool"}],"stateMutability":"view"},{"type":"function","name":"transferBatch","inputs":[{"name":"batchId","type":"uint256","internalType":"uint256"},{"name":"newHandler","type":"address","internalType":"address"},{"name":"latitude","type":"string","internalType":"string"},{"name":"longitude","type":"string","internalType":"string"}],"outputs":[],"stateMutability":"nonpayable"},{"type":"function","name":"updateLocation","inputs":[{"name":"batchId","type":"uint256","internalType":"uint256"},{"name":"latitude","type":"string","internalType":"string"},{"name":"longitude","type":"string","internalType":"string"}],"outputs":[],"stateMutability":"nonpayable"},{"type":"function","name":"uri","inputs":[{"name":"","type":"uint256","internalType":"uint256"}],"outputs":[{"name":"","type":"string","internalType":"string"}],"stateMutability":"view"},{"type":"event","name":"ApprovalForAll","inputs":[{"name":"account","type":"address","indexed":true,"internalType":"address"},{"name":"operator","type":"address","indexed":true,"internalType":"address"},{"name":"approved","type":"bool","indexed":false,"internalType":"bool"}],"anonymous":false},{"type":"event","name":"BatchClaimed","inputs":[{"name":"batchId","type":"uint256","indexed":false,"internalType":"uint256"},{"name":"status","type":"uint8","indexed":false,"internalType":"enum IDataTypes.BatchStatus"}],"anonymous":false},{"type":"event","name":"BatchClosed","inputs":[{"name":"batchId","type":"uint256","indexed":false,"internalType":"uint256"}],"anonymous":false},{"type":"event","name":"BatchCreated","inputs":[{"name":"batchId","type":"uint256","indexed":false,"internalType":"uint256"},{"name":"currentHandler","type":"address","indexed":false,"internalType":"address"}],"anonymous":false},{"type":"event","name":"BatchTransferred","inputs":[{"name":"batchId","type":"uint256","indexed":true,"internalType":"uint256"},{"name":"newHandler","type":"address","indexed":true,"internalType":"address"},{"name":"latitude","type":"string","indexed":false,"internalType":"string"},{"name":"longitude","type":"string","indexed":false,"internalType":"string"}],"anonymous":false},{"type":"event","name":"DistributionZoneUpdated","inputs":[{"name":"batchId","type":"uint256","indexed":false,"internalType":"uint256"},{"name":"destinationZone","type":"uint8","indexed":false,"internalType":"enum IDataTypes.DistributionZones"}],"anonymous":false},{"type":"event","name":"LocationUpdated","inputs":[{"name":"batchId","type":"uint256","indexed":false,"internalType":"uint256"},{"name":"latitude","type":"string","indexed":false,"internalType":"string"},{"name":"longitude","type":"string","indexed":false,"internalType":"string"}],"anonymous":false},{"type":"event","name":"ProductAdded","inputs":[{"name":"batchId","type":"uint256","indexed":false,"internalType":"uint256"},{"name":"productIndex","type":"uint256","indexed":false,"internalType":"uint256"},{"name":"donor","type":"address","indexed":false,"internalType":"address"}],"anonymous":false},{"type":"event","name":"TransferBatch","inputs":[{"name":"operator","type":"address","indexed":true,"internalType":"address"},{"name":"from","type":"address","indexed":true,"internalType":"address"},{"name":"to","type":"address","indexed":true,"internalType":"address"},{"name":"ids","type":"uint256[]","indexed":false,"internalType":"uint256[]"},{"name":"values","type":"uint256[]","indexed":false,"internalType":"uint256[]"}],"anonymous":false},{"type":"event","name":"TransferSingle","inputs":[{"name":"operator","type":"address","indexed":true,"internalType":"address"},{"name":"from","type":"address","indexed":true,"internalType":"address"},{"name":"to","type":"address","indexed":true,"internalType":"address"},{"name":"id","type":"uint256","indexed":false,"internalType":"uint256"},{"name":"value","type":"uint256","indexed":false,"internalType":"uint256"}],"anonymous":false},{"type":"event","name":"URI","inputs":[{"name":"value","type":"string","indexed":false,"internalType":"string"},{"name":"id","type":"uint256","indexed":true,"internalType":"uint256"}],"anonymous":false},{"type":"error","name":"ERC1155InsufficientBalance","inputs":[{"name":"sender","type":"address","internalType":"address"},{"name":"balance","type":"uint256","internalType":"uint256"},{"name":"needed","type":"uint256","internalType":"uint256"},{"name":"tokenId","type":"uint256","internalType":"uint256"}]},{"type":"error","name":"ERC1155InvalidApprover","inputs":[{"name":"approver","type":"address","internalType":"address"}]},{"type":"error","name":"ERC1155InvalidArrayLength","inputs":[{"name":"idsLength","type":"uint256","internalType":"uint256"},{"name":"valuesLength","type":"uint256","internalType":"uint256"}]},{"type":"error","name":"ERC1155InvalidOperator","inputs":[{"name":"operator","type":"address","internalType":"address"}]},{"type":"error","name":"ERC1155InvalidReceiver","inputs":[{"name":"receiver","type":"address","internalType":"address"}]},{"type":"error","name":"ERC1155InvalidSender","inputs":[{"name":"sender","type":"address","internalType":"address"}]},{"type":"error","name":"ERC1155MissingApprovalForAll","inputs":[{"name":"operator","type":"address","internalType":"address"},{"name":"owner","type":"address","internalType":"address"}]}],"bytecode":{"object":"0x608060405260016003555f600455348015610018575f80fd5b50604051806060016040528060228152602001613cd46022913961003b81610179565b506040805160608101909152338152602081015f81526001602091820152335f9081526005825260409020825181546001600160a01b03919091166001600160a01b031982168117835592840151919283916001600160a81b03191617600160a01b8360028111156100af576100af610189565b02179055506040918201518154901515600160a81b0260ff60a81b19909116179055335f9081526005602090815282822060045483526006909152919020815481546001600160a01b031981166001600160a01b039290921691821783558354600160a01b9081900460ff169284926001600160a81b031916179083600281111561013c5761013c610189565b02179055509054815460ff60a81b1916600160a81b9182900460ff16151590910217905560048054905f61016f8361019d565b9190505550610313565b60026101858282610259565b5050565b634e487b7160e01b5f52602160045260245ffd5b5f600182016101ba57634e487b7160e01b5f52601160045260245ffd5b5060010190565b634e487b7160e01b5f52604160045260245ffd5b600181811c908216806101e957607f821691505b60208210810361020757634e487b7160e01b5f52602260045260245ffd5b50919050565b601f82111561025457805f5260205f20601f840160051c810160208510156102325750805b601f840160051c820191505b81811015610251575f815560010161023e565b50505b505050565b81516001600160401b03811115610272576102726101c1565b6102868161028084546101d5565b8461020d565b6020601f8211600181146102b8575f83156102a15750848201515b5f19600385901b1c1916600184901b178455610251565b5f84815260208120601f198516915b828110156102e757878501518255602094850194600190920191016102c7565b508482101561030457868401515f19600387901b60f8161c191681555b50505050600190811b01905550565b6139b4806103205f395ff3fe608060405234801561000f575f80fd5b5060043610610147575f3560e01c806392b8f021116100bf578063b747288511610079578063b7472885146102ed578063d2c411d314610300578063e80e076b14610313578063e985e9c51461031b578063e9cf8c061461032e578063f242432a14610336575f80fd5b806392b8f0211461027957806398f681c81461028c5780639b340d011461029f578063a1cc2939146102b4578063a22cb465146102c7578063b3641cfd146102da575f80fd5b80634d27dc23116101105780634d27dc23146101de5780634e1273f4146101f15780635ac442821461021157806367e2c87f1461023157806376ff7bf4146102445780637ef2a56914610264575f80fd5b8062fdd58e1461014b57806301ffc9a7146101715780630e89341c1461019457806317b42c77146101b45780632eb2c2d6146101c9575b5f80fd5b61015e610159366004612d03565b610349565b6040519081526020015b60405180910390f35b61018461017f366004612d43565b610370565b6040519015158152602001610168565b6101a76101a2366004612d65565b6103bf565b6040516101689190612daa565b6101bc610451565b6040516101689190612df6565b6101dc6101d7366004612f9a565b610657565b005b6101dc6101ec366004613046565b6106c3565b6102046101ff366004613089565b610877565b604051610168919061317a565b61022461021f366004612d65565b610941565b60405161016891906132f4565b6101dc61023f366004613315565b610c77565b61025761025236600461335a565b610e57565b604051610168919061337a565b61026c610f75565b604051610168919061338c565b6101dc610287366004613407565b6110a4565b6101dc61029a366004612d65565b61120b565b6102a7611363565b6040516101689190613454565b6101dc6102c2366004612d65565b6117ab565b6101dc6102d53660046134ab565b6118fb565b6101dc6102e83660046134dc565b61190a565b6101dc6102fb366004613558565b611b37565b6101dc61030e366004612d65565b611c90565b6102a7611dcf565b6101846103293660046135c3565b612198565b6102a76121c5565b6101dc6103443660046135eb565b61260d565b5f818152602081815260408083206001600160a01b03861684529091529020545b92915050565b5f6001600160e01b03198216636cdb3d1360e11b14806103a057506001600160e01b031982166303a24d0760e21b145b8061036a57506301ffc9a760e01b6001600160e01b031983161461036a565b6060600280546103ce9061363e565b80601f01602080910402602001604051908101604052809291908181526020018280546103fa9061363e565b80156104455780601f1061041c57610100808354040283529160200191610445565b820191905f5260205f20905b81548152906001019060200180831161042857829003601f168201915b50505050509050919050565b60605f60015b600354811015610486575f8181526007602052604090206002015461047c9083613684565b9150600101610457565b505f816001600160401b038111156104a0576104a0612e59565b6040519080825280602002602001820160405280156104fc57816020015b6104e960405180606001604052805f6001600160a01b03168152602001606081526020015f81525090565b8152602001906001900390816104be5790505b5090505f60015b60035481101561064e575f5b5f82815260076020526040902060020154811015610645575f82815260076020526040902060020180548290811061054957610549613697565b5f918252602091829020604080516060810190915260039092020180546001600160a01b0316825260018101805492939192918401916105889061363e565b80601f01602080910402602001604051908101604052809291908181526020018280546105b49061363e565b80156105ff5780601f106105d6576101008083540402835291602001916105ff565b820191905f5260205f20905b8154815290600101906020018083116105e257829003601f168201915b5050505050815260200160028201548152505084848151811061062457610624613697565b6020026020010181905250828061063a906136ab565b93505060010161050f565b50600101610503565b50909392505050565b336001600160a01b038616811480159061067857506106768682612198565b155b156106ae5760405163711bec9160e11b81526001600160a01b038083166004830152871660248201526044015b60405180910390fd5b6106bb868686868661266c565b505050505050565b600280335f90815260056020526040902054600160a01b900460ff1660028111156106f0576106f061318c565b1461070d5760405162461bcd60e51b81526004016106a5906136c3565b335f90815260056020526040902054600160a81b900460ff166107425760405162461bcd60e51b81526004016106a5906136e9565b5f838152600760205260409020600201546005116107925760405162461bcd60e51b815260206004820152600d60248201526c10985d18da081a5cc8199d5b1b609a1b60448201526064016106a5565b5f83815260076020908152604080832081516060810183523381528084018781524293820193909352600290910180546001808201835591865293909420815160039094020180546001600160a01b0319166001600160a01b0390941693909317835590519092820190610806908261375c565b506040918201516002918201555f85815260076020529190912001547f570b1ff121506a2a203cd2fa6dfe1d3480f6de0b4bd49aaf46b8847c0083a86490849061085290600190613816565b60408051928352602083019190915233908201526060015b60405180910390a1505050565b606081518351146108a85781518351604051635b05999160e01b8152600481019290925260248201526044016106a5565b5f83516001600160401b038111156108c2576108c2612e59565b6040519080825280602002602001820160405280156108eb578160200160208202803683370190505b5090505f5b84518110156109395760208082028601015161091490602080840287010151610349565b82828151811061092657610926613697565b60209081029190910101526001016108f0565b509392505050565b610949612cb6565b5f82815260076020908152604091829020825160c08101909352805483526001810154909183019060ff1660038111156109855761098561318c565b60038111156109965761099661318c565b81526020016001820160019054906101000a900460ff1660038111156109be576109be61318c565b60038111156109cf576109cf61318c565b815260018201546201000090046001600160a01b031660208083019190915260028301805460408051828502810185018252828152940193925f9084015b82821015610aee575f84815260209081902060408051606081019091526003850290910180546001600160a01b031682526001810180549293919291840191610a559061363e565b80601f0160208091040260200160405190810160405280929190818152602001828054610a819061363e565b8015610acc5780601f10610aa357610100808354040283529160200191610acc565b820191905f5260205f20905b815481529060010190602001808311610aaf57829003601f168201915b5050505050815260200160028201548152505081526020019060010190610a0d565b50505050815260200160038201805480602002602001604051908101604052809291908181526020015f905b82821015610c69578382905f5260205f2090600202016040518060400160405290815f82018054610b4a9061363e565b80601f0160208091040260200160405190810160405280929190818152602001828054610b769061363e565b8015610bc15780601f10610b9857610100808354040283529160200191610bc1565b820191905f5260205f20905b815481529060010190602001808311610ba457829003601f168201915b50505050508152602001600182018054610bda9061363e565b80601f0160208091040260200160405190810160405280929190818152602001828054610c069061363e565b8015610c515780601f10610c2857610100808354040283529160200191610c51565b820191905f5260205f20905b815481529060010190602001808311610c3457829003601f168201915b50505050508152505081526020019060010190610b1a565b505050915250909392505050565b5f80335f90815260056020526040902054600160a01b900460ff166002811115610ca357610ca361318c565b14610cc05760405162461bcd60e51b81526004016106a5906136c3565b335f90815260056020526040902054600160a81b900460ff16610cf55760405162461bcd60e51b81526004016106a5906136e9565b6040518060600160405280856001600160a01b03168152602001846002811115610d2157610d2161318c565b81528315156020918201526001600160a01b038087165f90815260058352604090208351815492166001600160a01b0319831681178255928401519092909183916001600160a81b031990911617600160a01b836002811115610d8657610d8661318c565b0217905550604091820151815460ff60a81b1916600160a81b911515919091021790556001600160a01b038581165f90815260056020908152838220600454835260069091529290208254815492166001600160a01b03198316811782558354919260ff600160a01b93849004169284926001600160a81b031990921690911790836002811115610e1957610e1961318c565b02179055509054815460ff60a81b1916600160a81b9182900460ff16151590910217905560048054905f610e4c836136ab565b919050555050505050565b610e8260405180606001604052805f6001600160a01b03168152602001606081526020015f81525090565b5f838152600760205260409020600201805483908110610ea457610ea4613697565b5f918252602091829020604080516060810190915260039092020180546001600160a01b031682526001810180549293919291840191610ee39061363e565b80601f0160208091040260200160405190810160405280929190818152602001828054610f0f9061363e565b8015610f5a5780601f10610f3157610100808354040283529160200191610f5a565b820191905f5260205f20905b815481529060010190602001808311610f3d57829003601f168201915b50505050508152602001600282015481525050905092915050565b60605f6004546001600160401b03811115610f9257610f92612e59565b604051908082528060200260200182016040528015610fdb57816020015b604080516060810182525f80825260208083018290529282015282525f19909201910181610fb05790505b5090505f5b60045481101561109e575f81815260066020526040902054600160a81b900460ff1615611096575f8181526006602090815260409182902082516060810190935280546001600160a01b03811684529091830190600160a01b900460ff16600281111561104f5761104f61318c565b60028111156110605761106061318c565b81529054600160a81b900460ff161515602090910152825183908390811061108a5761108a613697565b60200260200101819052505b600101610fe0565b50919050565b5f80335f90815260056020526040902054600160a01b900460ff1660028111156110d0576110d061318c565b146110ed5760405162461bcd60e51b81526004016106a5906136c3565b335f90815260056020526040902054600160a81b900460ff166111225760405162461bcd60e51b81526004016106a5906136e9565b61113f33600354600160405180602001604052805f8152506126d1565b600380545f81815260076020908152604080832093845560018085018054610100600160b01b031916336201000002179055815180830190925288825281830188905294840180549586018155835291208151929391926002909202019081906111a9908261375c565b50602082015160018201906111be908261375c565b5050600354604080519182523360208301527f03b090a5f073126ba1311454936e50b13b4eb5a69549338b4886ff9a0c1bfaed92500160405180910390a160038054905f610e4c836136ab565b600180335f90815260056020526040902054600160a01b900460ff1660028111156112385761123861318c565b146112555760405162461bcd60e51b81526004016106a5906136c3565b335f90815260056020526040902054600160a81b900460ff1661128a5760405162461bcd60e51b81526004016106a5906136e9565b60015f83815260076020526040902060010154610100900460ff1660038111156112b6576112b661318c565b146112f55760405162461bcd60e51b815260206004820152600f60248201526e4261746368206e6f7420726561647960881b60448201526064016106a5565b5f82815260076020526040908190206001018054610100600160b01b03191633620100000261ff00191617610200179055517fc73ef165ea3d5a0161b64208f0ce43072ee61627d652c5b824a795315419503f90611357908490600290613829565b60405180910390a15050565b60605f60015b6003548110156113ba5760025f82815260076020526040902060010154610100900460ff16600381111561139f5761139f61318c565b036113b257816113ae816136ab565b9250505b600101611369565b505f816001600160401b038111156113d4576113d4612e59565b60405190808252806020026020018201604052801561140d57816020015b6113fa612cb6565b8152602001906001900390816113f25790505b5090505f60015b60035481101561064e5760025f82815260076020526040902060010154610100900460ff16600381111561144a5761144a61318c565b036117a3575f81815260076020908152604091829020825160c08101909352805483526001810154909183019060ff16600381111561148b5761148b61318c565b600381111561149c5761149c61318c565b81526020016001820160019054906101000a900460ff1660038111156114c4576114c461318c565b60038111156114d5576114d561318c565b815260018201546201000090046001600160a01b031660208083019190915260028301805460408051828502810185018252828152940193925f9084015b828210156115f4575f84815260209081902060408051606081019091526003850290910180546001600160a01b03168252600181018054929391929184019161155b9061363e565b80601f01602080910402602001604051908101604052809291908181526020018280546115879061363e565b80156115d25780601f106115a9576101008083540402835291602001916115d2565b820191905f5260205f20905b8154815290600101906020018083116115b557829003601f168201915b5050505050815260200160028201548152505081526020019060010190611513565b50505050815260200160038201805480602002602001604051908101604052809291908181526020015f905b8282101561176f578382905f5260205f2090600202016040518060400160405290815f820180546116509061363e565b80601f016020809104026020016040519081016040528092919081815260200182805461167c9061363e565b80156116c75780601f1061169e576101008083540402835291602001916116c7565b820191905f5260205f20905b8154815290600101906020018083116116aa57829003601f168201915b505050505081526020016001820180546116e09061363e565b80601f016020809104026020016040519081016040528092919081815260200182805461170c9061363e565b80156117575780601f1061172e57610100808354040283529160200191611757565b820191905f5260205f20905b81548152906001019060200180831161173a57829003601f168201915b50505050508152505081526020019060010190611620565b505050508152505083838151811061178957611789613697565b6020026020010181905250818061179f906136ab565b9250505b600101611414565b5f80335f90815260056020526040902054600160a01b900460ff1660028111156117d7576117d761318c565b146117f45760405162461bcd60e51b81526004016106a5906136c3565b335f90815260056020526040902054600160a81b900460ff166118295760405162461bcd60e51b81526004016106a5906136e9565b60025f83815260076020526040902060010154610100900460ff1660038111156118555761185561318c565b146118995760405162461bcd60e51b815260206004820152601460248201527310985d18da081b9bdd081a5b881d1c985b9cda5d60621b60448201526064016106a5565b5f82815260076020526040908190206001018054610100600160b01b03191633620100000261ff00191617610300179055517fc73ef165ea3d5a0161b64208f0ce43072ee61627d652c5b824a795315419503f90611357908490600390613829565b61190633838361272c565b5050565b600180335f90815260056020526040902054600160a01b900460ff1660028111156119375761193761318c565b146119545760405162461bcd60e51b81526004016106a5906136c3565b335f90815260056020526040902054600160a81b900460ff166119895760405162461bcd60e51b81526004016106a5906136e9565b5f858152600760205260409020600101546201000090046001600160a01b031633146119f75760405162461bcd60e51b815260206004820152601760248201527f4e6f74207468652063757272656e742068616e646c657200000000000000000060448201526064016106a5565b60025f86815260076020526040902060010154610100900460ff166003811115611a2357611a2361318c565b14611a675760405162461bcd60e51b815260206004820152601460248201527310985d18da081b9bdd081a5b881d1c985b9cda5d60621b60448201526064016106a5565b5f8581526007602090815260408083206001808201805462010000600160b01b031916620100006001600160a01b038c160217905582518084019093528783528284018790526003909101805491820181558452919092208251600290920201908190611ad4908261375c565b5060208201516001820190611ae9908261375c565b505050836001600160a01b0316857f3d4c1e51e991e881ea130ad20e8ceb50acd92250ac0acde4bc7d82e29e84f5b28585604051611b28929190613846565b60405180910390a35050505050565b5f838152600760205260409020600101546201000090046001600160a01b03163314611b935760405162461bcd60e51b815260206004820152600b60248201526a2737ba103430b7323632b960a91b60448201526064016106a5565b60025f84815260076020526040902060010154610100900460ff166003811115611bbf57611bbf61318c565b14611bfd5760405162461bcd60e51b815260206004820152600e60248201526d139bdd081a5b881d1c985b9cda5d60921b60448201526064016106a5565b5f83815260076020908152604080832081518083019092528582528183018590526003018054600181018255908452919092208251600290920201908190611c45908261375c565b5060208201516001820190611c5a908261375c565b5050507f5386c66b9ad3ab4d97f42fc9a18b9c5b6526c0acda4e9902a147f9df07f184ca83838360405161086a9392919061386a565b5f80335f90815260056020526040902054600160a01b900460ff166002811115611cbc57611cbc61318c565b14611cd95760405162461bcd60e51b81526004016106a5906136c3565b335f90815260056020526040902054600160a81b900460ff16611d0e5760405162461bcd60e51b81526004016106a5906136e9565b5f8083815260076020526040902060010154610100900460ff166003811115611d3957611d3961318c565b14611d7d5760405162461bcd60e51b8152602060048201526014602482015273496e76616c69642062617463682073746174757360601b60448201526064016106a5565b5f8281526007602052604090206001908101805461ff0019166101008302179055506040518281527f0d12a96208f78b6b173d4bc5f7de1d8a9377c4e33639c8ef954056f7d350858790602001611357565b60605f6001600354611de19190613816565b6001600160401b03811115611df857611df8612e59565b604051908082528060200260200182016040528015611e3157816020015b611e1e612cb6565b815260200190600190039081611e165790505b50905060015b60035481101561109e575f81815260076020908152604091829020825160c08101909352805483526001810154909183019060ff166003811115611e7d57611e7d61318c565b6003811115611e8e57611e8e61318c565b81526020016001820160019054906101000a900460ff166003811115611eb657611eb661318c565b6003811115611ec757611ec761318c565b815260018201546201000090046001600160a01b031660208083019190915260028301805460408051828502810185018252828152940193925f9084015b82821015611fe6575f84815260209081902060408051606081019091526003850290910180546001600160a01b031682526001810180549293919291840191611f4d9061363e565b80601f0160208091040260200160405190810160405280929190818152602001828054611f799061363e565b8015611fc45780601f10611f9b57610100808354040283529160200191611fc4565b820191905f5260205f20905b815481529060010190602001808311611fa757829003601f168201915b5050505050815260200160028201548152505081526020019060010190611f05565b50505050815260200160038201805480602002602001604051908101604052809291908181526020015f905b82821015612161578382905f5260205f2090600202016040518060400160405290815f820180546120429061363e565b80601f016020809104026020016040519081016040528092919081815260200182805461206e9061363e565b80156120b95780601f10612090576101008083540402835291602001916120b9565b820191905f5260205f20905b81548152906001019060200180831161209c57829003601f168201915b505050505081526020016001820180546120d29061363e565b80601f01602080910402602001604051908101604052809291908181526020018280546120fe9061363e565b80156121495780601f1061212057610100808354040283529160200191612149565b820191905f5260205f20905b81548152906001019060200180831161212c57829003601f168201915b50505050508152505081526020019060010190612012565b505050915250839050612175600184613816565b8151811061218557612185613697565b6020908102919091010152600101611e37565b6001600160a01b039182165f90815260016020908152604080832093909416825291909152205460ff1690565b60605f60015b60035481101561221c5760015f82815260076020526040902060010154610100900460ff1660038111156122015761220161318c565b036122145781612210816136ab565b9250505b6001016121cb565b505f816001600160401b0381111561223657612236612e59565b60405190808252806020026020018201604052801561226f57816020015b61225c612cb6565b8152602001906001900390816122545790505b5090505f60015b60035481101561064e5760015f82815260076020526040902060010154610100900460ff1660038111156122ac576122ac61318c565b03612605575f81815260076020908152604091829020825160c08101909352805483526001810154909183019060ff1660038111156122ed576122ed61318c565b60038111156122fe576122fe61318c565b81526020016001820160019054906101000a900460ff1660038111156123265761232661318c565b60038111156123375761233761318c565b815260018201546201000090046001600160a01b031660208083019190915260028301805460408051828502810185018252828152940193925f9084015b82821015612456575f84815260209081902060408051606081019091526003850290910180546001600160a01b0316825260018101805492939192918401916123bd9061363e565b80601f01602080910402602001604051908101604052809291908181526020018280546123e99061363e565b80156124345780601f1061240b57610100808354040283529160200191612434565b820191905f5260205f20905b81548152906001019060200180831161241757829003601f168201915b5050505050815260200160028201548152505081526020019060010190612375565b50505050815260200160038201805480602002602001604051908101604052809291908181526020015f905b828210156125d1578382905f5260205f2090600202016040518060400160405290815f820180546124b29061363e565b80601f01602080910402602001604051908101604052809291908181526020018280546124de9061363e565b80156125295780601f1061250057610100808354040283529160200191612529565b820191905f5260205f20905b81548152906001019060200180831161250c57829003601f168201915b505050505081526020016001820180546125429061363e565b80601f016020809104026020016040519081016040528092919081815260200182805461256e9061363e565b80156125b95780601f10612590576101008083540402835291602001916125b9565b820191905f5260205f20905b81548152906001019060200180831161259c57829003601f168201915b50505050508152505081526020019060010190612482565b50505050815250508383815181106125eb576125eb613697565b60200260200101819052508180612601906136ab565b9250505b600101612276565b336001600160a01b038616811480159061262e575061262c8682612198565b155b1561265f5760405163711bec9160e11b81526001600160a01b038083166004830152871660248201526044016106a5565b6106bb86868686866127c0565b6001600160a01b03841661269557604051632bfa23e760e11b81525f60048201526024016106a5565b6001600160a01b0385166126bd57604051626a0d4560e21b81525f60048201526024016106a5565b6126ca858585858561284c565b5050505050565b6001600160a01b0384166126fa57604051632bfa23e760e11b81525f60048201526024016106a5565b604080516001808252602082018690528183019081526060820185905260808201909252906106bb5f8784848761284c565b6001600160a01b0382166127545760405162ced3e160e81b81525f60048201526024016106a5565b6001600160a01b038381165f81815260016020908152604080832094871680845294825291829020805460ff191686151590811790915591519182527f17307eab39ab6107e8899845ad3d59bd9653f200f220920489ca2b5937696c31910160405180910390a3505050565b6001600160a01b0384166127e957604051632bfa23e760e11b81525f60048201526024016106a5565b6001600160a01b03851661281157604051626a0d4560e21b81525f60048201526024016106a5565b60408051600180825260208201869052818301908152606082018590526080820190925290612843878784848761284c565b50505050505050565b6128588585858561289f565b6001600160a01b038416156126ca5782513390600103612891576020848101519084015161288a838989858589612aae565b50506106bb565b6106bb818787878787612bcf565b80518251146128ce5781518151604051635b05999160e01b8152600481019290925260248201526044016106a5565b335f5b83518110156129d0576020818102858101820151908501909101516001600160a01b03881615612982575f828152602081815260408083206001600160a01b038c1684529091529020548181101561295c576040516303dee4c560e01b81526001600160a01b038a1660048201526024810182905260448101839052606481018490526084016106a5565b5f838152602081815260408083206001600160a01b038d16845290915290209082900390555b6001600160a01b038716156129c6575f828152602081815260408083206001600160a01b038b168452909152812080548392906129c0908490613684565b90915550505b50506001016128d1565b508251600103612a505760208301515f906020840151909150856001600160a01b0316876001600160a01b0316846001600160a01b03167fc3d58168c5ae7397731d063d5bbf3d657854427343f4c083240f7aacaa2d0f628585604051612a41929190918252602082015260400190565b60405180910390a450506126ca565b836001600160a01b0316856001600160a01b0316826001600160a01b03167f4a39dc06d4c0dbc64b70af90fd698a233a518aa5d07e595d983b8c0526c8f7fb8686604051612a9f92919061389e565b60405180910390a45050505050565b6001600160a01b0384163b156106bb5760405163f23a6e6160e01b81526001600160a01b0385169063f23a6e6190612af290899089908890889088906004016138c2565b6020604051808303815f875af1925050508015612b2c575060408051601f3d908101601f19168201909252612b2991810190613906565b60015b612b93573d808015612b59576040519150601f19603f3d011682016040523d82523d5f602084013e612b5e565b606091505b5080515f03612b8b57604051632bfa23e760e11b81526001600160a01b03861660048201526024016106a5565b805181602001fd5b6001600160e01b0319811663f23a6e6160e01b1461284357604051632bfa23e760e11b81526001600160a01b03861660048201526024016106a5565b6001600160a01b0384163b156106bb5760405163bc197c8160e01b81526001600160a01b0385169063bc197c8190612c139089908990889088908890600401613921565b6020604051808303815f875af1925050508015612c4d575060408051601f3d908101601f19168201909252612c4a91810190613906565b60015b612c7a573d808015612b59576040519150601f19603f3d011682016040523d82523d5f602084013e612b5e565b6001600160e01b0319811663bc197c8160e01b1461284357604051632bfa23e760e11b81526001600160a01b03861660048201526024016106a5565b6040805160c081019091525f808252602082019081526020015f81525f60208201526060604082018190529081015290565b80356001600160a01b0381168114612cfe575f80fd5b919050565b5f8060408385031215612d14575f80fd5b612d1d83612ce8565b946020939093013593505050565b6001600160e01b031981168114612d40575f80fd5b50565b5f60208284031215612d53575f80fd5b8135612d5e81612d2b565b9392505050565b5f60208284031215612d75575f80fd5b5035919050565b5f81518084528060208401602086015e5f602082860101526020601f19601f83011685010191505092915050565b602081525f612d5e6020830184612d7c565b60018060a01b0381511682525f602082015160606020850152612de26060850182612d7c565b604093840151949093019390935250919050565b5f602082016020835280845180835260408501915060408160051b8601019250602086015f5b82811015612e4d57603f19878603018452612e38858351612dbc565b94506020938401939190910190600101612e1c565b50929695505050505050565b634e487b7160e01b5f52604160045260245ffd5b604051601f8201601f191681016001600160401b0381118282101715612e9557612e95612e59565b604052919050565b5f6001600160401b03821115612eb557612eb5612e59565b5060051b60200190565b5f82601f830112612ece575f80fd5b8135612ee1612edc82612e9d565b612e6d565b8082825260208201915060208360051b860101925085831115612f02575f80fd5b602085015b83811015612f1f578035835260209283019201612f07565b5095945050505050565b5f82601f830112612f38575f80fd5b8135602083015f806001600160401b03841115612f5757612f57612e59565b50601f8301601f1916602001612f6c81612e6d565b915050828152858383011115612f80575f80fd5b828260208301375f92810160200192909252509392505050565b5f805f805f60a08688031215612fae575f80fd5b612fb786612ce8565b9450612fc560208701612ce8565b935060408601356001600160401b03811115612fdf575f80fd5b612feb88828901612ebf565b93505060608601356001600160401b03811115613006575f80fd5b61301288828901612ebf565b92505060808601356001600160401b0381111561302d575f80fd5b61303988828901612f29565b9150509295509295909350565b5f8060408385031215613057575f80fd5b8235915060208301356001600160401b03811115613073575f80fd5b61307f85828601612f29565b9150509250929050565b5f806040838503121561309a575f80fd5b82356001600160401b038111156130af575f80fd5b8301601f810185136130bf575f80fd5b80356130cd612edc82612e9d565b8082825260208201915060208360051b8501019250878311156130ee575f80fd5b6020840193505b828410156131175761310684612ce8565b8252602093840193909101906130f5565b945050505060208301356001600160401b03811115613134575f80fd5b61307f85828601612ebf565b5f8151808452602084019350602083015f5b82811015613170578151865260209586019590910190600101613152565b5093949350505050565b602081525f612d5e6020830184613140565b634e487b7160e01b5f52602160045260245ffd5b60048110612d4057612d4061318c565b5f82825180855260208501945060208160051b830101602085015f5b8381101561322557601f1985840301885281518051604085526131f26040860182612d7c565b905060208201519150848103602086015261320d8183612d7c565b60209a8b019a909550939093019250506001016131cc565b50909695505050505050565b5f60c08301825184526020830151613248816131a0565b6020850152604083015161325b816131a0565b8060408601525060018060a01b036060840151166060850152608083015160c0608086015281815180845260e08701915060e08160051b88010193506020830192505f5b818110156132d05760df198886030183526132bb858551612dbc565b9450602093840193929092019160010161329f565b5050505060a083015184820360a08601526132eb82826131b0565b95945050505050565b602081525f612d5e6020830184613231565b80358015158114612cfe575f80fd5b5f805f60608486031215613327575f80fd5b61333084612ce8565b9250602084013560038110613343575f80fd5b915061335160408501613306565b90509250925092565b5f806040838503121561336b575f80fd5b50508035926020909101359150565b602081525f612d5e6020830184612dbc565b602080825282518282018190525f918401906040840190835b818110156133fc57835180516001600160a01b031684526020810151600381106133d1576133d161318c565b80602086015250604081015115156040850152506060830192506020840193506001810190506133a5565b509095945050505050565b5f8060408385031215613418575f80fd5b82356001600160401b0381111561342d575f80fd5b61343985828601612f29565b92505060208301356001600160401b03811115613073575f80fd5b5f602082016020835280845180835260408501915060408160051b8601019250602086015f5b82811015612e4d57603f19878603018452613496858351613231565b9450602093840193919091019060010161347a565b5f80604083850312156134bc575f80fd5b6134c583612ce8565b91506134d360208401613306565b90509250929050565b5f805f80608085870312156134ef575f80fd5b843593506134ff60208601612ce8565b925060408501356001600160401b03811115613519575f80fd5b61352587828801612f29565b92505060608501356001600160401b03811115613540575f80fd5b61354c87828801612f29565b91505092959194509250565b5f805f6060848603121561356a575f80fd5b8335925060208401356001600160401b03811115613586575f80fd5b61359286828701612f29565b92505060408401356001600160401b038111156135ad575f80fd5b6135b986828701612f29565b9150509250925092565b5f80604083850312156135d4575f80fd5b6135dd83612ce8565b91506134d360208401612ce8565b5f805f805f60a086880312156135ff575f80fd5b61360886612ce8565b945061361660208701612ce8565b9350604086013592506060860135915060808601356001600160401b0381111561302d575f80fd5b600181811c9082168061365257607f821691505b60208210810361109e57634e487b7160e01b5f52602260045260245ffd5b634e487b7160e01b5f52601160045260245ffd5b8082018082111561036a5761036a613670565b634e487b7160e01b5f52603260045260245ffd5b5f600182016136bc576136bc613670565b5060010190565b6020808252600c908201526b155b985d5d1a1bdc9a5e995960a21b604082015260600190565b60208082526010908201526f4163636f756e7420696e61637469766560801b604082015260600190565b601f82111561375757805f5260205f20601f840160051c810160208510156137385750805b601f840160051c820191505b818110156126ca575f8155600101613744565b505050565b81516001600160401b0381111561377557613775612e59565b61378981613783845461363e565b84613713565b6020601f8211600181146137bb575f83156137a45750848201515b5f19600385901b1c1916600184901b1784556126ca565b5f84815260208120601f198516915b828110156137ea57878501518255602094850194600190920191016137ca565b508482101561380757868401515f19600387901b60f8161c191681555b50505050600190811b01905550565b8181038181111561036a5761036a613670565b82815260408101613839836131a0565b8260208301529392505050565b604081525f6138586040830185612d7c565b82810360208401526132eb8185612d7c565b838152606060208201525f6138826060830185612d7c565b82810360408401526138948185612d7c565b9695505050505050565b604081525f6138b06040830185613140565b82810360208401526132eb8185613140565b6001600160a01b03868116825285166020820152604081018490526060810183905260a0608082018190525f906138fb90830184612d7c565b979650505050505050565b5f60208284031215613916575f80fd5b8151612d5e81612d2b565b6001600160a01b0386811682528516602082015260a0604082018190525f9061394c90830186613140565b828103606084015261395e8186613140565b905082810360808401526139728185612d7c565b9897505050505050505056fea26469706673582212209b7ec2c270de90c8d2d8edc33e4ede947951f30d026cc5377ec755f3b4a6527564736f6c634300081a003368747470733a2f2f746f6b656e2d63646e2d646f6d61696e2f7b69647d2e6a736f6e","linkReferences":{}},"methodIdentifiers":{"addDonation(uint256,string)":"4d27dc23","addMember(address,uint8,bool)":"67e2c87f","balanceOf(address,uint256)":"00fdd58e","balanceOfBatch(address[],uint256[])":"4e1273f4","claimBatchForDelivery(uint256)":"a1cc2939","claimBatchForTransporter(uint256)":"98f681c8","closeBatch(uint256)":"d2c411d3","createBatch(string,string)":"92b8f021","getAllBatches()":"e80e076b","getAllBatchesWithStatusClosedReadyForTransporter()":"e9cf8c06","getAllBatchesWithStatusInTransitReadyForDelivery()":"9b340d01","getAllDonationsInAllBatches()":"17b42c77","getAllListOfMembers()":"7ef2a569","getBatch(uint256)":"5ac44282","getDonation(uint256,uint256)":"76ff7bf4","isApprovedForAll(address,address)":"e985e9c5","safeBatchTransferFrom(address,address,uint256[],uint256[],bytes)":"2eb2c2d6","safeTransferFrom(address,address,uint256,uint256,bytes)":"f242432a","setApprovalForAll(address,bool)":"a22cb465","supportsInterface(bytes4)":"01ffc9a7","transferBatch(uint256,address,string,string)":"b3641cfd","updateLocation(uint256,string,string)":"b7472885","uri(uint256)":"0e89341c"},"id":42}