{"abi":[{"type":"constructor","inputs":[],"stateMutability":"nonpayable"},{"type":"function","name":"addDonation","inputs":[{"name":"batchId","type":"uint256","internalType":"uint256"},{"name":"productDescription","type":"string","internalType":"string"}],"outputs":[],"stateMutability":"nonpayable"},{"type":"function","name":"addMember","inputs":[{"name":"account","type":"address","internalType":"address"},{"name":"role","type":"uint8","internalType":"enum IDataTypes.Role"},{"name":"isActive","type":"bool","internalType":"bool"}],"outputs":[],"stateMutability":"nonpayable"},{"type":"function","name":"balanceOf","inputs":[{"name":"account","type":"address","internalType":"address"},{"name":"id","type":"uint256","internalType":"uint256"}],"outputs":[{"name":"","type":"uint256","internalType":"uint256"}],"stateMutability":"view"},{"type":"function","name":"balanceOfBatch","inputs":[{"name":"accounts","type":"address[]","internalType":"address[]"},{"name":"ids","type":"uint256[]","internalType":"uint256[]"}],"outputs":[{"name":"","type":"uint256[]","internalType":"uint256[]"}],"stateMutability":"view"},{"type":"function","name":"claimBatchForDelivery","inputs":[{"name":"batchId","type":"uint256","internalType":"uint256"}],"outputs":[],"stateMutability":"nonpayable"},{"type":"function","name":"claimBatchForTransporter","inputs":[{"name":"batchId","type":"uint256","internalType":"uint256"}],"outputs":[],"stateMutability":"nonpayable"},{"type":"function","name":"closeBatch","inputs":[{"name":"batchId","type":"uint256","internalType":"uint256"}],"outputs":[],"stateMutability":"nonpayable"},{"type":"function","name":"createBatch","inputs":[{"name":"latitude","type":"string","internalType":"string"},{"name":"longitude","type":"string","internalType":"string"}],"outputs":[],"stateMutability":"nonpayable"},{"type":"function","name":"getAllBatches","inputs":[],"outputs":[{"name":"","type":"tuple[]","internalType":"struct IDataTypes.Batch[]","components":[{"name":"id","type":"uint256","internalType":"uint256"},{"name":"destinationZone","type":"uint8","internalType":"enum IDataTypes.DistributionZones"},{"name":"status","type":"uint8","internalType":"enum IDataTypes.BatchStatus"},{"name":"currentHandler","type":"address","internalType":"address"},{"name":"donations","type":"tuple[]","internalType":"struct IDataTypes.Donation[]","components":[{"name":"donor","type":"address","internalType":"address"},{"name":"description","type":"string","internalType":"string"},{"name":"timestamp","type":"uint256","internalType":"uint256"}]},{"name":"locations","type":"tuple[]","internalType":"struct IDataTypes.Location[]","components":[{"name":"latitude","type":"string","internalType":"string"},{"name":"longitude","type":"string","internalType":"string"}]}]}],"stateMutability":"view"},{"type":"function","name":"getAllBatchesWithStatusClosedReadyForTransporter","inputs":[],"outputs":[{"name":"","type":"tuple[]","internalType":"struct IDataTypes.Batch[]","components":[{"name":"id","type":"uint256","internalType":"uint256"},{"name":"destinationZone","type":"uint8","internalType":"enum IDataTypes.DistributionZones"},{"name":"status","type":"uint8","internalType":"enum IDataTypes.BatchStatus"},{"name":"currentHandler","type":"address","internalType":"address"},{"name":"donations","type":"tuple[]","internalType":"struct IDataTypes.Donation[]","components":[{"name":"donor","type":"address","internalType":"address"},{"name":"description","type":"string","internalType":"string"},{"name":"timestamp","type":"uint256","internalType":"uint256"}]},{"name":"locations","type":"tuple[]","internalType":"struct IDataTypes.Location[]","components":[{"name":"latitude","type":"string","internalType":"string"},{"name":"longitude","type":"string","internalType":"string"}]}]}],"stateMutability":"view"},{"type":"function","name":"getAllBatchesWithStatusInTransitReadyForDelivery","inputs":[],"outputs":[{"name":"","type":"tuple[]","internalType":"struct IDataTypes.Batch[]","components":[{"name":"id","type":"uint256","internalType":"uint256"},{"name":"destinationZone","type":"uint8","internalType":"enum IDataTypes.DistributionZones"},{"name":"status","type":"uint8","internalType":"enum IDataTypes.BatchStatus"},{"name":"currentHandler","type":"address","internalType":"address"},{"name":"donations","type":"tuple[]","internalType":"struct IDataTypes.Donation[]","components":[{"name":"donor","type":"address","internalType":"address"},{"name":"description","type":"string","internalType":"string"},{"name":"timestamp","type":"uint256","internalType":"uint256"}]},{"name":"locations","type":"tuple[]","internalType":"struct IDataTypes.Location[]","components":[{"name":"latitude","type":"string","internalType":"string"},{"name":"longitude","type":"string","internalType":"string"}]}]}],"stateMutability":"view"},{"type":"function","name":"getAllDonationsInAllBatches","inputs":[],"outputs":[{"name":"","type":"tuple[]","internalType":"struct IDataTypes.Donation[]","components":[{"name":"donor","type":"address","internalType":"address"},{"name":"description","type":"string","internalType":"string"},{"name":"timestamp","type":"uint256","internalType":"uint256"}]}],"stateMutability":"view"},{"type":"function","name":"getAllListOfMembers","inputs":[],"outputs":[{"name":"","type":"tuple[]","internalType":"struct IDataTypes.Members[]","components":[{"name":"account","type":"address","internalType":"address"},{"name":"role","type":"uint8","internalType":"enum IDataTypes.Role"},{"name":"isActive","type":"bool","internalType":"bool"}]}],"stateMutability":"view"},{"type":"function","name":"getBatch","inputs":[{"name":"batchId","type":"uint256","internalType":"uint256"}],"outputs":[{"name":"","type":"tuple","internalType":"struct IDataTypes.Batch","components":[{"name":"id","type":"uint256","internalType":"uint256"},{"name":"destinationZone","type":"uint8","internalType":"enum IDataTypes.DistributionZones"},{"name":"status","type":"uint8","internalType":"enum IDataTypes.BatchStatus"},{"name":"currentHandler","type":"address","internalType":"address"},{"name":"donations","type":"tuple[]","internalType":"struct IDataTypes.Donation[]","components":[{"name":"donor","type":"address","internalType":"address"},{"name":"description","type":"string","internalType":"string"},{"name":"timestamp","type":"uint256","internalType":"uint256"}]},{"name":"locations","type":"tuple[]","internalType":"struct IDataTypes.Location[]","components":[{"name":"latitude","type":"string","internalType":"string"},{"name":"longitude","type":"string","internalType":"string"}]}]}],"stateMutability":"view"},{"type":"function","name":"getDonation","inputs":[{"name":"batchId","type":"uint256","internalType":"uint256"},{"name":"index","type":"uint256","internalType":"uint256"}],"outputs":[{"name":"","type":"tuple","internalType":"struct IDataTypes.Donation","components":[{"name":"donor","type":"address","internalType":"address"},{"name":"description","type":"string","internalType":"string"},{"name":"timestamp","type":"uint256","internalType":"uint256"}]}],"stateMutability":"view"},{"type":"function","name":"isApprovedForAll","inputs":[{"name":"account","type":"address","internalType":"address"},{"name":"operator","type":"address","internalType":"address"}],"outputs":[{"name":"","type":"bool","internalType":"bool"}],"stateMutability":"view"},{"type":"function","name":"safeBatchTransferFrom","inputs":[{"name":"from","type":"address","internalType":"address"},{"name":"to","type":"address","internalType":"address"},{"name":"ids","type":"uint256[]","internalType":"uint256[]"},{"name":"values","type":"uint256[]","internalType":"uint256[]"},{"name":"data","type":"bytes","internalType":"bytes"}],"outputs":[],"stateMutability":"nonpayable"},{"type":"function","name":"safeTransferFrom","inputs":[{"name":"from","type":"address","internalType":"address"},{"name":"to","type":"address","internalType":"address"},{"name":"id","type":"uint256","internalType":"uint256"},{"name":"value","type":"uint256","internalType":"uint256"},{"name":"data","type":"bytes","internalType":"bytes"}],"outputs":[],"stateMutability":"nonpayable"},{"type":"function","name":"setApprovalForAll","inputs":[{"name":"operator","type":"address","internalType":"address"},{"name":"approved","type":"bool","internalType":"bool"}],"outputs":[],"stateMutability":"nonpayable"},{"type":"function","name":"supportsInterface","inputs":[{"name":"interfaceId","type":"bytes4","internalType":"bytes4"}],"outputs":[{"name":"","type":"bool","internalType":"bool"}],"stateMutability":"view"},{"type":"function","name":"transferBatch","inputs":[{"name":"batchId","type":"uint256","internalType":"uint256"},{"name":"newHandler","type":"address","internalType":"address"},{"name":"latitude","type":"string","internalType":"string"},{"name":"longitude","type":"string","internalType":"string"}],"outputs":[],"stateMutability":"nonpayable"},{"type":"function","name":"updateLocation","inputs":[{"name":"batchId","type":"uint256","internalType":"uint256"},{"name":"latitude","type":"string","internalType":"string"},{"name":"longitude","type":"string","internalType":"string"}],"outputs":[],"stateMutability":"nonpayable"},{"type":"function","name":"uri","inputs":[{"name":"","type":"uint256","internalType":"uint256"}],"outputs":[{"name":"","type":"string","internalType":"string"}],"stateMutability":"view"},{"type":"event","name":"ApprovalForAll","inputs":[{"name":"account","type":"address","indexed":true,"internalType":"address"},{"name":"operator","type":"address","indexed":true,"internalType":"address"},{"name":"approved","type":"bool","indexed":false,"internalType":"bool"}],"anonymous":false},{"type":"event","name":"BatchClaimed","inputs":[{"name":"batchId","type":"uint256","indexed":false,"internalType":"uint256"},{"name":"status","type":"uint8","indexed":false,"internalType":"enum IDataTypes.BatchStatus"}],"anonymous":false},{"type":"event","name":"BatchClosed","inputs":[{"name":"batchId","type":"uint256","indexed":false,"internalType":"uint256"}],"anonymous":false},{"type":"event","name":"BatchCreated","inputs":[{"name":"batchId","type":"uint256","indexed":false,"internalType":"uint256"},{"name":"currentHandler","type":"address","indexed":false,"internalType":"address"}],"anonymous":false},{"type":"event","name":"BatchTransferred","inputs":[{"name":"batchId","type":"uint256","indexed":true,"internalType":"uint256"},{"name":"newHandler","type":"address","indexed":true,"internalType":"address"},{"name":"latitude","type":"string","indexed":false,"internalType":"string"},{"name":"longitude","type":"string","indexed":false,"internalType":"string"}],"anonymous":false},{"type":"event","name":"DistributionZoneUpdated","inputs":[{"name":"batchId","type":"uint256","indexed":false,"internalType":"uint256"},{"name":"destinationZone","type":"uint8","indexed":false,"internalType":"enum IDataTypes.DistributionZones"}],"anonymous":false},{"type":"event","name":"LocationUpdated","inputs":[{"name":"batchId","type":"uint256","indexed":false,"internalType":"uint256"},{"name":"latitude","type":"string","indexed":false,"internalType":"string"},{"name":"longitude","type":"string","indexed":false,"internalType":"string"}],"anonymous":false},{"type":"event","name":"ProductAdded","inputs":[{"name":"batchId","type":"uint256","indexed":false,"internalType":"uint256"},{"name":"productIndex","type":"uint256","indexed":false,"internalType":"uint256"},{"name":"donor","type":"address","indexed":false,"internalType":"address"}],"anonymous":false},{"type":"event","name":"TransferBatch","inputs":[{"name":"operator","type":"address","indexed":true,"internalType":"address"},{"name":"from","type":"address","indexed":true,"internalType":"address"},{"name":"to","type":"address","indexed":true,"internalType":"address"},{"name":"ids","type":"uint256[]","indexed":false,"internalType":"uint256[]"},{"name":"values","type":"uint256[]","indexed":false,"internalType":"uint256[]"}],"anonymous":false},{"type":"event","name":"TransferSingle","inputs":[{"name":"operator","type":"address","indexed":true,"internalType":"address"},{"name":"from","type":"address","indexed":true,"internalType":"address"},{"name":"to","type":"address","indexed":true,"internalType":"address"},{"name":"id","type":"uint256","indexed":false,"internalType":"uint256"},{"name":"value","type":"uint256","indexed":false,"internalType":"uint256"}],"anonymous":false},{"type":"event","name":"URI","inputs":[{"name":"value","type":"string","indexed":false,"internalType":"string"},{"name":"id","type":"uint256","indexed":true,"internalType":"uint256"}],"anonymous":false},{"type":"error","name":"ERC1155InsufficientBalance","inputs":[{"name":"sender","type":"address","internalType":"address"},{"name":"balance","type":"uint256","internalType":"uint256"},{"name":"needed","type":"uint256","internalType":"uint256"},{"name":"tokenId","type":"uint256","internalType":"uint256"}]},{"type":"error","name":"ERC1155InvalidApprover","inputs":[{"name":"approver","type":"address","internalType":"address"}]},{"type":"error","name":"ERC1155InvalidArrayLength","inputs":[{"name":"idsLength","type":"uint256","internalType":"uint256"},{"name":"valuesLength","type":"uint256","internalType":"uint256"}]},{"type":"error","name":"ERC1155InvalidOperator","inputs":[{"name":"operator","type":"address","internalType":"address"}]},{"type":"error","name":"ERC1155InvalidReceiver","inputs":[{"name":"receiver","type":"address","internalType":"address"}]},{"type":"error","name":"ERC1155InvalidSender","inputs":[{"name":"sender","type":"address","internalType":"address"}]},{"type":"error","name":"ERC1155MissingApprovalForAll","inputs":[{"name":"operator","type":"address","internalType":"address"},{"name":"owner","type":"address","internalType":"address"}]}],"bytecode":{"object":"0x60806040526001600355600060045534801561001a57600080fd5b50604051806060016040528060228152602001613e0c6022913961003d8161017f565b506040805160608101909152338152602081016000815260016020918201523360009081526005825260409020825181546001600160a01b03919091166001600160a01b031982168117835592840151919283916001600160a81b03191617600160a01b8360028111156100b3576100b361018f565b02179055506040918201518154901515600160a81b0260ff60a81b199091161790553360009081526005602090815282822060045483526006909152919020815481546001600160a01b031981166001600160a01b039290921691821783558354600160a01b9081900460ff169284926001600160a81b03191617908360028111156101415761014161018f565b02179055509054815460ff60a81b1916600160a81b9182900460ff16151590910217905560048054906000610175836101a5565b9190505550610329565b600261018b828261026b565b5050565b634e487b7160e01b600052602160045260246000fd5b6000600182016101c557634e487b7160e01b600052601160045260246000fd5b5060010190565b634e487b7160e01b600052604160045260246000fd5b600181811c908216806101f657607f821691505b60208210810361021657634e487b7160e01b600052602260045260246000fd5b50919050565b601f82111561026657806000526020600020601f840160051c810160208510156102435750805b601f840160051c820191505b81811015610263576000815560010161024f565b50505b505050565b81516001600160401b03811115610284576102846101cc565b6102988161029284546101e2565b8461021c565b6020601f8211600181146102cc57600083156102b45750848201515b600019600385901b1c1916600184901b178455610263565b600084815260208120601f198516915b828110156102fc57878501518255602094850194600190920191016102dc565b508482101561031a5786840151600019600387901b60f8161c191681555b50505050600190811b01905550565b613ad4806103386000396000f3fe608060405234801561001057600080fd5b506004361061014c5760003560e01c806392b8f021116100c3578063b74728851161007c578063b7472885146102f3578063d2c411d314610306578063e80e076b14610319578063e985e9c514610321578063e9cf8c0614610334578063f242432a1461033c57600080fd5b806392b8f0211461027f57806398f681c8146102925780639b340d01146102a5578063a1cc2939146102ba578063a22cb465146102cd578063b3641cfd146102e057600080fd5b80634d27dc23116101155780634d27dc23146101e45780634e1273f4146101f75780635ac442821461021757806367e2c87f1461023757806376ff7bf41461024a5780637ef2a5691461026a57600080fd5b8062fdd58e1461015157806301ffc9a7146101775780630e89341c1461019a57806317b42c77146101ba5780632eb2c2d6146101cf575b600080fd5b61016461015f366004612da4565b61034f565b6040519081526020015b60405180910390f35b61018a610185366004612de7565b610377565b604051901515815260200161016e565b6101ad6101a8366004612e0b565b6103c7565b60405161016e9190612e6a565b6101c261045b565b60405161016e9190612eb8565b6101e26101dd366004613069565b61066d565b005b6101e26101f236600461311c565b6106d9565b61020a610205366004613162565b610892565b60405161016e919061325b565b61022a610225366004612e0b565b61095e565b60405161016e91906133dc565b6101e26102453660046133ff565b610ca1565b61025d610258366004613448565b610e87565b60405161016e919061346a565b610272610fab565b60405161016e919061347d565b6101e261028d3660046134f9565b6110e0565b6101e26102a0366004612e0b565b61124d565b6102ad6113a9565b60405161016e919061354a565b6101e26102c8366004612e0b565b611803565b6101e26102db3660046135a3565b611958565b6101e26102ee3660046135d6565b611967565b6101e2610301366004613657565b611b99565b6101e2610314366004612e0b565b611cf5565b6102ad611e39565b61018a61032f3660046136c7565b612210565b6102ad61223e565b6101e261034a3660046136f1565b612698565b6000818152602081815260408083206001600160a01b03861684529091529020545b92915050565b60006001600160e01b03198216636cdb3d1360e11b14806103a857506001600160e01b031982166303a24d0760e21b145b8061037157506301ffc9a760e01b6001600160e01b0319831614610371565b6060600280546103d690613749565b80601f016020809104026020016040519081016040528092919081815260200182805461040290613749565b801561044f5780601f106104245761010080835404028352916020019161044f565b820191906000526020600020905b81548152906001019060200180831161043257829003601f168201915b50505050509050919050565b6060600060015b600354811015610492576000818152600760205260409020600201546104889083613793565b9150600101610462565b506000816001600160401b038111156104ad576104ad612f1d565b60405190808252806020026020018201604052801561050b57816020015b6104f8604051806060016040528060006001600160a01b0316815260200160608152602001600081525090565b8152602001906001900390816104cb5790505b509050600060015b6003548110156106645760005b60008281526007602052604090206002015481101561065b57600082815260076020526040902060020180548290811061055c5761055c6137a6565b6000918252602091829020604080516060810190915260039092020180546001600160a01b03168252600181018054929391929184019161059c90613749565b80601f01602080910402602001604051908101604052809291908181526020018280546105c890613749565b80156106155780601f106105ea57610100808354040283529160200191610615565b820191906000526020600020905b8154815290600101906020018083116105f857829003601f168201915b5050505050815260200160028201548152505084848151811061063a5761063a6137a6565b60200260200101819052508280610650906137bc565b935050600101610520565b50600101610513565b50909392505050565b336001600160a01b038616811480159061068e575061068c8682612210565b155b156106c45760405163711bec9160e11b81526001600160a01b038083166004830152871660248201526044015b60405180910390fd5b6106d186868686866126f7565b505050505050565b60028033600090815260056020526040902054600160a01b900460ff1660028111156107075761070761326e565b146107245760405162461bcd60e51b81526004016106bb906137d5565b33600090815260056020526040902054600160a81b900460ff1661075a5760405162461bcd60e51b81526004016106bb906137fb565b6000838152600760205260409020600201546005116107ab5760405162461bcd60e51b815260206004820152600d60248201526c10985d18da081a5cc8199d5b1b609a1b60448201526064016106bb565b600083815260076020908152604080832081516060810183523381528084018781524293820193909352600290910180546001808201835591865293909420815160039094020180546001600160a01b0319166001600160a01b03909416939093178355905190928201906108209082613871565b50604091820151600291820155600085815260076020529190912001547f570b1ff121506a2a203cd2fa6dfe1d3480f6de0b4bd49aaf46b8847c0083a86490849061086d9060019061392f565b60408051928352602083019190915233908201526060015b60405180910390a1505050565b606081518351146108c35781518351604051635b05999160e01b8152600481019290925260248201526044016106bb565b600083516001600160401b038111156108de576108de612f1d565b604051908082528060200260200182016040528015610907578160200160208202803683370190505b50905060005b8451811015610956576020808202860101516109319060208084028701015161034f565b828281518110610943576109436137a6565b602090810291909101015260010161090d565b509392505050565b610966612d53565b600082815260076020908152604091829020825160c08101909352805483526001810154909183019060ff1660038111156109a3576109a361326e565b60038111156109b4576109b461326e565b81526020016001820160019054906101000a900460ff1660038111156109dc576109dc61326e565b60038111156109ed576109ed61326e565b815260018201546201000090046001600160a01b0316602080830191909152600283018054604080518285028101850182528281529401939260009084015b82821015610b1057600084815260209081902060408051606081019091526003850290910180546001600160a01b031682526001810180549293919291840191610a7590613749565b80601f0160208091040260200160405190810160405280929190818152602001828054610aa190613749565b8015610aee5780601f10610ac357610100808354040283529160200191610aee565b820191906000526020600020905b815481529060010190602001808311610ad157829003601f168201915b5050505050815260200160028201548152505081526020019060010190610a2c565b50505050815260200160038201805480602002602001604051908101604052809291908181526020016000905b82821015610c935783829060005260206000209060020201604051806040016040529081600082018054610b7090613749565b80601f0160208091040260200160405190810160405280929190818152602001828054610b9c90613749565b8015610be95780601f10610bbe57610100808354040283529160200191610be9565b820191906000526020600020905b815481529060010190602001808311610bcc57829003601f168201915b50505050508152602001600182018054610c0290613749565b80601f0160208091040260200160405190810160405280929190818152602001828054610c2e90613749565b8015610c7b5780601f10610c5057610100808354040283529160200191610c7b565b820191906000526020600020905b815481529060010190602001808311610c5e57829003601f168201915b50505050508152505081526020019060010190610b3d565b505050915250909392505050565b60008033600090815260056020526040902054600160a01b900460ff166002811115610ccf57610ccf61326e565b14610cec5760405162461bcd60e51b81526004016106bb906137d5565b33600090815260056020526040902054600160a81b900460ff16610d225760405162461bcd60e51b81526004016106bb906137fb565b6040518060600160405280856001600160a01b03168152602001846002811115610d4e57610d4e61326e565b81528315156020918201526001600160a01b03808716600090815260058352604090208351815492166001600160a01b0319831681178255928401519092909183916001600160a81b031990911617600160a01b836002811115610db457610db461326e565b0217905550604091820151815460ff60a81b1916600160a81b911515919091021790556001600160a01b03858116600090815260056020908152838220600454835260069091529290208254815492166001600160a01b03198316811782558354919260ff600160a01b93849004169284926001600160a81b031990921690911790836002811115610e4857610e4861326e565b02179055509054815460ff60a81b1916600160a81b9182900460ff16151590910217905560048054906000610e7c836137bc565b919050555050505050565b610eb4604051806060016040528060006001600160a01b0316815260200160608152602001600081525090565b6000838152600760205260409020600201805483908110610ed757610ed76137a6565b6000918252602091829020604080516060810190915260039092020180546001600160a01b031682526001810180549293919291840191610f1790613749565b80601f0160208091040260200160405190810160405280929190818152602001828054610f4390613749565b8015610f905780601f10610f6557610100808354040283529160200191610f90565b820191906000526020600020905b815481529060010190602001808311610f7357829003601f168201915b50505050508152602001600282015481525050905092915050565b606060006004546001600160401b03811115610fc957610fc9612f1d565b60405190808252806020026020018201604052801561101457816020015b6040805160608101825260008082526020808301829052928201528252600019909201910181610fe75790505b50905060005b6004548110156110da57600081815260066020526040902054600160a81b900460ff16156110d25760008181526006602090815260409182902082516060810190935280546001600160a01b03811684529091830190600160a01b900460ff16600281111561108b5761108b61326e565b600281111561109c5761109c61326e565b81529054600160a81b900460ff16151560209091015282518390839081106110c6576110c66137a6565b60200260200101819052505b60010161101a565b50919050565b60008033600090815260056020526040902054600160a01b900460ff16600281111561110e5761110e61326e565b1461112b5760405162461bcd60e51b81526004016106bb906137d5565b33600090815260056020526040902054600160a81b900460ff166111615760405162461bcd60e51b81526004016106bb906137fb565b61117f3360035460016040518060200160405280600081525061275e565b60038054600081815260076020908152604080832093845560018085018054610100600160b01b031916336201000002179055815180830190925288825281830188905294840180549586018155835291208151929391926002909202019081906111ea9082613871565b50602082015160018201906111ff9082613871565b5050600354604080519182523360208301527f03b090a5f073126ba1311454936e50b13b4eb5a69549338b4886ff9a0c1bfaed92500160405180910390a160038054906000610e7c836137bc565b60018033600090815260056020526040902054600160a01b900460ff16600281111561127b5761127b61326e565b146112985760405162461bcd60e51b81526004016106bb906137d5565b33600090815260056020526040902054600160a81b900460ff166112ce5760405162461bcd60e51b81526004016106bb906137fb565b6001600083815260076020526040902060010154610100900460ff1660038111156112fb576112fb61326e565b1461133a5760405162461bcd60e51b815260206004820152600f60248201526e4261746368206e6f7420726561647960881b60448201526064016106bb565b600082815260076020526040908190206001018054610100600160b01b03191633620100000261ff00191617610200179055517fc73ef165ea3d5a0161b64208f0ce43072ee61627d652c5b824a795315419503f9061139d908490600290613942565b60405180910390a15050565b6060600060015b600354811015611402576002600082815260076020526040902060010154610100900460ff1660038111156113e7576113e761326e565b036113fa57816113f6816137bc565b9250505b6001016113b0565b506000816001600160401b0381111561141d5761141d612f1d565b60405190808252806020026020018201604052801561145657816020015b611443612d53565b81526020019060019003908161143b5790505b509050600060015b600354811015610664576002600082815260076020526040902060010154610100900460ff1660038111156114955761149561326e565b036117fb57600081815260076020908152604091829020825160c08101909352805483526001810154909183019060ff1660038111156114d7576114d761326e565b60038111156114e8576114e861326e565b81526020016001820160019054906101000a900460ff1660038111156115105761151061326e565b60038111156115215761152161326e565b815260018201546201000090046001600160a01b0316602080830191909152600283018054604080518285028101850182528281529401939260009084015b8282101561164457600084815260209081902060408051606081019091526003850290910180546001600160a01b0316825260018101805492939192918401916115a990613749565b80601f01602080910402602001604051908101604052809291908181526020018280546115d590613749565b80156116225780601f106115f757610100808354040283529160200191611622565b820191906000526020600020905b81548152906001019060200180831161160557829003601f168201915b5050505050815260200160028201548152505081526020019060010190611560565b50505050815260200160038201805480602002602001604051908101604052809291908181526020016000905b828210156117c757838290600052602060002090600202016040518060400160405290816000820180546116a490613749565b80601f01602080910402602001604051908101604052809291908181526020018280546116d090613749565b801561171d5780601f106116f25761010080835404028352916020019161171d565b820191906000526020600020905b81548152906001019060200180831161170057829003601f168201915b5050505050815260200160018201805461173690613749565b80601f016020809104026020016040519081016040528092919081815260200182805461176290613749565b80156117af5780601f10611784576101008083540402835291602001916117af565b820191906000526020600020905b81548152906001019060200180831161179257829003601f168201915b50505050508152505081526020019060010190611671565b50505050815250508383815181106117e1576117e16137a6565b602002602001018190525081806117f7906137bc565b9250505b60010161145e565b60008033600090815260056020526040902054600160a01b900460ff1660028111156118315761183161326e565b1461184e5760405162461bcd60e51b81526004016106bb906137d5565b33600090815260056020526040902054600160a81b900460ff166118845760405162461bcd60e51b81526004016106bb906137fb565b6002600083815260076020526040902060010154610100900460ff1660038111156118b1576118b161326e565b146118f55760405162461bcd60e51b815260206004820152601460248201527310985d18da081b9bdd081a5b881d1c985b9cda5d60621b60448201526064016106bb565b600082815260076020526040908190206001018054610100600160b01b03191633620100000261ff00191617610300179055517fc73ef165ea3d5a0161b64208f0ce43072ee61627d652c5b824a795315419503f9061139d908490600390613942565b6119633383836127bb565b5050565b60018033600090815260056020526040902054600160a01b900460ff1660028111156119955761199561326e565b146119b25760405162461bcd60e51b81526004016106bb906137d5565b33600090815260056020526040902054600160a81b900460ff166119e85760405162461bcd60e51b81526004016106bb906137fb565b6000858152600760205260409020600101546201000090046001600160a01b03163314611a575760405162461bcd60e51b815260206004820152601760248201527f4e6f74207468652063757272656e742068616e646c657200000000000000000060448201526064016106bb565b6002600086815260076020526040902060010154610100900460ff166003811115611a8457611a8461326e565b14611ac85760405162461bcd60e51b815260206004820152601460248201527310985d18da081b9bdd081a5b881d1c985b9cda5d60621b60448201526064016106bb565b60008581526007602090815260408083206001808201805462010000600160b01b031916620100006001600160a01b038c160217905582518084019093528783528284018790526003909101805491820181558452919092208251600290920201908190611b369082613871565b5060208201516001820190611b4b9082613871565b505050836001600160a01b0316857f3d4c1e51e991e881ea130ad20e8ceb50acd92250ac0acde4bc7d82e29e84f5b28585604051611b8a92919061395f565b60405180910390a35050505050565b6000838152600760205260409020600101546201000090046001600160a01b03163314611bf65760405162461bcd60e51b815260206004820152600b60248201526a2737ba103430b7323632b960a91b60448201526064016106bb565b6002600084815260076020526040902060010154610100900460ff166003811115611c2357611c2361326e565b14611c615760405162461bcd60e51b815260206004820152600e60248201526d139bdd081a5b881d1c985b9cda5d60921b60448201526064016106bb565b600083815260076020908152604080832081518083019092528582528183018590526003018054600181018255908452919092208251600290920201908190611caa9082613871565b5060208201516001820190611cbf9082613871565b5050507f5386c66b9ad3ab4d97f42fc9a18b9c5b6526c0acda4e9902a147f9df07f184ca83838360405161088593929190613984565b60008033600090815260056020526040902054600160a01b900460ff166002811115611d2357611d2361326e565b14611d405760405162461bcd60e51b81526004016106bb906137d5565b33600090815260056020526040902054600160a81b900460ff16611d765760405162461bcd60e51b81526004016106bb906137fb565b60008083815260076020526040902060010154610100900460ff166003811115611da257611da261326e565b14611de65760405162461bcd60e51b8152602060048201526014602482015273496e76616c69642062617463682073746174757360601b60448201526064016106bb565b60008281526007602052604090206001908101805461ff0019166101008302179055506040518281527f0d12a96208f78b6b173d4bc5f7de1d8a9377c4e33639c8ef954056f7d35085879060200161139d565b606060006001600354611e4c919061392f565b6001600160401b03811115611e6357611e63612f1d565b604051908082528060200260200182016040528015611e9c57816020015b611e89612d53565b815260200190600190039081611e815790505b50905060015b6003548110156110da57600081815260076020908152604091829020825160c08101909352805483526001810154909183019060ff166003811115611ee957611ee961326e565b6003811115611efa57611efa61326e565b81526020016001820160019054906101000a900460ff166003811115611f2257611f2261326e565b6003811115611f3357611f3361326e565b815260018201546201000090046001600160a01b0316602080830191909152600283018054604080518285028101850182528281529401939260009084015b8282101561205657600084815260209081902060408051606081019091526003850290910180546001600160a01b031682526001810180549293919291840191611fbb90613749565b80601f0160208091040260200160405190810160405280929190818152602001828054611fe790613749565b80156120345780601f1061200957610100808354040283529160200191612034565b820191906000526020600020905b81548152906001019060200180831161201757829003601f168201915b5050505050815260200160028201548152505081526020019060010190611f72565b50505050815260200160038201805480602002602001604051908101604052809291908181526020016000905b828210156121d957838290600052602060002090600202016040518060400160405290816000820180546120b690613749565b80601f01602080910402602001604051908101604052809291908181526020018280546120e290613749565b801561212f5780601f106121045761010080835404028352916020019161212f565b820191906000526020600020905b81548152906001019060200180831161211257829003601f168201915b5050505050815260200160018201805461214890613749565b80601f016020809104026020016040519081016040528092919081815260200182805461217490613749565b80156121c15780601f10612196576101008083540402835291602001916121c1565b820191906000526020600020905b8154815290600101906020018083116121a457829003601f168201915b50505050508152505081526020019060010190612083565b5050509152508390506121ed60018461392f565b815181106121fd576121fd6137a6565b6020908102919091010152600101611ea2565b6001600160a01b03918216600090815260016020908152604080832093909416825291909152205460ff1690565b6060600060015b600354811015612297576001600082815260076020526040902060010154610100900460ff16600381111561227c5761227c61326e565b0361228f578161228b816137bc565b9250505b600101612245565b506000816001600160401b038111156122b2576122b2612f1d565b6040519080825280602002602001820160405280156122eb57816020015b6122d8612d53565b8152602001906001900390816122d05790505b509050600060015b600354811015610664576001600082815260076020526040902060010154610100900460ff16600381111561232a5761232a61326e565b0361269057600081815260076020908152604091829020825160c08101909352805483526001810154909183019060ff16600381111561236c5761236c61326e565b600381111561237d5761237d61326e565b81526020016001820160019054906101000a900460ff1660038111156123a5576123a561326e565b60038111156123b6576123b661326e565b815260018201546201000090046001600160a01b0316602080830191909152600283018054604080518285028101850182528281529401939260009084015b828210156124d957600084815260209081902060408051606081019091526003850290910180546001600160a01b03168252600181018054929391929184019161243e90613749565b80601f016020809104026020016040519081016040528092919081815260200182805461246a90613749565b80156124b75780601f1061248c576101008083540402835291602001916124b7565b820191906000526020600020905b81548152906001019060200180831161249a57829003601f168201915b50505050508152602001600282015481525050815260200190600101906123f5565b50505050815260200160038201805480602002602001604051908101604052809291908181526020016000905b8282101561265c578382906000526020600020906002020160405180604001604052908160008201805461253990613749565b80601f016020809104026020016040519081016040528092919081815260200182805461256590613749565b80156125b25780601f10612587576101008083540402835291602001916125b2565b820191906000526020600020905b81548152906001019060200180831161259557829003601f168201915b505050505081526020016001820180546125cb90613749565b80601f01602080910402602001604051908101604052809291908181526020018280546125f790613749565b80156126445780601f1061261957610100808354040283529160200191612644565b820191906000526020600020905b81548152906001019060200180831161262757829003601f168201915b50505050508152505081526020019060010190612506565b5050505081525050838381518110612676576126766137a6565b6020026020010181905250818061268c906137bc565b9250505b6001016122f3565b336001600160a01b03861681148015906126b957506126b78682612210565b155b156126ea5760405163711bec9160e11b81526001600160a01b038083166004830152871660248201526044016106bb565b6106d18686868686612851565b6001600160a01b03841661272157604051632bfa23e760e11b8152600060048201526024016106bb565b6001600160a01b03851661274a57604051626a0d4560e21b8152600060048201526024016106bb565b61275785858585856128df565b5050505050565b6001600160a01b03841661278857604051632bfa23e760e11b8152600060048201526024016106bb565b604080516001808252602082018690528183019081526060820185905260808201909252906106d16000878484876128df565b6001600160a01b0382166127e45760405162ced3e160e81b8152600060048201526024016106bb565b6001600160a01b03838116600081815260016020908152604080832094871680845294825291829020805460ff191686151590811790915591519182527f17307eab39ab6107e8899845ad3d59bd9653f200f220920489ca2b5937696c31910160405180910390a3505050565b6001600160a01b03841661287b57604051632bfa23e760e11b8152600060048201526024016106bb565b6001600160a01b0385166128a457604051626a0d4560e21b8152600060048201526024016106bb565b604080516001808252602082018690528183019081526060820185905260808201909252906128d687878484876128df565b50505050505050565b6128eb85858585612932565b6001600160a01b038416156127575782513390600103612924576020848101519084015161291d838989858589612b46565b50506106d1565b6106d1818787878787612c6a565b80518251146129615781518151604051635b05999160e01b8152600481019290925260248201526044016106bb565b3360005b8351811015612a67576020818102858101820151908501909101516001600160a01b03881615612a18576000828152602081815260408083206001600160a01b038c168452909152902054818110156129f1576040516303dee4c560e01b81526001600160a01b038a1660048201526024810182905260448101839052606481018490526084016106bb565b6000838152602081815260408083206001600160a01b038d16845290915290209082900390555b6001600160a01b03871615612a5d576000828152602081815260408083206001600160a01b038b16845290915281208054839290612a57908490613793565b90915550505b5050600101612965565b508251600103612ae85760208301516000906020840151909150856001600160a01b0316876001600160a01b0316846001600160a01b03167fc3d58168c5ae7397731d063d5bbf3d657854427343f4c083240f7aacaa2d0f628585604051612ad9929190918252602082015260400190565b60405180910390a45050612757565b836001600160a01b0316856001600160a01b0316826001600160a01b03167f4a39dc06d4c0dbc64b70af90fd698a233a518aa5d07e595d983b8c0526c8f7fb8686604051612b379291906139b9565b60405180910390a45050505050565b6001600160a01b0384163b156106d15760405163f23a6e6160e01b81526001600160a01b0385169063f23a6e6190612b8a90899089908890889088906004016139de565b6020604051808303816000875af1925050508015612bc5575060408051601f3d908101601f19168201909252612bc291810190613a23565b60015b612c2e573d808015612bf3576040519150601f19603f3d011682016040523d82523d6000602084013e612bf8565b606091505b508051600003612c2657604051632bfa23e760e11b81526001600160a01b03861660048201526024016106bb565b805181602001fd5b6001600160e01b0319811663f23a6e6160e01b146128d657604051632bfa23e760e11b81526001600160a01b03861660048201526024016106bb565b6001600160a01b0384163b156106d15760405163bc197c8160e01b81526001600160a01b0385169063bc197c8190612cae9089908990889088908890600401613a40565b6020604051808303816000875af1925050508015612ce9575060408051601f3d908101601f19168201909252612ce691810190613a23565b60015b612d17573d808015612bf3576040519150601f19603f3d011682016040523d82523d6000602084013e612bf8565b6001600160e01b0319811663bc197c8160e01b146128d657604051632bfa23e760e11b81526001600160a01b03861660048201526024016106bb565b6040805160c0810190915260008082526020820190815260200160008152600060208201526060604082018190529081015290565b80356001600160a01b0381168114612d9f57600080fd5b919050565b60008060408385031215612db757600080fd5b612dc083612d88565b946020939093013593505050565b6001600160e01b031981168114612de457600080fd5b50565b600060208284031215612df957600080fd5b8135612e0481612dce565b9392505050565b600060208284031215612e1d57600080fd5b5035919050565b6000815180845260005b81811015612e4a57602081850181015186830182015201612e2e565b506000602082860101526020601f19601f83011685010191505092915050565b602081526000612e046020830184612e24565b60018060a01b0381511682526000602082015160606020850152612ea46060850182612e24565b604093840151949093019390935250919050565b6000602082016020835280845180835260408501915060408160051b86010192506020860160005b82811015612f1157603f19878603018452612efc858351612e7d565b94506020938401939190910190600101612ee0565b50929695505050505050565b634e487b7160e01b600052604160045260246000fd5b604051601f8201601f191681016001600160401b0381118282101715612f5b57612f5b612f1d565b604052919050565b60006001600160401b03821115612f7c57612f7c612f1d565b5060051b60200190565b600082601f830112612f9757600080fd5b8135612faa612fa582612f63565b612f33565b8082825260208201915060208360051b860101925085831115612fcc57600080fd5b602085015b83811015612fe9578035835260209283019201612fd1565b5095945050505050565b600082601f83011261300457600080fd5b8135602083016000806001600160401b0384111561302457613024612f1d565b50601f8301601f191660200161303981612f33565b91505082815285838301111561304e57600080fd5b82826020830137600092810160200192909252509392505050565b600080600080600060a0868803121561308157600080fd5b61308a86612d88565b945061309860208701612d88565b935060408601356001600160401b038111156130b357600080fd5b6130bf88828901612f86565b93505060608601356001600160401b038111156130db57600080fd5b6130e788828901612f86565b92505060808601356001600160401b0381111561310357600080fd5b61310f88828901612ff3565b9150509295509295909350565b6000806040838503121561312f57600080fd5b8235915060208301356001600160401b0381111561314c57600080fd5b61315885828601612ff3565b9150509250929050565b6000806040838503121561317557600080fd5b82356001600160401b0381111561318b57600080fd5b8301601f8101851361319c57600080fd5b80356131aa612fa582612f63565b8082825260208201915060208360051b8501019250878311156131cc57600080fd5b6020840193505b828410156131f5576131e484612d88565b8252602093840193909101906131d3565b945050505060208301356001600160401b0381111561321357600080fd5b61315885828601612f86565b600081518084526020840193506020830160005b82811015613251578151865260209586019590910190600101613233565b5093949350505050565b602081526000612e04602083018461321f565b634e487b7160e01b600052602160045260246000fd5b60048110612de457612de461326e565b600082825180855260208501945060208160051b8301016020850160005b8381101561330b57601f1985840301885281518051604085526132d86040860182612e24565b90506020820151915084810360208601526132f38183612e24565b60209a8b019a909550939093019250506001016132b2565b50909695505050505050565b600060c0830182518452602083015161332f81613284565b6020850152604083015161334281613284565b8060408601525060018060a01b036060840151166060850152608083015160c0608086015281815180845260e08701915060e08160051b880101935060208301925060005b818110156133b85760df198886030183526133a3858551612e7d565b94506020938401939290920191600101613387565b5050505060a083015184820360a08601526133d38282613294565b95945050505050565b602081526000612e046020830184613317565b80358015158114612d9f57600080fd5b60008060006060848603121561341457600080fd5b61341d84612d88565b925060208401356003811061343157600080fd5b915061343f604085016133ef565b90509250925092565b6000806040838503121561345b57600080fd5b50508035926020909101359150565b602081526000612e046020830184612e7d565b602080825282518282018190526000918401906040840190835b818110156134ee57835180516001600160a01b031684526020810151600381106134c3576134c361326e565b8060208601525060408101511515604085015250606083019250602084019350600181019050613497565b509095945050505050565b6000806040838503121561350c57600080fd5b82356001600160401b0381111561352257600080fd5b61352e85828601612ff3565b92505060208301356001600160401b0381111561314c57600080fd5b6000602082016020835280845180835260408501915060408160051b86010192506020860160005b82811015612f1157603f1987860301845261358e858351613317565b94506020938401939190910190600101613572565b600080604083850312156135b657600080fd5b6135bf83612d88565b91506135cd602084016133ef565b90509250929050565b600080600080608085870312156135ec57600080fd5b843593506135fc60208601612d88565b925060408501356001600160401b0381111561361757600080fd5b61362387828801612ff3565b92505060608501356001600160401b0381111561363f57600080fd5b61364b87828801612ff3565b91505092959194509250565b60008060006060848603121561366c57600080fd5b8335925060208401356001600160401b0381111561368957600080fd5b61369586828701612ff3565b92505060408401356001600160401b038111156136b157600080fd5b6136bd86828701612ff3565b9150509250925092565b600080604083850312156136da57600080fd5b6136e383612d88565b91506135cd60208401612d88565b600080600080600060a0868803121561370957600080fd5b61371286612d88565b945061372060208701612d88565b9350604086013592506060860135915060808601356001600160401b0381111561310357600080fd5b600181811c9082168061375d57607f821691505b6020821081036110da57634e487b7160e01b600052602260045260246000fd5b634e487b7160e01b600052601160045260246000fd5b808201808211156103715761037161377d565b634e487b7160e01b600052603260045260246000fd5b6000600182016137ce576137ce61377d565b5060010190565b6020808252600c908201526b155b985d5d1a1bdc9a5e995960a21b604082015260600190565b60208082526010908201526f4163636f756e7420696e61637469766560801b604082015260600190565b601f82111561386c57806000526020600020601f840160051c8101602085101561384c5750805b601f840160051c820191505b818110156127575760008155600101613858565b505050565b81516001600160401b0381111561388a5761388a612f1d565b61389e816138988454613749565b84613825565b6020601f8211600181146138d257600083156138ba5750848201515b600019600385901b1c1916600184901b178455612757565b600084815260208120601f198516915b8281101561390257878501518255602094850194600190920191016138e2565b50848210156139205786840151600019600387901b60f8161c191681555b50505050600190811b01905550565b818103818111156103715761037161377d565b8281526040810161395283613284565b8260208301529392505050565b6040815260006139726040830185612e24565b82810360208401526133d38185612e24565b83815260606020820152600061399d6060830185612e24565b82810360408401526139af8185612e24565b9695505050505050565b6040815260006139cc604083018561321f565b82810360208401526133d3818561321f565b6001600160a01b03868116825285166020820152604081018490526060810183905260a060808201819052600090613a1890830184612e24565b979650505050505050565b600060208284031215613a3557600080fd5b8151612e0481612dce565b6001600160a01b0386811682528516602082015260a060408201819052600090613a6c9083018661321f565b8281036060840152613a7e818661321f565b90508281036080840152613a928185612e24565b9897505050505050505056fea2646970667358221220d6cf20f88b7660d76206eefc57e98a18523a390d8499a88fd766b17b733e4f9864736f6c634300081c003368747470733a2f2f746f6b656e2d63646e2d646f6d61696e2f7b69647d2e6a736f6e","linkReferences":{}},"methodIdentifiers":{"addDonation(uint256,string)":"4d27dc23","addMember(address,uint8,bool)":"67e2c87f","balanceOf(address,uint256)":"00fdd58e","balanceOfBatch(address[],uint256[])":"4e1273f4","claimBatchForDelivery(uint256)":"a1cc2939","claimBatchForTransporter(uint256)":"98f681c8","closeBatch(uint256)":"d2c411d3","createBatch(string,string)":"92b8f021","getAllBatches()":"e80e076b","getAllBatchesWithStatusClosedReadyForTransporter()":"e9cf8c06","getAllBatchesWithStatusInTransitReadyForDelivery()":"9b340d01","getAllDonationsInAllBatches()":"17b42c77","getAllListOfMembers()":"7ef2a569","getBatch(uint256)":"5ac44282","getDonation(uint256,uint256)":"76ff7bf4","isApprovedForAll(address,address)":"e985e9c5","safeBatchTransferFrom(address,address,uint256[],uint256[],bytes)":"2eb2c2d6","safeTransferFrom(address,address,uint256,uint256,bytes)":"f242432a","setApprovalForAll(address,bool)":"a22cb465","supportsInterface(bytes4)":"01ffc9a7","transferBatch(uint256,address,string,string)":"b3641cfd","updateLocation(uint256,string,string)":"b7472885","uri(uint256)":"0e89341c"},"id":42}