{"abi":[{"type":"constructor","inputs":[],"stateMutability":"nonpayable"},{"type":"function","name":"addDonation","inputs":[{"name":"batchId","type":"uint256","internalType":"uint256"},{"name":"productDescription","type":"string","internalType":"string"}],"outputs":[],"stateMutability":"nonpayable"},{"type":"function","name":"addMember","inputs":[{"name":"account","type":"address","internalType":"address"},{"name":"role","type":"uint8","internalType":"enum IDataTypes.Role"}],"outputs":[],"stateMutability":"nonpayable"},{"type":"function","name":"balanceOf","inputs":[{"name":"account","type":"address","internalType":"address"},{"name":"id","type":"uint256","internalType":"uint256"}],"outputs":[{"name":"","type":"uint256","internalType":"uint256"}],"stateMutability":"view"},{"type":"function","name":"balanceOfBatch","inputs":[{"name":"accounts","type":"address[]","internalType":"address[]"},{"name":"ids","type":"uint256[]","internalType":"uint256[]"}],"outputs":[{"name":"","type":"uint256[]","internalType":"uint256[]"}],"stateMutability":"view"},{"type":"function","name":"claimBatchForDelivery","inputs":[{"name":"batchId","type":"uint256","internalType":"uint256"}],"outputs":[],"stateMutability":"nonpayable"},{"type":"function","name":"claimBatchForTransporter","inputs":[{"name":"batchId","type":"uint256","internalType":"uint256"}],"outputs":[],"stateMutability":"nonpayable"},{"type":"function","name":"closeBatch","inputs":[{"name":"batchId","type":"uint256","internalType":"uint256"}],"outputs":[],"stateMutability":"nonpayable"},{"type":"function","name":"createBatch","inputs":[{"name":"latitude","type":"string","internalType":"string"},{"name":"longitude","type":"string","internalType":"string"}],"outputs":[],"stateMutability":"nonpayable"},{"type":"function","name":"getAllBatches","inputs":[],"outputs":[{"name":"","type":"tuple[]","internalType":"struct IDataTypes.Batch[]","components":[{"name":"id","type":"uint256","internalType":"uint256"},{"name":"destinationZone","type":"uint8","internalType":"enum IDataTypes.DistributionZones"},{"name":"status","type":"uint8","internalType":"enum IDataTypes.BatchStatus"},{"name":"currentHandler","type":"address","internalType":"address"},{"name":"donations","type":"tuple[]","internalType":"struct IDataTypes.Donation[]","components":[{"name":"donor","type":"address","internalType":"address"},{"name":"description","type":"string","internalType":"string"},{"name":"timestamp","type":"uint256","internalType":"uint256"}]},{"name":"locations","type":"tuple[]","internalType":"struct IDataTypes.Location[]","components":[{"name":"latitude","type":"string","internalType":"string"},{"name":"longitude","type":"string","internalType":"string"}]}]}],"stateMutability":"view"},{"type":"function","name":"getAllBatchesWithStatusClosedReadyForTransporter","inputs":[],"outputs":[{"name":"","type":"tuple[]","internalType":"struct IDataTypes.Batch[]","components":[{"name":"id","type":"uint256","internalType":"uint256"},{"name":"destinationZone","type":"uint8","internalType":"enum IDataTypes.DistributionZones"},{"name":"status","type":"uint8","internalType":"enum IDataTypes.BatchStatus"},{"name":"currentHandler","type":"address","internalType":"address"},{"name":"donations","type":"tuple[]","internalType":"struct IDataTypes.Donation[]","components":[{"name":"donor","type":"address","internalType":"address"},{"name":"description","type":"string","internalType":"string"},{"name":"timestamp","type":"uint256","internalType":"uint256"}]},{"name":"locations","type":"tuple[]","internalType":"struct IDataTypes.Location[]","components":[{"name":"latitude","type":"string","internalType":"string"},{"name":"longitude","type":"string","internalType":"string"}]}]}],"stateMutability":"view"},{"type":"function","name":"getAllBatchesWithStatusInTransitReadyForDelivery","inputs":[],"outputs":[{"name":"","type":"tuple[]","internalType":"struct IDataTypes.Batch[]","components":[{"name":"id","type":"uint256","internalType":"uint256"},{"name":"destinationZone","type":"uint8","internalType":"enum IDataTypes.DistributionZones"},{"name":"status","type":"uint8","internalType":"enum IDataTypes.BatchStatus"},{"name":"currentHandler","type":"address","internalType":"address"},{"name":"donations","type":"tuple[]","internalType":"struct IDataTypes.Donation[]","components":[{"name":"donor","type":"address","internalType":"address"},{"name":"description","type":"string","internalType":"string"},{"name":"timestamp","type":"uint256","internalType":"uint256"}]},{"name":"locations","type":"tuple[]","internalType":"struct IDataTypes.Location[]","components":[{"name":"latitude","type":"string","internalType":"string"},{"name":"longitude","type":"string","internalType":"string"}]}]}],"stateMutability":"view"},{"type":"function","name":"getAllDonationsInAllBatches","inputs":[],"outputs":[{"name":"","type":"tuple[]","internalType":"struct IDataTypes.Donation[]","components":[{"name":"donor","type":"address","internalType":"address"},{"name":"description","type":"string","internalType":"string"},{"name":"timestamp","type":"uint256","internalType":"uint256"}]}],"stateMutability":"view"},{"type":"function","name":"getAllListOfMembers","inputs":[],"outputs":[{"name":"","type":"tuple[]","internalType":"struct IDataTypes.Members[]","components":[{"name":"account","type":"address","internalType":"address"},{"name":"role","type":"uint8","internalType":"enum IDataTypes.Role"},{"name":"isActive","type":"bool","internalType":"bool"}]}],"stateMutability":"view"},{"type":"function","name":"getBatch","inputs":[{"name":"batchId","type":"uint256","internalType":"uint256"}],"outputs":[{"name":"","type":"tuple","internalType":"struct IDataTypes.Batch","components":[{"name":"id","type":"uint256","internalType":"uint256"},{"name":"destinationZone","type":"uint8","internalType":"enum IDataTypes.DistributionZones"},{"name":"status","type":"uint8","internalType":"enum IDataTypes.BatchStatus"},{"name":"currentHandler","type":"address","internalType":"address"},{"name":"donations","type":"tuple[]","internalType":"struct IDataTypes.Donation[]","components":[{"name":"donor","type":"address","internalType":"address"},{"name":"description","type":"string","internalType":"string"},{"name":"timestamp","type":"uint256","internalType":"uint256"}]},{"name":"locations","type":"tuple[]","internalType":"struct IDataTypes.Location[]","components":[{"name":"latitude","type":"string","internalType":"string"},{"name":"longitude","type":"string","internalType":"string"}]}]}],"stateMutability":"view"},{"type":"function","name":"getDonation","inputs":[{"name":"batchId","type":"uint256","internalType":"uint256"},{"name":"index","type":"uint256","internalType":"uint256"}],"outputs":[{"name":"","type":"tuple","internalType":"struct IDataTypes.Donation","components":[{"name":"donor","type":"address","internalType":"address"},{"name":"description","type":"string","internalType":"string"},{"name":"timestamp","type":"uint256","internalType":"uint256"}]}],"stateMutability":"view"},{"type":"function","name":"isApprovedForAll","inputs":[{"name":"account","type":"address","internalType":"address"},{"name":"operator","type":"address","internalType":"address"}],"outputs":[{"name":"","type":"bool","internalType":"bool"}],"stateMutability":"view"},{"type":"function","name":"safeBatchTransferFrom","inputs":[{"name":"from","type":"address","internalType":"address"},{"name":"to","type":"address","internalType":"address"},{"name":"ids","type":"uint256[]","internalType":"uint256[]"},{"name":"values","type":"uint256[]","internalType":"uint256[]"},{"name":"data","type":"bytes","internalType":"bytes"}],"outputs":[],"stateMutability":"nonpayable"},{"type":"function","name":"safeTransferFrom","inputs":[{"name":"from","type":"address","internalType":"address"},{"name":"to","type":"address","internalType":"address"},{"name":"id","type":"uint256","internalType":"uint256"},{"name":"value","type":"uint256","internalType":"uint256"},{"name":"data","type":"bytes","internalType":"bytes"}],"outputs":[],"stateMutability":"nonpayable"},{"type":"function","name":"setApprovalForAll","inputs":[{"name":"operator","type":"address","internalType":"address"},{"name":"approved","type":"bool","internalType":"bool"}],"outputs":[],"stateMutability":"nonpayable"},{"type":"function","name":"supportsInterface","inputs":[{"name":"interfaceId","type":"bytes4","internalType":"bytes4"}],"outputs":[{"name":"","type":"bool","internalType":"bool"}],"stateMutability":"view"},{"type":"function","name":"transferBatch","inputs":[{"name":"batchId","type":"uint256","internalType":"uint256"},{"name":"newHandler","type":"address","internalType":"address"},{"name":"latitude","type":"string","internalType":"string"},{"name":"longitude","type":"string","internalType":"string"}],"outputs":[],"stateMutability":"nonpayable"},{"type":"function","name":"updateLocation","inputs":[{"name":"batchId","type":"uint256","internalType":"uint256"},{"name":"latitude","type":"string","internalType":"string"},{"name":"longitude","type":"string","internalType":"string"}],"outputs":[],"stateMutability":"nonpayable"},{"type":"function","name":"uri","inputs":[{"name":"","type":"uint256","internalType":"uint256"}],"outputs":[{"name":"","type":"string","internalType":"string"}],"stateMutability":"view"},{"type":"event","name":"ApprovalForAll","inputs":[{"name":"account","type":"address","indexed":true,"internalType":"address"},{"name":"operator","type":"address","indexed":true,"internalType":"address"},{"name":"approved","type":"bool","indexed":false,"internalType":"bool"}],"anonymous":false},{"type":"event","name":"BatchClaimed","inputs":[{"name":"batchId","type":"uint256","indexed":false,"internalType":"uint256"},{"name":"status","type":"uint8","indexed":false,"internalType":"enum IDataTypes.BatchStatus"}],"anonymous":false},{"type":"event","name":"BatchClosed","inputs":[{"name":"batchId","type":"uint256","indexed":false,"internalType":"uint256"}],"anonymous":false},{"type":"event","name":"BatchCreated","inputs":[{"name":"batchId","type":"uint256","indexed":false,"internalType":"uint256"},{"name":"currentHandler","type":"address","indexed":false,"internalType":"address"}],"anonymous":false},{"type":"event","name":"BatchTransferred","inputs":[{"name":"batchId","type":"uint256","indexed":true,"internalType":"uint256"},{"name":"newHandler","type":"address","indexed":true,"internalType":"address"},{"name":"latitude","type":"string","indexed":false,"internalType":"string"},{"name":"longitude","type":"string","indexed":false,"internalType":"string"}],"anonymous":false},{"type":"event","name":"DistributionZoneUpdated","inputs":[{"name":"batchId","type":"uint256","indexed":false,"internalType":"uint256"},{"name":"destinationZone","type":"uint8","indexed":false,"internalType":"enum IDataTypes.DistributionZones"}],"anonymous":false},{"type":"event","name":"LocationUpdated","inputs":[{"name":"batchId","type":"uint256","indexed":false,"internalType":"uint256"},{"name":"latitude","type":"string","indexed":false,"internalType":"string"},{"name":"longitude","type":"string","indexed":false,"internalType":"string"}],"anonymous":false},{"type":"event","name":"ProductAdded","inputs":[{"name":"batchId","type":"uint256","indexed":false,"internalType":"uint256"},{"name":"productIndex","type":"uint256","indexed":false,"internalType":"uint256"},{"name":"donor","type":"address","indexed":false,"internalType":"address"}],"anonymous":false},{"type":"event","name":"TransferBatch","inputs":[{"name":"operator","type":"address","indexed":true,"internalType":"address"},{"name":"from","type":"address","indexed":true,"internalType":"address"},{"name":"to","type":"address","indexed":true,"internalType":"address"},{"name":"ids","type":"uint256[]","indexed":false,"internalType":"uint256[]"},{"name":"values","type":"uint256[]","indexed":false,"internalType":"uint256[]"}],"anonymous":false},{"type":"event","name":"TransferSingle","inputs":[{"name":"operator","type":"address","indexed":true,"internalType":"address"},{"name":"from","type":"address","indexed":true,"internalType":"address"},{"name":"to","type":"address","indexed":true,"internalType":"address"},{"name":"id","type":"uint256","indexed":false,"internalType":"uint256"},{"name":"value","type":"uint256","indexed":false,"internalType":"uint256"}],"anonymous":false},{"type":"event","name":"URI","inputs":[{"name":"value","type":"string","indexed":false,"internalType":"string"},{"name":"id","type":"uint256","indexed":true,"internalType":"uint256"}],"anonymous":false},{"type":"error","name":"ERC1155InsufficientBalance","inputs":[{"name":"sender","type":"address","internalType":"address"},{"name":"balance","type":"uint256","internalType":"uint256"},{"name":"needed","type":"uint256","internalType":"uint256"},{"name":"tokenId","type":"uint256","internalType":"uint256"}]},{"type":"error","name":"ERC1155InvalidApprover","inputs":[{"name":"approver","type":"address","internalType":"address"}]},{"type":"error","name":"ERC1155InvalidArrayLength","inputs":[{"name":"idsLength","type":"uint256","internalType":"uint256"},{"name":"valuesLength","type":"uint256","internalType":"uint256"}]},{"type":"error","name":"ERC1155InvalidOperator","inputs":[{"name":"operator","type":"address","internalType":"address"}]},{"type":"error","name":"ERC1155InvalidReceiver","inputs":[{"name":"receiver","type":"address","internalType":"address"}]},{"type":"error","name":"ERC1155InvalidSender","inputs":[{"name":"sender","type":"address","internalType":"address"}]},{"type":"error","name":"ERC1155MissingApprovalForAll","inputs":[{"name":"operator","type":"address","internalType":"address"},{"name":"owner","type":"address","internalType":"address"}]}],"bytecode":{"object":"0x60806040526001600355600060045534801561001a57600080fd5b50604051806060016040528060228152602001613dfe6022913961003d8161017f565b506040805160608101909152338152602081016000815260016020918201523360009081526005825260409020825181546001600160a01b03919091166001600160a01b031982168117835592840151919283916001600160a81b03191617600160a01b8360028111156100b3576100b361018f565b02179055506040918201518154901515600160a81b0260ff60a81b199091161790553360009081526005602090815282822060045483526006909152919020815481546001600160a01b031981166001600160a01b039290921691821783558354600160a01b9081900460ff169284926001600160a81b03191617908360028111156101415761014161018f565b02179055509054815460ff60a81b1916600160a81b9182900460ff16151590910217905560048054906000610175836101a5565b9190505550610329565b600261018b828261026b565b5050565b634e487b7160e01b600052602160045260246000fd5b6000600182016101c557634e487b7160e01b600052601160045260246000fd5b5060010190565b634e487b7160e01b600052604160045260246000fd5b600181811c908216806101f657607f821691505b60208210810361021657634e487b7160e01b600052602260045260246000fd5b50919050565b601f82111561026657806000526020600020601f840160051c810160208510156102435750805b601f840160051c820191505b81811015610263576000815560010161024f565b50505b505050565b81516001600160401b03811115610284576102846101cc565b6102988161029284546101e2565b8461021c565b6020601f8211600181146102cc57600083156102b45750848201515b600019600385901b1c1916600184901b178455610263565b600084815260208120601f198516915b828110156102fc57878501518255602094850194600190920191016102dc565b508482101561031a5786840151600019600387901b60f8161c191681555b50505050600190811b01905550565b613ac6806103386000396000f3fe608060405234801561001057600080fd5b506004361061014c5760003560e01c806392b8f021116100c3578063b74728851161007c578063b7472885146102f3578063d2c411d314610306578063e80e076b14610319578063e985e9c514610321578063e9cf8c0614610334578063f242432a1461033c57600080fd5b806392b8f0211461027f57806398f681c8146102925780639b340d01146102a5578063a1cc2939146102ba578063a22cb465146102cd578063b3641cfd146102e057600080fd5b80634d27dc23116101155780634d27dc23146101e45780634e1273f4146101f75780635ac442821461021757806362d0d1c31461023757806376ff7bf41461024a5780637ef2a5691461026a57600080fd5b8062fdd58e1461015157806301ffc9a7146101775780630e89341c1461019a57806317b42c77146101ba5780632eb2c2d6146101cf575b600080fd5b61016461015f366004612dad565b61034f565b6040519081526020015b60405180910390f35b61018a610185366004612df0565b610377565b604051901515815260200161016e565b6101ad6101a8366004612e14565b6103c7565b60405161016e9190612e73565b6101c261045b565b60405161016e9190612ec1565b6101e26101dd366004613072565b61066d565b005b6101e26101f2366004613125565b6106d9565b61020a61020536600461316b565b610892565b60405161016e9190613264565b61022a610225366004612e14565b61095e565b60405161016e91906133e5565b6101e26102453660046133f8565b610ca1565b61025d610258366004613433565b610e85565b60405161016e9190613455565b610272610fa9565b60405161016e9190613468565b6101e261028d3660046134e4565b6110de565b6101e26102a0366004612e14565b611256565b6102ad6113b2565b60405161016e9190613535565b6101e26102c8366004612e14565b61180c565b6101e26102db36600461358e565b611961565b6101e26102ee3660046135bf565b611970565b6101e2610301366004613640565b611ba2565b6101e2610314366004612e14565b611cfe565b6102ad611e42565b61018a61032f3660046136b0565b612219565b6102ad612247565b6101e261034a3660046136e3565b6126a1565b6000818152602081815260408083206001600160a01b03861684529091529020545b92915050565b60006001600160e01b03198216636cdb3d1360e11b14806103a857506001600160e01b031982166303a24d0760e21b145b8061037157506301ffc9a760e01b6001600160e01b0319831614610371565b6060600280546103d69061373b565b80601f01602080910402602001604051908101604052809291908181526020018280546104029061373b565b801561044f5780601f106104245761010080835404028352916020019161044f565b820191906000526020600020905b81548152906001019060200180831161043257829003601f168201915b50505050509050919050565b6060600060015b600354811015610492576000818152600760205260409020600201546104889083613785565b9150600101610462565b506000816001600160401b038111156104ad576104ad612f26565b60405190808252806020026020018201604052801561050b57816020015b6104f8604051806060016040528060006001600160a01b0316815260200160608152602001600081525090565b8152602001906001900390816104cb5790505b509050600060015b6003548110156106645760005b60008281526007602052604090206002015481101561065b57600082815260076020526040902060020180548290811061055c5761055c613798565b6000918252602091829020604080516060810190915260039092020180546001600160a01b03168252600181018054929391929184019161059c9061373b565b80601f01602080910402602001604051908101604052809291908181526020018280546105c89061373b565b80156106155780601f106105ea57610100808354040283529160200191610615565b820191906000526020600020905b8154815290600101906020018083116105f857829003601f168201915b5050505050815260200160028201548152505084848151811061063a5761063a613798565b60200260200101819052508280610650906137ae565b935050600101610520565b50600101610513565b50909392505050565b336001600160a01b038616811480159061068e575061068c8682612219565b155b156106c45760405163711bec9160e11b81526001600160a01b038083166004830152871660248201526044015b60405180910390fd5b6106d18686868686612700565b505050505050565b60028033600090815260056020526040902054600160a01b900460ff16600281111561070757610707613277565b146107245760405162461bcd60e51b81526004016106bb906137c7565b33600090815260056020526040902054600160a81b900460ff1661075a5760405162461bcd60e51b81526004016106bb906137ed565b6000838152600760205260409020600201546005116107ab5760405162461bcd60e51b815260206004820152600d60248201526c10985d18da081a5cc8199d5b1b609a1b60448201526064016106bb565b600083815260076020908152604080832081516060810183523381528084018781524293820193909352600290910180546001808201835591865293909420815160039094020180546001600160a01b0319166001600160a01b03909416939093178355905190928201906108209082613863565b50604091820151600291820155600085815260076020529190912001547f570b1ff121506a2a203cd2fa6dfe1d3480f6de0b4bd49aaf46b8847c0083a86490849061086d90600190613921565b60408051928352602083019190915233908201526060015b60405180910390a1505050565b606081518351146108c35781518351604051635b05999160e01b8152600481019290925260248201526044016106bb565b600083516001600160401b038111156108de576108de612f26565b604051908082528060200260200182016040528015610907578160200160208202803683370190505b50905060005b8451811015610956576020808202860101516109319060208084028701015161034f565b82828151811061094357610943613798565b602090810291909101015260010161090d565b509392505050565b610966612d5c565b600082815260076020908152604091829020825160c08101909352805483526001810154909183019060ff1660038111156109a3576109a3613277565b60038111156109b4576109b4613277565b81526020016001820160019054906101000a900460ff1660038111156109dc576109dc613277565b60038111156109ed576109ed613277565b815260018201546201000090046001600160a01b0316602080830191909152600283018054604080518285028101850182528281529401939260009084015b82821015610b1057600084815260209081902060408051606081019091526003850290910180546001600160a01b031682526001810180549293919291840191610a759061373b565b80601f0160208091040260200160405190810160405280929190818152602001828054610aa19061373b565b8015610aee5780601f10610ac357610100808354040283529160200191610aee565b820191906000526020600020905b815481529060010190602001808311610ad157829003601f168201915b5050505050815260200160028201548152505081526020019060010190610a2c565b50505050815260200160038201805480602002602001604051908101604052809291908181526020016000905b82821015610c935783829060005260206000209060020201604051806040016040529081600082018054610b709061373b565b80601f0160208091040260200160405190810160405280929190818152602001828054610b9c9061373b565b8015610be95780601f10610bbe57610100808354040283529160200191610be9565b820191906000526020600020905b815481529060010190602001808311610bcc57829003601f168201915b50505050508152602001600182018054610c029061373b565b80601f0160208091040260200160405190810160405280929190818152602001828054610c2e9061373b565b8015610c7b5780601f10610c5057610100808354040283529160200191610c7b565b820191906000526020600020905b815481529060010190602001808311610c5e57829003601f168201915b50505050508152505081526020019060010190610b3d565b505050915250909392505050565b60008033600090815260056020526040902054600160a01b900460ff166002811115610ccf57610ccf613277565b14610cec5760405162461bcd60e51b81526004016106bb906137c7565b33600090815260056020526040902054600160a81b900460ff16610d225760405162461bcd60e51b81526004016106bb906137ed565b6040518060600160405280846001600160a01b03168152602001836002811115610d4e57610d4e613277565b815260016020918201526001600160a01b03808616600090815260058352604090208351815492166001600160a01b0319831681178255928401519092909183916001600160a81b031990911617600160a01b836002811115610db357610db3613277565b0217905550604091820151815460ff60a81b1916600160a81b911515919091021790556001600160a01b03848116600090815260056020908152838220600454835260069091529290208254815492166001600160a01b03198316811782558354919260ff600160a01b93849004169284926001600160a81b031990921690911790836002811115610e4757610e47613277565b02179055509054815460ff60a81b1916600160a81b9182900460ff16151590910217905560048054906000610e7b836137ae565b9190505550505050565b610eb2604051806060016040528060006001600160a01b0316815260200160608152602001600081525090565b6000838152600760205260409020600201805483908110610ed557610ed5613798565b6000918252602091829020604080516060810190915260039092020180546001600160a01b031682526001810180549293919291840191610f159061373b565b80601f0160208091040260200160405190810160405280929190818152602001828054610f419061373b565b8015610f8e5780601f10610f6357610100808354040283529160200191610f8e565b820191906000526020600020905b815481529060010190602001808311610f7157829003601f168201915b50505050508152602001600282015481525050905092915050565b606060006004546001600160401b03811115610fc757610fc7612f26565b60405190808252806020026020018201604052801561101257816020015b6040805160608101825260008082526020808301829052928201528252600019909201910181610fe55790505b50905060005b6004548110156110d857600081815260066020526040902054600160a81b900460ff16156110d05760008181526006602090815260409182902082516060810190935280546001600160a01b03811684529091830190600160a01b900460ff16600281111561108957611089613277565b600281111561109a5761109a613277565b81529054600160a81b900460ff16151560209091015282518390839081106110c4576110c4613798565b60200260200101819052505b600101611018565b50919050565b60008033600090815260056020526040902054600160a01b900460ff16600281111561110c5761110c613277565b146111295760405162461bcd60e51b81526004016106bb906137c7565b33600090815260056020526040902054600160a81b900460ff1661115f5760405162461bcd60e51b81526004016106bb906137ed565b61117d33600354600160405180602001604052806000815250612767565b60038054600081815260076020908152604080832093845560018085018054610100600160b01b031916336201000002179055815180830190925288825281830188905294840180549586018155835291208151929391926002909202019081906111e89082613863565b50602082015160018201906111fd9082613863565b5050600354604080519182523360208301527f03b090a5f073126ba1311454936e50b13b4eb5a69549338b4886ff9a0c1bfaed92500160405180910390a16003805490600061124b836137ae565b919050555050505050565b60018033600090815260056020526040902054600160a01b900460ff16600281111561128457611284613277565b146112a15760405162461bcd60e51b81526004016106bb906137c7565b33600090815260056020526040902054600160a81b900460ff166112d75760405162461bcd60e51b81526004016106bb906137ed565b6001600083815260076020526040902060010154610100900460ff16600381111561130457611304613277565b146113435760405162461bcd60e51b815260206004820152600f60248201526e4261746368206e6f7420726561647960881b60448201526064016106bb565b600082815260076020526040908190206001018054610100600160b01b03191633620100000261ff00191617610200179055517fc73ef165ea3d5a0161b64208f0ce43072ee61627d652c5b824a795315419503f906113a6908490600290613934565b60405180910390a15050565b6060600060015b60035481101561140b576002600082815260076020526040902060010154610100900460ff1660038111156113f0576113f0613277565b0361140357816113ff816137ae565b9250505b6001016113b9565b506000816001600160401b0381111561142657611426612f26565b60405190808252806020026020018201604052801561145f57816020015b61144c612d5c565b8152602001906001900390816114445790505b509050600060015b600354811015610664576002600082815260076020526040902060010154610100900460ff16600381111561149e5761149e613277565b0361180457600081815260076020908152604091829020825160c08101909352805483526001810154909183019060ff1660038111156114e0576114e0613277565b60038111156114f1576114f1613277565b81526020016001820160019054906101000a900460ff16600381111561151957611519613277565b600381111561152a5761152a613277565b815260018201546201000090046001600160a01b0316602080830191909152600283018054604080518285028101850182528281529401939260009084015b8282101561164d57600084815260209081902060408051606081019091526003850290910180546001600160a01b0316825260018101805492939192918401916115b29061373b565b80601f01602080910402602001604051908101604052809291908181526020018280546115de9061373b565b801561162b5780601f106116005761010080835404028352916020019161162b565b820191906000526020600020905b81548152906001019060200180831161160e57829003601f168201915b5050505050815260200160028201548152505081526020019060010190611569565b50505050815260200160038201805480602002602001604051908101604052809291908181526020016000905b828210156117d057838290600052602060002090600202016040518060400160405290816000820180546116ad9061373b565b80601f01602080910402602001604051908101604052809291908181526020018280546116d99061373b565b80156117265780601f106116fb57610100808354040283529160200191611726565b820191906000526020600020905b81548152906001019060200180831161170957829003601f168201915b5050505050815260200160018201805461173f9061373b565b80601f016020809104026020016040519081016040528092919081815260200182805461176b9061373b565b80156117b85780601f1061178d576101008083540402835291602001916117b8565b820191906000526020600020905b81548152906001019060200180831161179b57829003601f168201915b5050505050815250508152602001906001019061167a565b50505050815250508383815181106117ea576117ea613798565b60200260200101819052508180611800906137ae565b9250505b600101611467565b60008033600090815260056020526040902054600160a01b900460ff16600281111561183a5761183a613277565b146118575760405162461bcd60e51b81526004016106bb906137c7565b33600090815260056020526040902054600160a81b900460ff1661188d5760405162461bcd60e51b81526004016106bb906137ed565b6002600083815260076020526040902060010154610100900460ff1660038111156118ba576118ba613277565b146118fe5760405162461bcd60e51b815260206004820152601460248201527310985d18da081b9bdd081a5b881d1c985b9cda5d60621b60448201526064016106bb565b600082815260076020526040908190206001018054610100600160b01b03191633620100000261ff00191617610300179055517fc73ef165ea3d5a0161b64208f0ce43072ee61627d652c5b824a795315419503f906113a6908490600390613934565b61196c3383836127c4565b5050565b60018033600090815260056020526040902054600160a01b900460ff16600281111561199e5761199e613277565b146119bb5760405162461bcd60e51b81526004016106bb906137c7565b33600090815260056020526040902054600160a81b900460ff166119f15760405162461bcd60e51b81526004016106bb906137ed565b6000858152600760205260409020600101546201000090046001600160a01b03163314611a605760405162461bcd60e51b815260206004820152601760248201527f4e6f74207468652063757272656e742068616e646c657200000000000000000060448201526064016106bb565b6002600086815260076020526040902060010154610100900460ff166003811115611a8d57611a8d613277565b14611ad15760405162461bcd60e51b815260206004820152601460248201527310985d18da081b9bdd081a5b881d1c985b9cda5d60621b60448201526064016106bb565b60008581526007602090815260408083206001808201805462010000600160b01b031916620100006001600160a01b038c160217905582518084019093528783528284018790526003909101805491820181558452919092208251600290920201908190611b3f9082613863565b5060208201516001820190611b549082613863565b505050836001600160a01b0316857f3d4c1e51e991e881ea130ad20e8ceb50acd92250ac0acde4bc7d82e29e84f5b28585604051611b93929190613951565b60405180910390a35050505050565b6000838152600760205260409020600101546201000090046001600160a01b03163314611bff5760405162461bcd60e51b815260206004820152600b60248201526a2737ba103430b7323632b960a91b60448201526064016106bb565b6002600084815260076020526040902060010154610100900460ff166003811115611c2c57611c2c613277565b14611c6a5760405162461bcd60e51b815260206004820152600e60248201526d139bdd081a5b881d1c985b9cda5d60921b60448201526064016106bb565b600083815260076020908152604080832081518083019092528582528183018590526003018054600181018255908452919092208251600290920201908190611cb39082613863565b5060208201516001820190611cc89082613863565b5050507f5386c66b9ad3ab4d97f42fc9a18b9c5b6526c0acda4e9902a147f9df07f184ca83838360405161088593929190613976565b60008033600090815260056020526040902054600160a01b900460ff166002811115611d2c57611d2c613277565b14611d495760405162461bcd60e51b81526004016106bb906137c7565b33600090815260056020526040902054600160a81b900460ff16611d7f5760405162461bcd60e51b81526004016106bb906137ed565b60008083815260076020526040902060010154610100900460ff166003811115611dab57611dab613277565b14611def5760405162461bcd60e51b8152602060048201526014602482015273496e76616c69642062617463682073746174757360601b60448201526064016106bb565b60008281526007602052604090206001908101805461ff0019166101008302179055506040518281527f0d12a96208f78b6b173d4bc5f7de1d8a9377c4e33639c8ef954056f7d3508587906020016113a6565b606060006001600354611e559190613921565b6001600160401b03811115611e6c57611e6c612f26565b604051908082528060200260200182016040528015611ea557816020015b611e92612d5c565b815260200190600190039081611e8a5790505b50905060015b6003548110156110d857600081815260076020908152604091829020825160c08101909352805483526001810154909183019060ff166003811115611ef257611ef2613277565b6003811115611f0357611f03613277565b81526020016001820160019054906101000a900460ff166003811115611f2b57611f2b613277565b6003811115611f3c57611f3c613277565b815260018201546201000090046001600160a01b0316602080830191909152600283018054604080518285028101850182528281529401939260009084015b8282101561205f57600084815260209081902060408051606081019091526003850290910180546001600160a01b031682526001810180549293919291840191611fc49061373b565b80601f0160208091040260200160405190810160405280929190818152602001828054611ff09061373b565b801561203d5780601f106120125761010080835404028352916020019161203d565b820191906000526020600020905b81548152906001019060200180831161202057829003601f168201915b5050505050815260200160028201548152505081526020019060010190611f7b565b50505050815260200160038201805480602002602001604051908101604052809291908181526020016000905b828210156121e257838290600052602060002090600202016040518060400160405290816000820180546120bf9061373b565b80601f01602080910402602001604051908101604052809291908181526020018280546120eb9061373b565b80156121385780601f1061210d57610100808354040283529160200191612138565b820191906000526020600020905b81548152906001019060200180831161211b57829003601f168201915b505050505081526020016001820180546121519061373b565b80601f016020809104026020016040519081016040528092919081815260200182805461217d9061373b565b80156121ca5780601f1061219f576101008083540402835291602001916121ca565b820191906000526020600020905b8154815290600101906020018083116121ad57829003601f168201915b5050505050815250508152602001906001019061208c565b5050509152508390506121f6600184613921565b8151811061220657612206613798565b6020908102919091010152600101611eab565b6001600160a01b03918216600090815260016020908152604080832093909416825291909152205460ff1690565b6060600060015b6003548110156122a0576001600082815260076020526040902060010154610100900460ff16600381111561228557612285613277565b036122985781612294816137ae565b9250505b60010161224e565b506000816001600160401b038111156122bb576122bb612f26565b6040519080825280602002602001820160405280156122f457816020015b6122e1612d5c565b8152602001906001900390816122d95790505b509050600060015b600354811015610664576001600082815260076020526040902060010154610100900460ff16600381111561233357612333613277565b0361269957600081815260076020908152604091829020825160c08101909352805483526001810154909183019060ff16600381111561237557612375613277565b600381111561238657612386613277565b81526020016001820160019054906101000a900460ff1660038111156123ae576123ae613277565b60038111156123bf576123bf613277565b815260018201546201000090046001600160a01b0316602080830191909152600283018054604080518285028101850182528281529401939260009084015b828210156124e257600084815260209081902060408051606081019091526003850290910180546001600160a01b0316825260018101805492939192918401916124479061373b565b80601f01602080910402602001604051908101604052809291908181526020018280546124739061373b565b80156124c05780601f10612495576101008083540402835291602001916124c0565b820191906000526020600020905b8154815290600101906020018083116124a357829003601f168201915b50505050508152602001600282015481525050815260200190600101906123fe565b50505050815260200160038201805480602002602001604051908101604052809291908181526020016000905b8282101561266557838290600052602060002090600202016040518060400160405290816000820180546125429061373b565b80601f016020809104026020016040519081016040528092919081815260200182805461256e9061373b565b80156125bb5780601f10612590576101008083540402835291602001916125bb565b820191906000526020600020905b81548152906001019060200180831161259e57829003601f168201915b505050505081526020016001820180546125d49061373b565b80601f01602080910402602001604051908101604052809291908181526020018280546126009061373b565b801561264d5780601f106126225761010080835404028352916020019161264d565b820191906000526020600020905b81548152906001019060200180831161263057829003601f168201915b5050505050815250508152602001906001019061250f565b505050508152505083838151811061267f5761267f613798565b60200260200101819052508180612695906137ae565b9250505b6001016122fc565b336001600160a01b03861681148015906126c257506126c08682612219565b155b156126f35760405163711bec9160e11b81526001600160a01b038083166004830152871660248201526044016106bb565b6106d1868686868661285a565b6001600160a01b03841661272a57604051632bfa23e760e11b8152600060048201526024016106bb565b6001600160a01b03851661275357604051626a0d4560e21b8152600060048201526024016106bb565b61276085858585856128e8565b5050505050565b6001600160a01b03841661279157604051632bfa23e760e11b8152600060048201526024016106bb565b604080516001808252602082018690528183019081526060820185905260808201909252906106d16000878484876128e8565b6001600160a01b0382166127ed5760405162ced3e160e81b8152600060048201526024016106bb565b6001600160a01b03838116600081815260016020908152604080832094871680845294825291829020805460ff191686151590811790915591519182527f17307eab39ab6107e8899845ad3d59bd9653f200f220920489ca2b5937696c31910160405180910390a3505050565b6001600160a01b03841661288457604051632bfa23e760e11b8152600060048201526024016106bb565b6001600160a01b0385166128ad57604051626a0d4560e21b8152600060048201526024016106bb565b604080516001808252602082018690528183019081526060820185905260808201909252906128df87878484876128e8565b50505050505050565b6128f48585858561293b565b6001600160a01b03841615612760578251339060010361292d5760208481015190840151612926838989858589612b4f565b50506106d1565b6106d1818787878787612c73565b805182511461296a5781518151604051635b05999160e01b8152600481019290925260248201526044016106bb565b3360005b8351811015612a70576020818102858101820151908501909101516001600160a01b03881615612a21576000828152602081815260408083206001600160a01b038c168452909152902054818110156129fa576040516303dee4c560e01b81526001600160a01b038a1660048201526024810182905260448101839052606481018490526084016106bb565b6000838152602081815260408083206001600160a01b038d16845290915290209082900390555b6001600160a01b03871615612a66576000828152602081815260408083206001600160a01b038b16845290915281208054839290612a60908490613785565b90915550505b505060010161296e565b508251600103612af15760208301516000906020840151909150856001600160a01b0316876001600160a01b0316846001600160a01b03167fc3d58168c5ae7397731d063d5bbf3d657854427343f4c083240f7aacaa2d0f628585604051612ae2929190918252602082015260400190565b60405180910390a45050612760565b836001600160a01b0316856001600160a01b0316826001600160a01b03167f4a39dc06d4c0dbc64b70af90fd698a233a518aa5d07e595d983b8c0526c8f7fb8686604051612b409291906139ab565b60405180910390a45050505050565b6001600160a01b0384163b156106d15760405163f23a6e6160e01b81526001600160a01b0385169063f23a6e6190612b9390899089908890889088906004016139d0565b6020604051808303816000875af1925050508015612bce575060408051601f3d908101601f19168201909252612bcb91810190613a15565b60015b612c37573d808015612bfc576040519150601f19603f3d011682016040523d82523d6000602084013e612c01565b606091505b508051600003612c2f57604051632bfa23e760e11b81526001600160a01b03861660048201526024016106bb565b805181602001fd5b6001600160e01b0319811663f23a6e6160e01b146128df57604051632bfa23e760e11b81526001600160a01b03861660048201526024016106bb565b6001600160a01b0384163b156106d15760405163bc197c8160e01b81526001600160a01b0385169063bc197c8190612cb79089908990889088908890600401613a32565b6020604051808303816000875af1925050508015612cf2575060408051601f3d908101601f19168201909252612cef91810190613a15565b60015b612d20573d808015612bfc576040519150601f19603f3d011682016040523d82523d6000602084013e612c01565b6001600160e01b0319811663bc197c8160e01b146128df57604051632bfa23e760e11b81526001600160a01b03861660048201526024016106bb565b6040805160c0810190915260008082526020820190815260200160008152600060208201526060604082018190529081015290565b80356001600160a01b0381168114612da857600080fd5b919050565b60008060408385031215612dc057600080fd5b612dc983612d91565b946020939093013593505050565b6001600160e01b031981168114612ded57600080fd5b50565b600060208284031215612e0257600080fd5b8135612e0d81612dd7565b9392505050565b600060208284031215612e2657600080fd5b5035919050565b6000815180845260005b81811015612e5357602081850181015186830182015201612e37565b506000602082860101526020601f19601f83011685010191505092915050565b602081526000612e0d6020830184612e2d565b60018060a01b0381511682526000602082015160606020850152612ead6060850182612e2d565b604093840151949093019390935250919050565b6000602082016020835280845180835260408501915060408160051b86010192506020860160005b82811015612f1a57603f19878603018452612f05858351612e86565b94506020938401939190910190600101612ee9565b50929695505050505050565b634e487b7160e01b600052604160045260246000fd5b604051601f8201601f191681016001600160401b0381118282101715612f6457612f64612f26565b604052919050565b60006001600160401b03821115612f8557612f85612f26565b5060051b60200190565b600082601f830112612fa057600080fd5b8135612fb3612fae82612f6c565b612f3c565b8082825260208201915060208360051b860101925085831115612fd557600080fd5b602085015b83811015612ff2578035835260209283019201612fda565b5095945050505050565b600082601f83011261300d57600080fd5b8135602083016000806001600160401b0384111561302d5761302d612f26565b50601f8301601f191660200161304281612f3c565b91505082815285838301111561305757600080fd5b82826020830137600092810160200192909252509392505050565b600080600080600060a0868803121561308a57600080fd5b61309386612d91565b94506130a160208701612d91565b935060408601356001600160401b038111156130bc57600080fd5b6130c888828901612f8f565b93505060608601356001600160401b038111156130e457600080fd5b6130f088828901612f8f565b92505060808601356001600160401b0381111561310c57600080fd5b61311888828901612ffc565b9150509295509295909350565b6000806040838503121561313857600080fd5b8235915060208301356001600160401b0381111561315557600080fd5b61316185828601612ffc565b9150509250929050565b6000806040838503121561317e57600080fd5b82356001600160401b0381111561319457600080fd5b8301601f810185136131a557600080fd5b80356131b3612fae82612f6c565b8082825260208201915060208360051b8501019250878311156131d557600080fd5b6020840193505b828410156131fe576131ed84612d91565b8252602093840193909101906131dc565b945050505060208301356001600160401b0381111561321c57600080fd5b61316185828601612f8f565b600081518084526020840193506020830160005b8281101561325a57815186526020958601959091019060010161323c565b5093949350505050565b602081526000612e0d6020830184613228565b634e487b7160e01b600052602160045260246000fd5b60048110612ded57612ded613277565b600082825180855260208501945060208160051b8301016020850160005b8381101561331457601f1985840301885281518051604085526132e16040860182612e2d565b90506020820151915084810360208601526132fc8183612e2d565b60209a8b019a909550939093019250506001016132bb565b50909695505050505050565b600060c083018251845260208301516133388161328d565b6020850152604083015161334b8161328d565b8060408601525060018060a01b036060840151166060850152608083015160c0608086015281815180845260e08701915060e08160051b880101935060208301925060005b818110156133c15760df198886030183526133ac858551612e86565b94506020938401939290920191600101613390565b5050505060a083015184820360a08601526133dc828261329d565b95945050505050565b602081526000612e0d6020830184613320565b6000806040838503121561340b57600080fd5b61341483612d91565b915060208301356003811061342857600080fd5b809150509250929050565b6000806040838503121561344657600080fd5b50508035926020909101359150565b602081526000612e0d6020830184612e86565b602080825282518282018190526000918401906040840190835b818110156134d957835180516001600160a01b031684526020810151600381106134ae576134ae613277565b8060208601525060408101511515604085015250606083019250602084019350600181019050613482565b509095945050505050565b600080604083850312156134f757600080fd5b82356001600160401b0381111561350d57600080fd5b61351985828601612ffc565b92505060208301356001600160401b0381111561315557600080fd5b6000602082016020835280845180835260408501915060408160051b86010192506020860160005b82811015612f1a57603f19878603018452613579858351613320565b9450602093840193919091019060010161355d565b600080604083850312156135a157600080fd5b6135aa83612d91565b91506020830135801515811461342857600080fd5b600080600080608085870312156135d557600080fd5b843593506135e560208601612d91565b925060408501356001600160401b0381111561360057600080fd5b61360c87828801612ffc565b92505060608501356001600160401b0381111561362857600080fd5b61363487828801612ffc565b91505092959194509250565b60008060006060848603121561365557600080fd5b8335925060208401356001600160401b0381111561367257600080fd5b61367e86828701612ffc565b92505060408401356001600160401b0381111561369a57600080fd5b6136a686828701612ffc565b9150509250925092565b600080604083850312156136c357600080fd5b6136cc83612d91565b91506136da60208401612d91565b90509250929050565b600080600080600060a086880312156136fb57600080fd5b61370486612d91565b945061371260208701612d91565b9350604086013592506060860135915060808601356001600160401b0381111561310c57600080fd5b600181811c9082168061374f57607f821691505b6020821081036110d857634e487b7160e01b600052602260045260246000fd5b634e487b7160e01b600052601160045260246000fd5b808201808211156103715761037161376f565b634e487b7160e01b600052603260045260246000fd5b6000600182016137c0576137c061376f565b5060010190565b6020808252600c908201526b155b985d5d1a1bdc9a5e995960a21b604082015260600190565b60208082526010908201526f4163636f756e7420696e61637469766560801b604082015260600190565b601f82111561385e57806000526020600020601f840160051c8101602085101561383e5750805b601f840160051c820191505b81811015612760576000815560010161384a565b505050565b81516001600160401b0381111561387c5761387c612f26565b6138908161388a845461373b565b84613817565b6020601f8211600181146138c457600083156138ac5750848201515b600019600385901b1c1916600184901b178455612760565b600084815260208120601f198516915b828110156138f457878501518255602094850194600190920191016138d4565b50848210156139125786840151600019600387901b60f8161c191681555b50505050600190811b01905550565b818103818111156103715761037161376f565b828152604081016139448361328d565b8260208301529392505050565b6040815260006139646040830185612e2d565b82810360208401526133dc8185612e2d565b83815260606020820152600061398f6060830185612e2d565b82810360408401526139a18185612e2d565b9695505050505050565b6040815260006139be6040830185613228565b82810360208401526133dc8185613228565b6001600160a01b03868116825285166020820152604081018490526060810183905260a060808201819052600090613a0a90830184612e2d565b979650505050505050565b600060208284031215613a2757600080fd5b8151612e0d81612dd7565b6001600160a01b0386811682528516602082015260a060408201819052600090613a5e90830186613228565b8281036060840152613a708186613228565b90508281036080840152613a848185612e2d565b9897505050505050505056fea2646970667358221220c6a20b12767e7c32efb02602c016075742be2ddf3f1f9add61da1ec24eeb668464736f6c634300081c003368747470733a2f2f746f6b656e2d63646e2d646f6d61696e2f7b69647d2e6a736f6e","linkReferences":{}},"methodIdentifiers":{"addDonation(uint256,string)":"4d27dc23","addMember(address,uint8)":"62d0d1c3","balanceOf(address,uint256)":"00fdd58e","balanceOfBatch(address[],uint256[])":"4e1273f4","claimBatchForDelivery(uint256)":"a1cc2939","claimBatchForTransporter(uint256)":"98f681c8","closeBatch(uint256)":"d2c411d3","createBatch(string,string)":"92b8f021","getAllBatches()":"e80e076b","getAllBatchesWithStatusClosedReadyForTransporter()":"e9cf8c06","getAllBatchesWithStatusInTransitReadyForDelivery()":"9b340d01","getAllDonationsInAllBatches()":"17b42c77","getAllListOfMembers()":"7ef2a569","getBatch(uint256)":"5ac44282","getDonation(uint256,uint256)":"76ff7bf4","isApprovedForAll(address,address)":"e985e9c5","safeBatchTransferFrom(address,address,uint256[],uint256[],bytes)":"2eb2c2d6","safeTransferFrom(address,address,uint256,uint256,bytes)":"f242432a","setApprovalForAll(address,bool)":"a22cb465","supportsInterface(bytes4)":"01ffc9a7","transferBatch(uint256,address,string,string)":"b3641cfd","updateLocation(uint256,string,string)":"b7472885","uri(uint256)":"0e89341c"},"id":43}