{"abi":[{"type":"constructor","inputs":[],"stateMutability":"nonpayable"},{"type":"function","name":"addDonationToBatch","inputs":[{"name":"batchId","type":"uint256","internalType":"uint256"},{"name":"donationId","type":"uint256","internalType":"uint256"}],"outputs":[],"stateMutability":"nonpayable"},{"type":"function","name":"addMember","inputs":[{"name":"name","type":"string","internalType":"string"},{"name":"account","type":"address","internalType":"address"},{"name":"role","type":"uint8","internalType":"enum IDataTypes.Role"}],"outputs":[],"stateMutability":"nonpayable"},{"type":"function","name":"balanceOf","inputs":[{"name":"account","type":"address","internalType":"address"},{"name":"id","type":"uint256","internalType":"uint256"}],"outputs":[{"name":"","type":"uint256","internalType":"uint256"}],"stateMutability":"view"},{"type":"function","name":"balanceOfBatch","inputs":[{"name":"accounts","type":"address[]","internalType":"address[]"},{"name":"ids","type":"uint256[]","internalType":"uint256[]"}],"outputs":[{"name":"","type":"uint256[]","internalType":"uint256[]"}],"stateMutability":"view"},{"type":"function","name":"claimBatchForDelivery","inputs":[{"name":"batchId","type":"uint256","internalType":"uint256"}],"outputs":[],"stateMutability":"nonpayable"},{"type":"function","name":"claimBatchForTransporter","inputs":[{"name":"batchId","type":"uint256","internalType":"uint256"}],"outputs":[],"stateMutability":"nonpayable"},{"type":"function","name":"closeBatch","inputs":[{"name":"batchId","type":"uint256","internalType":"uint256"}],"outputs":[],"stateMutability":"nonpayable"},{"type":"function","name":"createBatch","inputs":[{"name":"latitude","type":"string","internalType":"string"},{"name":"longitude","type":"string","internalType":"string"}],"outputs":[],"stateMutability":"nonpayable"},{"type":"function","name":"createDonation","inputs":[{"name":"productDescription","type":"string","internalType":"string"},{"name":"donation","type":"uint8","internalType":"enum IDataTypes.DonationType"},{"name":"image","type":"string","internalType":"string"}],"outputs":[{"name":"","type":"uint256","internalType":"uint256"}],"stateMutability":"nonpayable"},{"type":"function","name":"getAllBatches","inputs":[],"outputs":[{"name":"","type":"tuple[]","internalType":"struct IDataTypes.Batch[]","components":[{"name":"id","type":"uint256","internalType":"uint256"},{"name":"destinationZone","type":"uint8","internalType":"enum IDataTypes.DistributionZones"},{"name":"status","type":"uint8","internalType":"enum IDataTypes.BatchStatus"},{"name":"currentHandler","type":"address","internalType":"address"},{"name":"donations","type":"tuple[]","internalType":"struct IDataTypes.Donation[]","components":[{"name":"donor","type":"address","internalType":"address"},{"name":"description","type":"string","internalType":"string"},{"name":"timestamp","type":"uint256","internalType":"uint256"},{"name":"donationType","type":"uint8","internalType":"enum IDataTypes.DonationType"},{"name":"imageUrl","type":"string","internalType":"string"}]},{"name":"locations","type":"tuple[]","internalType":"struct IDataTypes.Location[]","components":[{"name":"latitude","type":"string","internalType":"string"},{"name":"longitude","type":"string","internalType":"string"}]}]}],"stateMutability":"view"},{"type":"function","name":"getAllBatchesInTransitAndDelivery","inputs":[],"outputs":[{"name":"","type":"tuple[]","internalType":"struct IDataTypes.Batch[]","components":[{"name":"id","type":"uint256","internalType":"uint256"},{"name":"destinationZone","type":"uint8","internalType":"enum IDataTypes.DistributionZones"},{"name":"status","type":"uint8","internalType":"enum IDataTypes.BatchStatus"},{"name":"currentHandler","type":"address","internalType":"address"},{"name":"donations","type":"tuple[]","internalType":"struct IDataTypes.Donation[]","components":[{"name":"donor","type":"address","internalType":"address"},{"name":"description","type":"string","internalType":"string"},{"name":"timestamp","type":"uint256","internalType":"uint256"},{"name":"donationType","type":"uint8","internalType":"enum IDataTypes.DonationType"},{"name":"imageUrl","type":"string","internalType":"string"}]},{"name":"locations","type":"tuple[]","internalType":"struct IDataTypes.Location[]","components":[{"name":"latitude","type":"string","internalType":"string"},{"name":"longitude","type":"string","internalType":"string"}]}]}],"stateMutability":"view"},{"type":"function","name":"getAllBatchesWithStatusClosedReadyForTransporter","inputs":[],"outputs":[{"name":"","type":"tuple[]","internalType":"struct IDataTypes.Batch[]","components":[{"name":"id","type":"uint256","internalType":"uint256"},{"name":"destinationZone","type":"uint8","internalType":"enum IDataTypes.DistributionZones"},{"name":"status","type":"uint8","internalType":"enum IDataTypes.BatchStatus"},{"name":"currentHandler","type":"address","internalType":"address"},{"name":"donations","type":"tuple[]","internalType":"struct IDataTypes.Donation[]","components":[{"name":"donor","type":"address","internalType":"address"},{"name":"description","type":"string","internalType":"string"},{"name":"timestamp","type":"uint256","internalType":"uint256"},{"name":"donationType","type":"uint8","internalType":"enum IDataTypes.DonationType"},{"name":"imageUrl","type":"string","internalType":"string"}]},{"name":"locations","type":"tuple[]","internalType":"struct IDataTypes.Location[]","components":[{"name":"latitude","type":"string","internalType":"string"},{"name":"longitude","type":"string","internalType":"string"}]}]}],"stateMutability":"view"},{"type":"function","name":"getAllBatchesWithStatusDeliveryReadyForDeliveryOut","inputs":[],"outputs":[{"name":"","type":"tuple[]","internalType":"struct IDataTypes.Batch[]","components":[{"name":"id","type":"uint256","internalType":"uint256"},{"name":"destinationZone","type":"uint8","internalType":"enum IDataTypes.DistributionZones"},{"name":"status","type":"uint8","internalType":"enum IDataTypes.BatchStatus"},{"name":"currentHandler","type":"address","internalType":"address"},{"name":"donations","type":"tuple[]","internalType":"struct IDataTypes.Donation[]","components":[{"name":"donor","type":"address","internalType":"address"},{"name":"description","type":"string","internalType":"string"},{"name":"timestamp","type":"uint256","internalType":"uint256"},{"name":"donationType","type":"uint8","internalType":"enum IDataTypes.DonationType"},{"name":"imageUrl","type":"string","internalType":"string"}]},{"name":"locations","type":"tuple[]","internalType":"struct IDataTypes.Location[]","components":[{"name":"latitude","type":"string","internalType":"string"},{"name":"longitude","type":"string","internalType":"string"}]}]}],"stateMutability":"view"},{"type":"function","name":"getAllBatchesWithStatusInTransitReadyForDeliveryIn","inputs":[],"outputs":[{"name":"","type":"tuple[]","internalType":"struct IDataTypes.Batch[]","components":[{"name":"id","type":"uint256","internalType":"uint256"},{"name":"destinationZone","type":"uint8","internalType":"enum IDataTypes.DistributionZones"},{"name":"status","type":"uint8","internalType":"enum IDataTypes.BatchStatus"},{"name":"currentHandler","type":"address","internalType":"address"},{"name":"donations","type":"tuple[]","internalType":"struct IDataTypes.Donation[]","components":[{"name":"donor","type":"address","internalType":"address"},{"name":"description","type":"string","internalType":"string"},{"name":"timestamp","type":"uint256","internalType":"uint256"},{"name":"donationType","type":"uint8","internalType":"enum IDataTypes.DonationType"},{"name":"imageUrl","type":"string","internalType":"string"}]},{"name":"locations","type":"tuple[]","internalType":"struct IDataTypes.Location[]","components":[{"name":"latitude","type":"string","internalType":"string"},{"name":"longitude","type":"string","internalType":"string"}]}]}],"stateMutability":"view"},{"type":"function","name":"getAllDonations","inputs":[],"outputs":[{"name":"","type":"tuple[]","internalType":"struct IDataTypes.Donation[]","components":[{"name":"donor","type":"address","internalType":"address"},{"name":"description","type":"string","internalType":"string"},{"name":"timestamp","type":"uint256","internalType":"uint256"},{"name":"donationType","type":"uint8","internalType":"enum IDataTypes.DonationType"},{"name":"imageUrl","type":"string","internalType":"string"}]}],"stateMutability":"view"},{"type":"function","name":"getAllDonationsInAllBatches","inputs":[],"outputs":[{"name":"","type":"tuple[]","internalType":"struct IDataTypes.Donation[]","components":[{"name":"donor","type":"address","internalType":"address"},{"name":"description","type":"string","internalType":"string"},{"name":"timestamp","type":"uint256","internalType":"uint256"},{"name":"donationType","type":"uint8","internalType":"enum IDataTypes.DonationType"},{"name":"imageUrl","type":"string","internalType":"string"}]}],"stateMutability":"view"},{"type":"function","name":"getAllListOfMembers","inputs":[],"outputs":[{"name":"","type":"tuple[]","internalType":"struct IDataTypes.Members[]","components":[{"name":"name","type":"string","internalType":"string"},{"name":"account","type":"address","internalType":"address"},{"name":"role","type":"uint8","internalType":"enum IDataTypes.Role"},{"name":"isActive","type":"bool","internalType":"bool"}]}],"stateMutability":"view"},{"type":"function","name":"getBatch","inputs":[{"name":"batchId","type":"uint256","internalType":"uint256"}],"outputs":[{"name":"","type":"tuple","internalType":"struct IDataTypes.Batch","components":[{"name":"id","type":"uint256","internalType":"uint256"},{"name":"destinationZone","type":"uint8","internalType":"enum IDataTypes.DistributionZones"},{"name":"status","type":"uint8","internalType":"enum IDataTypes.BatchStatus"},{"name":"currentHandler","type":"address","internalType":"address"},{"name":"donations","type":"tuple[]","internalType":"struct IDataTypes.Donation[]","components":[{"name":"donor","type":"address","internalType":"address"},{"name":"description","type":"string","internalType":"string"},{"name":"timestamp","type":"uint256","internalType":"uint256"},{"name":"donationType","type":"uint8","internalType":"enum IDataTypes.DonationType"},{"name":"imageUrl","type":"string","internalType":"string"}]},{"name":"locations","type":"tuple[]","internalType":"struct IDataTypes.Location[]","components":[{"name":"latitude","type":"string","internalType":"string"},{"name":"longitude","type":"string","internalType":"string"}]}]}],"stateMutability":"view"},{"type":"function","name":"getDonation","inputs":[{"name":"batchId","type":"uint256","internalType":"uint256"},{"name":"index","type":"uint256","internalType":"uint256"}],"outputs":[{"name":"","type":"tuple","internalType":"struct IDataTypes.Donation","components":[{"name":"donor","type":"address","internalType":"address"},{"name":"description","type":"string","internalType":"string"},{"name":"timestamp","type":"uint256","internalType":"uint256"},{"name":"donationType","type":"uint8","internalType":"enum IDataTypes.DonationType"},{"name":"imageUrl","type":"string","internalType":"string"}]}],"stateMutability":"view"},{"type":"function","name":"isApprovedForAll","inputs":[{"name":"account","type":"address","internalType":"address"},{"name":"operator","type":"address","internalType":"address"}],"outputs":[{"name":"","type":"bool","internalType":"bool"}],"stateMutability":"view"},{"type":"function","name":"safeBatchTransferFrom","inputs":[{"name":"from","type":"address","internalType":"address"},{"name":"to","type":"address","internalType":"address"},{"name":"ids","type":"uint256[]","internalType":"uint256[]"},{"name":"values","type":"uint256[]","internalType":"uint256[]"},{"name":"data","type":"bytes","internalType":"bytes"}],"outputs":[],"stateMutability":"nonpayable"},{"type":"function","name":"safeTransferFrom","inputs":[{"name":"from","type":"address","internalType":"address"},{"name":"to","type":"address","internalType":"address"},{"name":"id","type":"uint256","internalType":"uint256"},{"name":"value","type":"uint256","internalType":"uint256"},{"name":"data","type":"bytes","internalType":"bytes"}],"outputs":[],"stateMutability":"nonpayable"},{"type":"function","name":"setApprovalForAll","inputs":[{"name":"operator","type":"address","internalType":"address"},{"name":"approved","type":"bool","internalType":"bool"}],"outputs":[],"stateMutability":"nonpayable"},{"type":"function","name":"supportsInterface","inputs":[{"name":"interfaceId","type":"bytes4","internalType":"bytes4"}],"outputs":[{"name":"","type":"bool","internalType":"bool"}],"stateMutability":"view"},{"type":"function","name":"transferBatch","inputs":[{"name":"batchId","type":"uint256","internalType":"uint256"},{"name":"newHandler","type":"address","internalType":"address"},{"name":"latitude","type":"string","internalType":"string"},{"name":"longitude","type":"string","internalType":"string"}],"outputs":[],"stateMutability":"nonpayable"},{"type":"function","name":"updateLocation","inputs":[{"name":"batchId","type":"uint256","internalType":"uint256"},{"name":"latitude","type":"string","internalType":"string"},{"name":"longitude","type":"string","internalType":"string"}],"outputs":[],"stateMutability":"nonpayable"},{"type":"function","name":"uri","inputs":[{"name":"","type":"uint256","internalType":"uint256"}],"outputs":[{"name":"","type":"string","internalType":"string"}],"stateMutability":"view"},{"type":"event","name":"ApprovalForAll","inputs":[{"name":"account","type":"address","indexed":true,"internalType":"address"},{"name":"operator","type":"address","indexed":true,"internalType":"address"},{"name":"approved","type":"bool","indexed":false,"internalType":"bool"}],"anonymous":false},{"type":"event","name":"BatchClaimed","inputs":[{"name":"batchId","type":"uint256","indexed":false,"internalType":"uint256"},{"name":"status","type":"uint8","indexed":false,"internalType":"enum IDataTypes.BatchStatus"}],"anonymous":false},{"type":"event","name":"BatchClosed","inputs":[{"name":"batchId","type":"uint256","indexed":false,"internalType":"uint256"}],"anonymous":false},{"type":"event","name":"BatchCreated","inputs":[{"name":"batchId","type":"uint256","indexed":false,"internalType":"uint256"},{"name":"currentHandler","type":"address","indexed":false,"internalType":"address"}],"anonymous":false},{"type":"event","name":"BatchTransferred","inputs":[{"name":"batchId","type":"uint256","indexed":true,"internalType":"uint256"},{"name":"newHandler","type":"address","indexed":true,"internalType":"address"},{"name":"latitude","type":"string","indexed":false,"internalType":"string"},{"name":"longitude","type":"string","indexed":false,"internalType":"string"}],"anonymous":false},{"type":"event","name":"DistributionZoneUpdated","inputs":[{"name":"batchId","type":"uint256","indexed":false,"internalType":"uint256"},{"name":"destinationZone","type":"uint8","indexed":false,"internalType":"enum IDataTypes.DistributionZones"}],"anonymous":false},{"type":"event","name":"DonationCreated","inputs":[{"name":"donationId","type":"uint256","indexed":false,"internalType":"uint256"},{"name":"donor","type":"address","indexed":false,"internalType":"address"}],"anonymous":false},{"type":"event","name":"LocationUpdated","inputs":[{"name":"batchId","type":"uint256","indexed":false,"internalType":"uint256"},{"name":"latitude","type":"string","indexed":false,"internalType":"string"},{"name":"longitude","type":"string","indexed":false,"internalType":"string"}],"anonymous":false},{"type":"event","name":"ProductAdded","inputs":[{"name":"batchId","type":"uint256","indexed":false,"internalType":"uint256"},{"name":"productIndex","type":"uint256","indexed":false,"internalType":"uint256"},{"name":"donor","type":"address","indexed":false,"internalType":"address"}],"anonymous":false},{"type":"event","name":"TransferBatch","inputs":[{"name":"operator","type":"address","indexed":true,"internalType":"address"},{"name":"from","type":"address","indexed":true,"internalType":"address"},{"name":"to","type":"address","indexed":true,"internalType":"address"},{"name":"ids","type":"uint256[]","indexed":false,"internalType":"uint256[]"},{"name":"values","type":"uint256[]","indexed":false,"internalType":"uint256[]"}],"anonymous":false},{"type":"event","name":"TransferSingle","inputs":[{"name":"operator","type":"address","indexed":true,"internalType":"address"},{"name":"from","type":"address","indexed":true,"internalType":"address"},{"name":"to","type":"address","indexed":true,"internalType":"address"},{"name":"id","type":"uint256","indexed":false,"internalType":"uint256"},{"name":"value","type":"uint256","indexed":false,"internalType":"uint256"}],"anonymous":false},{"type":"event","name":"URI","inputs":[{"name":"value","type":"string","indexed":false,"internalType":"string"},{"name":"id","type":"uint256","indexed":true,"internalType":"uint256"}],"anonymous":false},{"type":"error","name":"ERC1155InsufficientBalance","inputs":[{"name":"sender","type":"address","internalType":"address"},{"name":"balance","type":"uint256","internalType":"uint256"},{"name":"needed","type":"uint256","internalType":"uint256"},{"name":"tokenId","type":"uint256","internalType":"uint256"}]},{"type":"error","name":"ERC1155InvalidApprover","inputs":[{"name":"approver","type":"address","internalType":"address"}]},{"type":"error","name":"ERC1155InvalidArrayLength","inputs":[{"name":"idsLength","type":"uint256","internalType":"uint256"},{"name":"valuesLength","type":"uint256","internalType":"uint256"}]},{"type":"error","name":"ERC1155InvalidOperator","inputs":[{"name":"operator","type":"address","internalType":"address"}]},{"type":"error","name":"ERC1155InvalidReceiver","inputs":[{"name":"receiver","type":"address","internalType":"address"}]},{"type":"error","name":"ERC1155InvalidSender","inputs":[{"name":"sender","type":"address","internalType":"address"}]},{"type":"error","name":"ERC1155MissingApprovalForAll","inputs":[{"name":"operator","type":"address","internalType":"address"},{"name":"owner","type":"address","internalType":"address"}]}],"bytecode":{"object":"0x608060405260016003555f600455600160055534801561001d575f80fd5b5060405180606001604052806022815260200161562960229139610040816101dd565b506040805160c081018252600d608082019081526c20b236b4b734b9ba3930ba37b960991b60a083015281523360208201529081015f81526001602091820152335f9081526006909152604090208151819061009c9082610299565b5060208201516001820180546001600160a01b039092166001600160a01b03198316811782556040850151926001600160a81b03191617600160a01b8360028111156100ea576100ea6101ed565b02179055506060919091015160019091018054911515600160a81b0260ff60a81b19909216919091179055335f908152600660209081526040808320600454845260079092529091208061013e8382610356565b506001828101805491830180546001600160a01b031981166001600160a01b039094169384178255915460ff600160a01b91829004169391926001600160a81b03191690911790836002811115610197576101976101ed565b02179055506001918201549101805460ff60a81b1916600160a81b9283900460ff16151590920291909117905560048054905f6101d383610422565b9190505550610446565b60026101e98282610299565b5050565b634e487b7160e01b5f52602160045260245ffd5b634e487b7160e01b5f52604160045260245ffd5b600181811c9082168061022957607f821691505b60208210810361024757634e487b7160e01b5f52602260045260245ffd5b50919050565b601f82111561029457805f5260205f20601f840160051c810160208510156102725750805b601f840160051c820191505b81811015610291575f815560010161027e565b50505b505050565b81516001600160401b038111156102b2576102b2610201565b6102c6816102c08454610215565b8461024d565b6020601f8211600181146102fb575f83156102e15750848201515b600184901b5f19600386901b1c198216175b855550610291565b5f84815260208120601f198516915b8281101561032a578785015182556020948501946001909201910161030a565b508482101561034757868401515f19600387901b60f8161c191681555b50505050600190811b01905550565b818103610361575050565b61036b8254610215565b6001600160401b0381111561038257610382610201565b610390816102c08454610215565b5f601f8211600181146103bf575f83156102e1575081850154600184901b5f19600386901b1c198216176102f3565b5f8581526020808220868352908220601f198616925b838110156103f557828601548255600195860195909101906020016103d5565b508583101561041257818501545f19600388901b60f8161c191681555b5050505050600190811b01905550565b5f6001820161043f57634e487b7160e01b5f52601160045260245ffd5b5060010190565b6151d6806104535f395ff3fe608060405234801561000f575f80fd5b50600436106101a0575f3560e01c80637ce8dc78116100f3578063b747288511610093578063e80e076b1161006e578063e80e076b14610397578063e985e9c51461039f578063e9cf8c06146103b2578063f242432a146103ba575f80fd5b8063b74728851461035e578063bd99c34414610371578063d2c411d314610384575f80fd5b806398f681c8116100ce57806398f681c814610312578063a1cc293914610325578063a22cb46514610338578063b3641cfd1461034b575f80fd5b80637ce8dc78146102d75780637ef2a569146102ea57806392b8f021146102ff575f80fd5b80632eb2c2d61161015e5780635ac44282116101395780635ac442821461027c578063718966cf1461029c57806376ff7bf4146102af5780637a692ba2146102cf575f80fd5b80632eb2c2d61461023f57806338a59a07146102545780634e1273f41461025c575f80fd5b8062fdd58e146101a457806301ffc9a7146101ca5780630e89341c146101ed57806317b42c771461020d5780632597881b146102225780632e0fabaf14610237575b5f80fd5b6101b76101b23660046143ab565b6103cd565b6040519081526020015b60405180910390f35b6101dd6101d83660046143eb565b6103f4565b60405190151581526020016101c1565b6102006101fb36600461440d565b610443565b6040516101c19190614452565b6102156104d5565b6040516101c191906144ef565b61022a61077b565b6040516101c1919061469d565b61022a610c86565b61025261024d366004614835565b6111fb565b005b610215611267565b61026f61026a3660046148e1565b61156e565b6040516101c191906149dc565b61028f61028a36600461440d565b611638565b6040516101c191906149ee565b6102526102aa366004614a00565b611a31565b6102c26102bd366004614a00565b611cf7565b6040516101c19190614a20565b61022a611eb5565b6102526102e5366004614a3e565b6123c0565b6102f26125f0565b6040516101c19190614a9b565b61025261030d366004614b30565b6127bc565b61025261032036600461440d565b612929565b61025261033336600461440d565b612a87565b610252610346366004614b89565b612bdd565b610252610359366004614bc2565b612bec565b61025261036c366004614c3e565b612e1f565b6101b761037f366004614ca9565b612f85565b61025261039236600461440d565b613166565b61022a6132ab565b6101dd6103ad366004614d07565b613737565b61022a613764565b6102526103c8366004614d38565b613c6f565b5f818152602081815260408083206001600160a01b03861684529091529020545b92915050565b5f6001600160e01b03198216636cdb3d1360e11b148061042457506001600160e01b031982166303a24d0760e21b145b806103ee57506301ffc9a760e01b6001600160e01b03198316146103ee565b60606002805461045290614d8b565b80601f016020809104026020016040519081016040528092919081815260200182805461047e90614d8b565b80156104c95780601f106104a0576101008083540402835291602001916104c9565b820191905f5260205f20905b8154815290600101906020018083116104ac57829003601f168201915b50505050509050919050565b60605f60015b60035481101561050a575f818152600860205260409020600201546105009083614dd7565b91506001016104db565b505f816001600160401b03811115610524576105246146f4565b60405190808252806020026020018201604052801561055d57816020015b61054a614318565b8152602001906001900390816105425790505b5090505f60015b600354811015610772575f5b5f82815260086020526040902060020154811015610769575f8281526008602052604090206002018054829081106105aa576105aa614dea565b5f9182526020918290206040805160a0810190915260059092020180546001600160a01b0316825260018101805492939192918401916105e990614d8b565b80601f016020809104026020016040519081016040528092919081815260200182805461061590614d8b565b80156106605780601f1061063757610100808354040283529160200191610660565b820191905f5260205f20905b81548152906001019060200180831161064357829003601f168201915b50505091835250506002828101546020830152600383015460409092019160ff169081111561069157610691614464565b60028111156106a2576106a2614464565b81526020016004820180546106b690614d8b565b80601f01602080910402602001604051908101604052809291908181526020018280546106e290614d8b565b801561072d5780601f106107045761010080835404028352916020019161072d565b820191905f5260205f20905b81548152906001019060200180831161071057829003601f168201915b50505050508152505084848151811061074857610748614dea565b6020026020010181905250828061075e90614dfe565b935050600101610570565b50600101610564565b50909392505050565b60605f60015b6003548110156107d25760035f82815260086020526040902060010154610100900460ff1660038111156107b7576107b7614464565b036107ca57816107c681614dfe565b9250505b600101610781565b505f816001600160401b038111156107ec576107ec6146f4565b60405190808252806020026020018201604052801561082557816020015b61081261435e565b81526020019060019003908161080a5790505b5090505f60015b6003548110156107725760035f82815260086020526040902060010154610100900460ff16600381111561086257610862614464565b03610c7e575f81815260086020908152604091829020825160c08101909352805483526001810154909183019060ff1660038111156108a3576108a3614464565b60038111156108b4576108b4614464565b81526020016001820160019054906101000a900460ff1660038111156108dc576108dc614464565b60038111156108ed576108ed614464565b815260018201546201000090046001600160a01b031660208083019190915260028301805460408051828502810185018252828152940193925f9084015b82821015610acf575f8481526020908190206040805160a081019091526005850290910180546001600160a01b03168252600181018054929391929184019161097390614d8b565b80601f016020809104026020016040519081016040528092919081815260200182805461099f90614d8b565b80156109ea5780601f106109c1576101008083540402835291602001916109ea565b820191905f5260205f20905b8154815290600101906020018083116109cd57829003601f168201915b50505091835250506002828101546020830152600383015460409092019160ff1690811115610a1b57610a1b614464565b6002811115610a2c57610a2c614464565b8152602001600482018054610a4090614d8b565b80601f0160208091040260200160405190810160405280929190818152602001828054610a6c90614d8b565b8015610ab75780601f10610a8e57610100808354040283529160200191610ab7565b820191905f5260205f20905b815481529060010190602001808311610a9a57829003601f168201915b5050505050815250508152602001906001019061092b565b50505050815260200160038201805480602002602001604051908101604052809291908181526020015f905b82821015610c4a578382905f5260205f2090600202016040518060400160405290815f82018054610b2b90614d8b565b80601f0160208091040260200160405190810160405280929190818152602001828054610b5790614d8b565b8015610ba25780601f10610b7957610100808354040283529160200191610ba2565b820191905f5260205f20905b815481529060010190602001808311610b8557829003601f168201915b50505050508152602001600182018054610bbb90614d8b565b80601f0160208091040260200160405190810160405280929190818152602001828054610be790614d8b565b8015610c325780601f10610c0957610100808354040283529160200191610c32565b820191905f5260205f20905b815481529060010190602001808311610c1557829003601f168201915b50505050508152505081526020019060010190610afb565b5050505081525050838381518110610c6457610c64614dea565b60200260200101819052508180610c7a90614dfe565b9250505b60010161082c565b60605f60015b600354811015610d125760025f82815260086020526040902060010154610100900460ff166003811115610cc257610cc2614464565b1480610cf7575060035f82815260086020526040902060010154610100900460ff166003811115610cf557610cf5614464565b145b15610d0a5781610d0681614dfe565b9250505b600101610c8c565b505f816001600160401b03811115610d2c57610d2c6146f4565b604051908082528060200260200182016040528015610d6557816020015b610d5261435e565b815260200190600190039081610d4a5790505b5090505f60015b6003548110156107725760025f82815260086020526040902060010154610100900460ff166003811115610da257610da2614464565b1480610dd7575060035f82815260086020526040902060010154610100900460ff166003811115610dd557610dd5614464565b145b156111f3575f81815260086020908152604091829020825160c08101909352805483526001810154909183019060ff166003811115610e1857610e18614464565b6003811115610e2957610e29614464565b81526020016001820160019054906101000a900460ff166003811115610e5157610e51614464565b6003811115610e6257610e62614464565b815260018201546201000090046001600160a01b031660208083019190915260028301805460408051828502810185018252828152940193925f9084015b82821015611044575f8481526020908190206040805160a081019091526005850290910180546001600160a01b031682526001810180549293919291840191610ee890614d8b565b80601f0160208091040260200160405190810160405280929190818152602001828054610f1490614d8b565b8015610f5f5780601f10610f3657610100808354040283529160200191610f5f565b820191905f5260205f20905b815481529060010190602001808311610f4257829003601f168201915b50505091835250506002828101546020830152600383015460409092019160ff1690811115610f9057610f90614464565b6002811115610fa157610fa1614464565b8152602001600482018054610fb590614d8b565b80601f0160208091040260200160405190810160405280929190818152602001828054610fe190614d8b565b801561102c5780601f106110035761010080835404028352916020019161102c565b820191905f5260205f20905b81548152906001019060200180831161100f57829003601f168201915b50505050508152505081526020019060010190610ea0565b50505050815260200160038201805480602002602001604051908101604052809291908181526020015f905b828210156111bf578382905f5260205f2090600202016040518060400160405290815f820180546110a090614d8b565b80601f01602080910402602001604051908101604052809291908181526020018280546110cc90614d8b565b80156111175780601f106110ee57610100808354040283529160200191611117565b820191905f5260205f20905b8154815290600101906020018083116110fa57829003601f168201915b5050505050815260200160018201805461113090614d8b565b80601f016020809104026020016040519081016040528092919081815260200182805461115c90614d8b565b80156111a75780601f1061117e576101008083540402835291602001916111a7565b820191905f5260205f20905b81548152906001019060200180831161118a57829003601f168201915b50505050508152505081526020019060010190611070565b50505050815250508383815181106111d9576111d9614dea565b602002602001018190525081806111ef90614dfe565b9250505b600101610d6c565b336001600160a01b038616811480159061121c575061121a8682613737565b155b156112525760405163711bec9160e11b81526001600160a01b038083166004830152871660248201526044015b60405180910390fd5b61125f8686868686613cce565b505050505050565b60605f335f90815260066020526040902060010154600160a01b900460ff16600281111561129757611297614464565b14806112cf57506002335f90815260066020526040902060010154600160a01b900460ff1660028111156112cd576112cd614464565b145b80156112f35750335f90815260066020526040902060010154600160a81b900460ff165b61133f5760405162461bcd60e51b815260206004820152601e60248201527f4f6e6c792061646d696e206f7220646f6e6f722063616e2061636365737300006044820152606401611249565b5f600160055461134f9190614e16565b6001600160401b03811115611366576113666146f4565b60405190808252806020026020018201604052801561139f57816020015b61138c614318565b8152602001906001900390816113845790505b50905060015b600554811015611568575f81815260096020908152604091829020825160a0810190935280546001600160a01b0316835260018101805491928401916113ea90614d8b565b80601f016020809104026020016040519081016040528092919081815260200182805461141690614d8b565b80156114615780601f1061143857610100808354040283529160200191611461565b820191905f5260205f20905b81548152906001019060200180831161144457829003601f168201915b50505091835250506002828101546020830152600383015460409092019160ff169081111561149257611492614464565b60028111156114a3576114a3614464565b81526020016004820180546114b790614d8b565b80601f01602080910402602001604051908101604052809291908181526020018280546114e390614d8b565b801561152e5780601f106115055761010080835404028352916020019161152e565b820191905f5260205f20905b81548152906001019060200180831161151157829003601f168201915b505050505081525050826001836115459190614e16565b8151811061155557611555614dea565b60209081029190910101526001016113a5565b50905090565b6060815183511461159f5781518351604051635b05999160e01b815260048101929092526024820152604401611249565b5f83516001600160401b038111156115b9576115b96146f4565b6040519080825280602002602001820160405280156115e2578160200160208202803683370190505b5090505f5b84518110156116305760208082028601015161160b906020808402870101516103cd565b82828151811061161d5761161d614dea565b60209081029190910101526001016115e7565b509392505050565b61164061435e565b5f82815260086020908152604091829020825160c08101909352805483526001810154909183019060ff16600381111561167c5761167c614464565b600381111561168d5761168d614464565b81526020016001820160019054906101000a900460ff1660038111156116b5576116b5614464565b60038111156116c6576116c6614464565b815260018201546201000090046001600160a01b031660208083019190915260028301805460408051828502810185018252828152940193925f9084015b828210156118a8575f8481526020908190206040805160a081019091526005850290910180546001600160a01b03168252600181018054929391929184019161174c90614d8b565b80601f016020809104026020016040519081016040528092919081815260200182805461177890614d8b565b80156117c35780601f1061179a576101008083540402835291602001916117c3565b820191905f5260205f20905b8154815290600101906020018083116117a657829003601f168201915b50505091835250506002828101546020830152600383015460409092019160ff16908111156117f4576117f4614464565b600281111561180557611805614464565b815260200160048201805461181990614d8b565b80601f016020809104026020016040519081016040528092919081815260200182805461184590614d8b565b80156118905780601f1061186757610100808354040283529160200191611890565b820191905f5260205f20905b81548152906001019060200180831161187357829003601f168201915b50505050508152505081526020019060010190611704565b50505050815260200160038201805480602002602001604051908101604052809291908181526020015f905b82821015611a23578382905f5260205f2090600202016040518060400160405290815f8201805461190490614d8b565b80601f016020809104026020016040519081016040528092919081815260200182805461193090614d8b565b801561197b5780601f106119525761010080835404028352916020019161197b565b820191905f5260205f20905b81548152906001019060200180831161195e57829003601f168201915b5050505050815260200160018201805461199490614d8b565b80601f01602080910402602001604051908101604052809291908181526020018280546119c090614d8b565b8015611a0b5780601f106119e257610100808354040283529160200191611a0b565b820191905f5260205f20905b8154815290600101906020018083116119ee57829003601f168201915b505050505081525050815260200190600101906118d4565b505050915250909392505050565b5f80335f90815260066020526040902060010154600160a01b900460ff166002811115611a6057611a60614464565b14611a7d5760405162461bcd60e51b815260040161124990614e29565b335f90815260066020526040902060010154600160a81b900460ff16611ab55760405162461bcd60e51b815260040161124990614e4f565b5f8084815260086020526040902060010154610100900460ff166003811115611ae057611ae0614464565b14611b1e5760405162461bcd60e51b815260206004820152600e60248201526d2130ba31b4103737ba1037b832b760911b6044820152606401611249565b5f828152600b602052604090205460ff1615611b7c5760405162461bcd60e51b815260206004820152601960248201527f446f6e6174696f6e20616c72656164792061737369676e6564000000000000006044820152606401611249565b5f83815260086020526040902060020154600511611bcc5760405162461bcd60e51b815260206004820152600d60248201526c10985d18da081a5cc8199d5b1b609a1b6044820152606401611249565b5f82815260096020526040902080546001600160a01b0316611c305760405162461bcd60e51b815260206004820152601760248201527f446f6e6174696f6e20646f6573206e6f742065786973740000000000000000006044820152606401611249565b5f848152600860209081526040822060020180546001818101835591845291909220835460059092020180546001600160a01b0319166001600160a01b03909216919091178155829181810190611c8990840182614ec2565b5060028281015482820155600380840154908301805460ff90921692909160ff1916906001908490811115611cc057611cc0614464565b0217905550600481810190611cd790840182614ec2565b5050505f9283525050600b60205260409020805460ff1916600117905550565b611cff614318565b5f838152600860205260409020600201805483908110611d2157611d21614dea565b5f9182526020918290206040805160a0810190915260059092020180546001600160a01b031682526001810180549293919291840191611d6090614d8b565b80601f0160208091040260200160405190810160405280929190818152602001828054611d8c90614d8b565b8015611dd75780601f10611dae57610100808354040283529160200191611dd7565b820191905f5260205f20905b815481529060010190602001808311611dba57829003601f168201915b50505091835250506002828101546020830152600383015460409092019160ff1690811115611e0857611e08614464565b6002811115611e1957611e19614464565b8152602001600482018054611e2d90614d8b565b80601f0160208091040260200160405190810160405280929190818152602001828054611e5990614d8b565b8015611ea45780601f10611e7b57610100808354040283529160200191611ea4565b820191905f5260205f20905b815481529060010190602001808311611e8757829003601f168201915b505050505081525050905092915050565b60605f60015b600354811015611f0c5760025f82815260086020526040902060010154610100900460ff166003811115611ef157611ef1614464565b03611f045781611f0081614dfe565b9250505b600101611ebb565b505f816001600160401b03811115611f2657611f266146f4565b604051908082528060200260200182016040528015611f5f57816020015b611f4c61435e565b815260200190600190039081611f445790505b5090505f60015b6003548110156107725760025f82815260086020526040902060010154610100900460ff166003811115611f9c57611f9c614464565b036123b8575f81815260086020908152604091829020825160c08101909352805483526001810154909183019060ff166003811115611fdd57611fdd614464565b6003811115611fee57611fee614464565b81526020016001820160019054906101000a900460ff16600381111561201657612016614464565b600381111561202757612027614464565b815260018201546201000090046001600160a01b031660208083019190915260028301805460408051828502810185018252828152940193925f9084015b82821015612209575f8481526020908190206040805160a081019091526005850290910180546001600160a01b0316825260018101805492939192918401916120ad90614d8b565b80601f01602080910402602001604051908101604052809291908181526020018280546120d990614d8b565b80156121245780601f106120fb57610100808354040283529160200191612124565b820191905f5260205f20905b81548152906001019060200180831161210757829003601f168201915b50505091835250506002828101546020830152600383015460409092019160ff169081111561215557612155614464565b600281111561216657612166614464565b815260200160048201805461217a90614d8b565b80601f01602080910402602001604051908101604052809291908181526020018280546121a690614d8b565b80156121f15780601f106121c8576101008083540402835291602001916121f1565b820191905f5260205f20905b8154815290600101906020018083116121d457829003601f168201915b50505050508152505081526020019060010190612065565b50505050815260200160038201805480602002602001604051908101604052809291908181526020015f905b82821015612384578382905f5260205f2090600202016040518060400160405290815f8201805461226590614d8b565b80601f016020809104026020016040519081016040528092919081815260200182805461229190614d8b565b80156122dc5780601f106122b3576101008083540402835291602001916122dc565b820191905f5260205f20905b8154815290600101906020018083116122bf57829003601f168201915b505050505081526020016001820180546122f590614d8b565b80601f016020809104026020016040519081016040528092919081815260200182805461232190614d8b565b801561236c5780601f106123435761010080835404028352916020019161236c565b820191905f5260205f20905b81548152906001019060200180831161234f57829003601f168201915b50505050508152505081526020019060010190612235565b505050508152505083838151811061239e5761239e614dea565b602002602001018190525081806123b490614dfe565b9250505b600101611f66565b5f80335f90815260066020526040902060010154600160a01b900460ff1660028111156123ef576123ef614464565b1461240c5760405162461bcd60e51b815260040161124990614e29565b335f90815260066020526040902060010154600160a81b900460ff166124445760405162461bcd60e51b815260040161124990614e4f565b6040518060800160405280858152602001846001600160a01b0316815260200183600281111561247657612476614464565b815260016020918201526001600160a01b0385165f908152600690915260409020815181906124a59082614f99565b5060208201516001820180546001600160a01b039092166001600160a01b03198316811782556040850151926001600160a81b03191617600160a01b8360028111156124f3576124f3614464565b02179055506060919091015160019091018054911515600160a81b0260ff60a81b199092169190911790556001600160a01b0383165f90815260066020908152604080832060045484526007909252909120806125508382614ec2565b506001828101805491830180546001600160a01b031981166001600160a01b039094169384178255915460ff600160a01b91829004169391926001600160a81b031916909117908360028111156125a9576125a9614464565b02179055506001918201549101805460ff60a81b1916600160a81b9283900460ff16151590920291909117905560048054905f6125e583614dfe565b919050555050505050565b60605f6004546001600160401b0381111561260d5761260d6146f4565b60405190808252806020026020018201604052801561265e57816020015b6040805160808101825260608082525f60208084018290529383018190529082015282525f1990920191018161262b5790505b5090505f5b600454811015611568575f81815260076020526040902060010154600160a81b900460ff16156127b4575f81815260076020526040908190208151608081019092528054829082906126b490614d8b565b80601f01602080910402602001604051908101604052809291908181526020018280546126e090614d8b565b801561272b5780601f106127025761010080835404028352916020019161272b565b820191905f5260205f20905b81548152906001019060200180831161270e57829003601f168201915b505050918352505060018201546001600160a01b0381166020830152604090910190600160a01b900460ff16600281111561276857612768614464565b600281111561277957612779614464565b815260019190910154600160a81b900460ff16151560209091015282518390839081106127a8576127a8614dea565b60200260200101819052505b600101612663565b5f80335f90815260066020526040902060010154600160a01b900460ff1660028111156127eb576127eb614464565b146128085760405162461bcd60e51b815260040161124990614e29565b335f90815260066020526040902060010154600160a81b900460ff166128405760405162461bcd60e51b815260040161124990614e4f565b61285d33600354600160405180602001604052805f815250613d33565b600380545f81815260086020908152604080832093845560018085018054610100600160b01b031916336201000002179055815180830190925288825281830188905294840180549586018155835291208151929391926002909202019081906128c79082614f99565b50602082015160018201906128dc9082614f99565b5050600354604080519182523360208301527f03b090a5f073126ba1311454936e50b13b4eb5a69549338b4886ff9a0c1bfaed92500160405180910390a160038054905f6125e583614dfe565b600180335f90815260066020526040902060010154600160a01b900460ff16600281111561295957612959614464565b146129765760405162461bcd60e51b815260040161124990614e29565b335f90815260066020526040902060010154600160a81b900460ff166129ae5760405162461bcd60e51b815260040161124990614e4f565b60015f83815260086020526040902060010154610100900460ff1660038111156129da576129da614464565b14612a195760405162461bcd60e51b815260206004820152600f60248201526e4261746368206e6f7420726561647960881b6044820152606401611249565b5f82815260086020526040908190206001018054610100600160b01b03191633620100000261ff00191617610200179055517fc73ef165ea3d5a0161b64208f0ce43072ee61627d652c5b824a795315419503f90612a7b90849060029061504b565b60405180910390a15050565b5f80335f90815260066020526040902060010154600160a01b900460ff166002811115612ab657612ab6614464565b14612ad35760405162461bcd60e51b815260040161124990614e29565b335f90815260066020526040902060010154600160a81b900460ff16612b0b5760405162461bcd60e51b815260040161124990614e4f565b60025f83815260086020526040902060010154610100900460ff166003811115612b3757612b37614464565b14612b7b5760405162461bcd60e51b815260206004820152601460248201527310985d18da081b9bdd081a5b881d1c985b9cda5d60621b6044820152606401611249565b5f82815260086020526040908190206001018054610100600160b01b03191633620100000261ff00191617610300179055517fc73ef165ea3d5a0161b64208f0ce43072ee61627d652c5b824a795315419503f90612a7b90849060039061504b565b612be8338383613d8e565b5050565b600180335f90815260066020526040902060010154600160a01b900460ff166002811115612c1c57612c1c614464565b14612c395760405162461bcd60e51b815260040161124990614e29565b335f90815260066020526040902060010154600160a81b900460ff16612c715760405162461bcd60e51b815260040161124990614e4f565b5f858152600860205260409020600101546201000090046001600160a01b03163314612cdf5760405162461bcd60e51b815260206004820152601760248201527f4e6f74207468652063757272656e742068616e646c65720000000000000000006044820152606401611249565b60025f86815260086020526040902060010154610100900460ff166003811115612d0b57612d0b614464565b14612d4f5760405162461bcd60e51b815260206004820152601460248201527310985d18da081b9bdd081a5b881d1c985b9cda5d60621b6044820152606401611249565b5f8581526008602090815260408083206001808201805462010000600160b01b031916620100006001600160a01b038c160217905582518084019093528783528284018790526003909101805491820181558452919092208251600290920201908190612dbc9082614f99565b5060208201516001820190612dd19082614f99565b505050836001600160a01b0316857f3d4c1e51e991e881ea130ad20e8ceb50acd92250ac0acde4bc7d82e29e84f5b28585604051612e10929190615068565b60405180910390a35050505050565b5f838152600860205260409020600101546201000090046001600160a01b03163314612e7b5760405162461bcd60e51b815260206004820152600b60248201526a2737ba103430b7323632b960a91b6044820152606401611249565b60025f84815260086020526040902060010154610100900460ff166003811115612ea757612ea7614464565b14612ee55760405162461bcd60e51b815260206004820152600e60248201526d139bdd081a5b881d1c985b9cda5d60921b6044820152606401611249565b5f83815260086020908152604080832081518083019092528582528183018590526003018054600181018255908452919092208251600290920201908190612f2d9082614f99565b5060208201516001820190612f429082614f99565b5050507f5386c66b9ad3ab4d97f42fc9a18b9c5b6526c0acda4e9902a147f9df07f184ca838383604051612f789392919061508c565b60405180910390a1505050565b5f600280335f90815260066020526040902060010154600160a01b900460ff166002811115612fb657612fb6614464565b14612fd35760405162461bcd60e51b815260040161124990614e29565b335f90815260066020526040902060010154600160a81b900460ff1661300b5760405162461bcd60e51b815260040161124990614e4f565b5f60055490506040518060a00160405280336001600160a01b0316815260200187815260200142815260200186600281111561304957613049614464565b815260209081018690525f8381526009825260409020825181546001600160a01b0319166001600160a01b0390911617815590820151600182019061308e9082614f99565b50604082015181600201556060820151816003015f6101000a81548160ff021916908360028111156130c2576130c2614464565b0217905550608082015160048201906130db9082614f99565b5050600a80546001810182555f9182527fc65a7bb8d6351c1cf70c95a316cc6a92839c986682d98bc35f958f4883f9d2a8018390556005805492509061312083614dfe565b9091555050604080518281523360208201527f9b5fba485f7739d84caad84e1e07e7c9f2515477bd6b5854ecf133ce191a0a2a910160405180910390a195945050505050565b5f80335f90815260066020526040902060010154600160a01b900460ff16600281111561319557613195614464565b146131b25760405162461bcd60e51b815260040161124990614e29565b335f90815260066020526040902060010154600160a81b900460ff166131ea5760405162461bcd60e51b815260040161124990614e4f565b5f8083815260086020526040902060010154610100900460ff16600381111561321557613215614464565b146132595760405162461bcd60e51b8152602060048201526014602482015273496e76616c69642062617463682073746174757360601b6044820152606401611249565b5f8281526008602052604090206001908101805461ff0019166101008302179055506040518281527f0d12a96208f78b6b173d4bc5f7de1d8a9377c4e33639c8ef954056f7d350858790602001612a7b565b60605f60016003546132bd9190614e16565b6001600160401b038111156132d4576132d46146f4565b60405190808252806020026020018201604052801561330d57816020015b6132fa61435e565b8152602001906001900390816132f25790505b50905060015b600354811015611568575f81815260086020908152604091829020825160c08101909352805483526001810154909183019060ff16600381111561335957613359614464565b600381111561336a5761336a614464565b81526020016001820160019054906101000a900460ff16600381111561339257613392614464565b60038111156133a3576133a3614464565b815260018201546201000090046001600160a01b031660208083019190915260028301805460408051828502810185018252828152940193925f9084015b82821015613585575f8481526020908190206040805160a081019091526005850290910180546001600160a01b03168252600181018054929391929184019161342990614d8b565b80601f016020809104026020016040519081016040528092919081815260200182805461345590614d8b565b80156134a05780601f10613477576101008083540402835291602001916134a0565b820191905f5260205f20905b81548152906001019060200180831161348357829003601f168201915b50505091835250506002828101546020830152600383015460409092019160ff16908111156134d1576134d1614464565b60028111156134e2576134e2614464565b81526020016004820180546134f690614d8b565b80601f016020809104026020016040519081016040528092919081815260200182805461352290614d8b565b801561356d5780601f106135445761010080835404028352916020019161356d565b820191905f5260205f20905b81548152906001019060200180831161355057829003601f168201915b505050505081525050815260200190600101906133e1565b50505050815260200160038201805480602002602001604051908101604052809291908181526020015f905b82821015613700578382905f5260205f2090600202016040518060400160405290815f820180546135e190614d8b565b80601f016020809104026020016040519081016040528092919081815260200182805461360d90614d8b565b80156136585780601f1061362f57610100808354040283529160200191613658565b820191905f5260205f20905b81548152906001019060200180831161363b57829003601f168201915b5050505050815260200160018201805461367190614d8b565b80601f016020809104026020016040519081016040528092919081815260200182805461369d90614d8b565b80156136e85780601f106136bf576101008083540402835291602001916136e8565b820191905f5260205f20905b8154815290600101906020018083116136cb57829003601f168201915b505050505081525050815260200190600101906135b1565b505050915250839050613714600184614e16565b8151811061372457613724614dea565b6020908102919091010152600101613313565b6001600160a01b039182165f90815260016020908152604080832093909416825291909152205460ff1690565b60605f60015b6003548110156137bb5760015f82815260086020526040902060010154610100900460ff1660038111156137a0576137a0614464565b036137b357816137af81614dfe565b9250505b60010161376a565b505f816001600160401b038111156137d5576137d56146f4565b60405190808252806020026020018201604052801561380e57816020015b6137fb61435e565b8152602001906001900390816137f35790505b5090505f60015b6003548110156107725760015f82815260086020526040902060010154610100900460ff16600381111561384b5761384b614464565b03613c67575f81815260086020908152604091829020825160c08101909352805483526001810154909183019060ff16600381111561388c5761388c614464565b600381111561389d5761389d614464565b81526020016001820160019054906101000a900460ff1660038111156138c5576138c5614464565b60038111156138d6576138d6614464565b815260018201546201000090046001600160a01b031660208083019190915260028301805460408051828502810185018252828152940193925f9084015b82821015613ab8575f8481526020908190206040805160a081019091526005850290910180546001600160a01b03168252600181018054929391929184019161395c90614d8b565b80601f016020809104026020016040519081016040528092919081815260200182805461398890614d8b565b80156139d35780601f106139aa576101008083540402835291602001916139d3565b820191905f5260205f20905b8154815290600101906020018083116139b657829003601f168201915b50505091835250506002828101546020830152600383015460409092019160ff1690811115613a0457613a04614464565b6002811115613a1557613a15614464565b8152602001600482018054613a2990614d8b565b80601f0160208091040260200160405190810160405280929190818152602001828054613a5590614d8b565b8015613aa05780601f10613a7757610100808354040283529160200191613aa0565b820191905f5260205f20905b815481529060010190602001808311613a8357829003601f168201915b50505050508152505081526020019060010190613914565b50505050815260200160038201805480602002602001604051908101604052809291908181526020015f905b82821015613c33578382905f5260205f2090600202016040518060400160405290815f82018054613b1490614d8b565b80601f0160208091040260200160405190810160405280929190818152602001828054613b4090614d8b565b8015613b8b5780601f10613b6257610100808354040283529160200191613b8b565b820191905f5260205f20905b815481529060010190602001808311613b6e57829003601f168201915b50505050508152602001600182018054613ba490614d8b565b80601f0160208091040260200160405190810160405280929190818152602001828054613bd090614d8b565b8015613c1b5780601f10613bf257610100808354040283529160200191613c1b565b820191905f5260205f20905b815481529060010190602001808311613bfe57829003601f168201915b50505050508152505081526020019060010190613ae4565b5050505081525050838381518110613c4d57613c4d614dea565b60200260200101819052508180613c6390614dfe565b9250505b600101613815565b336001600160a01b0386168114801590613c905750613c8e8682613737565b155b15613cc15760405163711bec9160e11b81526001600160a01b03808316600483015287166024820152604401611249565b61125f8686868686613e22565b6001600160a01b038416613cf757604051632bfa23e760e11b81525f6004820152602401611249565b6001600160a01b038516613d1f57604051626a0d4560e21b81525f6004820152602401611249565b613d2c8585858585613eae565b5050505050565b6001600160a01b038416613d5c57604051632bfa23e760e11b81525f6004820152602401611249565b6040805160018082526020820186905281830190815260608201859052608082019092529061125f5f87848487613eae565b6001600160a01b038216613db65760405162ced3e160e81b81525f6004820152602401611249565b6001600160a01b038381165f81815260016020908152604080832094871680845294825291829020805460ff191686151590811790915591519182527f17307eab39ab6107e8899845ad3d59bd9653f200f220920489ca2b5937696c31910160405180910390a3505050565b6001600160a01b038416613e4b57604051632bfa23e760e11b81525f6004820152602401611249565b6001600160a01b038516613e7357604051626a0d4560e21b81525f6004820152602401611249565b60408051600180825260208201869052818301908152606082018590526080820190925290613ea58787848487613eae565b50505050505050565b613eba85858585613f01565b6001600160a01b03841615613d2c5782513390600103613ef35760208481015190840151613eec838989858589614110565b505061125f565b61125f818787878787614231565b8051825114613f305781518151604051635b05999160e01b815260048101929092526024820152604401611249565b335f5b8351811015614032576020818102858101820151908501909101516001600160a01b03881615613fe4575f828152602081815260408083206001600160a01b038c16845290915290205481811015613fbe576040516303dee4c560e01b81526001600160a01b038a166004820152602481018290526044810183905260648101849052608401611249565b5f838152602081815260408083206001600160a01b038d16845290915290209082900390555b6001600160a01b03871615614028575f828152602081815260408083206001600160a01b038b16845290915281208054839290614022908490614dd7565b90915550505b5050600101613f33565b5082516001036140b25760208301515f906020840151909150856001600160a01b0316876001600160a01b0316846001600160a01b03167fc3d58168c5ae7397731d063d5bbf3d657854427343f4c083240f7aacaa2d0f6285856040516140a3929190918252602082015260400190565b60405180910390a45050613d2c565b836001600160a01b0316856001600160a01b0316826001600160a01b03167f4a39dc06d4c0dbc64b70af90fd698a233a518aa5d07e595d983b8c0526c8f7fb86866040516141019291906150c0565b60405180910390a45050505050565b6001600160a01b0384163b1561125f5760405163f23a6e6160e01b81526001600160a01b0385169063f23a6e619061415490899089908890889088906004016150e4565b6020604051808303815f875af192505050801561418e575060408051601f3d908101601f1916820190925261418b91810190615128565b60015b6141f5573d8080156141bb576040519150601f19603f3d011682016040523d82523d5f602084013e6141c0565b606091505b5080515f036141ed57604051632bfa23e760e11b81526001600160a01b0386166004820152602401611249565b805181602001fd5b6001600160e01b0319811663f23a6e6160e01b14613ea557604051632bfa23e760e11b81526001600160a01b0386166004820152602401611249565b6001600160a01b0384163b1561125f5760405163bc197c8160e01b81526001600160a01b0385169063bc197c81906142759089908990889088908890600401615143565b6020604051808303815f875af19250505080156142af575060408051601f3d908101601f191682019092526142ac91810190615128565b60015b6142dc573d8080156141bb576040519150601f19603f3d011682016040523d82523d5f602084013e6141c0565b6001600160e01b0319811663bc197c8160e01b14613ea557604051632bfa23e760e11b81526001600160a01b0386166004820152602401611249565b6040518060a001604052805f6001600160a01b03168152602001606081526020015f81526020015f600281111561435157614351614464565b8152602001606081525090565b6040805160c081019091525f808252602082019081526020015f81525f60208201526060604082018190529081015290565b80356001600160a01b03811681146143a6575f80fd5b919050565b5f80604083850312156143bc575f80fd5b6143c583614390565b946020939093013593505050565b6001600160e01b0319811681146143e8575f80fd5b50565b5f602082840312156143fb575f80fd5b8135614406816143d3565b9392505050565b5f6020828403121561441d575f80fd5b5035919050565b5f81518084528060208401602086015e5f602082860101526020601f19601f83011685010191505092915050565b602081525f6144066020830184614424565b634e487b7160e01b5f52602160045260245ffd5b600381106143e8576143e8614464565b60018060a01b0381511682525f602082015160a060208501526144ae60a0850182614424565b90506040830151604085015260608301516144c881614478565b80606086015250608083015184820360808601526144e68282614424565b95945050505050565b5f602082016020835280845180835260408501915060408160051b8601019250602086015f5b8281101561454657603f19878603018452614531858351614488565b94506020938401939190910190600101614515565b50929695505050505050565b600481106143e8576143e8614464565b5f82825180855260208501945060208160051b830101602085015f5b838110156145d757601f1985840301885281518051604085526145a46040860182614424565b90506020820151915084810360208601526145bf8183614424565b60209a8b019a9095509390930192505060010161457e565b50909695505050505050565b5f60c083018251845260208301516145fa81614552565b6020850152604083015161460d81614552565b8060408601525060018060a01b036060840151166060850152608083015160c0608086015281815180845260e08701915060e08160051b88010193506020830192505f5b818110156146825760df1988860301835261466d858551614488565b94506020938401939290920191600101614651565b5050505060a083015184820360a08601526144e68282614562565b5f602082016020835280845180835260408501915060408160051b8601019250602086015f5b8281101561454657603f198786030184526146df8583516145e3565b945060209384019391909101906001016146c3565b634e487b7160e01b5f52604160045260245ffd5b604051601f8201601f191681016001600160401b0381118282101715614730576147306146f4565b604052919050565b5f6001600160401b03821115614750576147506146f4565b5060051b60200190565b5f82601f830112614769575f80fd5b813561477c61477782614738565b614708565b8082825260208201915060208360051b86010192508583111561479d575f80fd5b602085015b838110156147ba5780358352602092830192016147a2565b5095945050505050565b5f82601f8301126147d3575f80fd5b8135602083015f806001600160401b038411156147f2576147f26146f4565b50601f8301601f191660200161480781614708565b91505082815285838301111561481b575f80fd5b828260208301375f92810160200192909252509392505050565b5f805f805f60a08688031215614849575f80fd5b61485286614390565b945061486060208701614390565b935060408601356001600160401b0381111561487a575f80fd5b6148868882890161475a565b93505060608601356001600160401b038111156148a1575f80fd5b6148ad8882890161475a565b92505060808601356001600160401b038111156148c8575f80fd5b6148d4888289016147c4565b9150509295509295909350565b5f80604083850312156148f2575f80fd5b82356001600160401b03811115614907575f80fd5b8301601f81018513614917575f80fd5b803561492561477782614738565b8082825260208201915060208360051b850101925087831115614946575f80fd5b6020840193505b8284101561496f5761495e84614390565b82526020938401939091019061494d565b945050505060208301356001600160401b0381111561498c575f80fd5b6149988582860161475a565b9150509250929050565b5f8151808452602084019350602083015f5b828110156149d25781518652602095860195909101906001016149b4565b5093949350505050565b602081525f61440660208301846149a2565b602081525f61440660208301846145e3565b5f8060408385031215614a11575f80fd5b50508035926020909101359150565b602081525f6144066020830184614488565b600381106143e8575f80fd5b5f805f60608486031215614a50575f80fd5b83356001600160401b03811115614a65575f80fd5b614a71868287016147c4565b935050614a8060208501614390565b91506040840135614a9081614a32565b809150509250925092565b5f602082016020835280845180835260408501915060408160051b8601019250602086015f5b8281101561454657603f198786030184528151805160808752614ae76080880182614424565b6020838101516001600160a01b0316908901526040830151909150614b0b81614478565b6040880152606091820151151591909601526020938401939190910190600101614ac1565b5f8060408385031215614b41575f80fd5b82356001600160401b03811115614b56575f80fd5b614b62858286016147c4565b92505060208301356001600160401b03811115614b7d575f80fd5b614998858286016147c4565b5f8060408385031215614b9a575f80fd5b614ba383614390565b915060208301358015158114614bb7575f80fd5b809150509250929050565b5f805f8060808587031215614bd5575f80fd5b84359350614be560208601614390565b925060408501356001600160401b03811115614bff575f80fd5b614c0b878288016147c4565b92505060608501356001600160401b03811115614c26575f80fd5b614c32878288016147c4565b91505092959194509250565b5f805f60608486031215614c50575f80fd5b8335925060208401356001600160401b03811115614c6c575f80fd5b614c78868287016147c4565b92505060408401356001600160401b03811115614c93575f80fd5b614c9f868287016147c4565b9150509250925092565b5f805f60608486031215614cbb575f80fd5b83356001600160401b03811115614cd0575f80fd5b614cdc868287016147c4565b9350506020840135614ced81614a32565b915060408401356001600160401b03811115614c93575f80fd5b5f8060408385031215614d18575f80fd5b614d2183614390565b9150614d2f60208401614390565b90509250929050565b5f805f805f60a08688031215614d4c575f80fd5b614d5586614390565b9450614d6360208701614390565b9350604086013592506060860135915060808601356001600160401b038111156148c8575f80fd5b600181811c90821680614d9f57607f821691505b602082108103614dbd57634e487b7160e01b5f52602260045260245ffd5b50919050565b634e487b7160e01b5f52601160045260245ffd5b808201808211156103ee576103ee614dc3565b634e487b7160e01b5f52603260045260245ffd5b5f60018201614e0f57614e0f614dc3565b5060010190565b818103818111156103ee576103ee614dc3565b6020808252600c908201526b155b985d5d1a1bdc9a5e995960a21b604082015260600190565b60208082526010908201526f4163636f756e7420696e61637469766560801b604082015260600190565b601f821115614ebd57805f5260205f20601f840160051c81016020851015614e9e5750805b601f840160051c820191505b81811015613d2c575f8155600101614eaa565b505050565b818103614ecd575050565b614ed78254614d8b565b6001600160401b03811115614eee57614eee6146f4565b614f0281614efc8454614d8b565b84614e79565b5f601f821160018114614f36575f8315614f1c5750848201545b600184901b5f19600386901b1c198216175b855550613d2c565b5f8581526020808220868352908220601f198616925b83811015614f6c5782860154825560019586019590910190602001614f4c565b5085831015614f8957818501545f19600388901b60f8161c191681555b5050505050600190811b01905550565b81516001600160401b03811115614fb257614fb26146f4565b614fc081614efc8454614d8b565b6020601f821160018114614ff0575f8315614f1c575081850151600184901b5f19600386901b1c19821617614f2e565b5f84815260208120601f198516915b8281101561501f5787850151825560209485019460019092019101614fff565b508482101561503c57868401515f19600387901b60f8161c191681555b50505050600190811b01905550565b8281526040810161505b83614552565b8260208301529392505050565b604081525f61507a6040830185614424565b82810360208401526144e68185614424565b838152606060208201525f6150a46060830185614424565b82810360408401526150b68185614424565b9695505050505050565b604081525f6150d260408301856149a2565b82810360208401526144e681856149a2565b6001600160a01b03868116825285166020820152604081018490526060810183905260a0608082018190525f9061511d90830184614424565b979650505050505050565b5f60208284031215615138575f80fd5b8151614406816143d3565b6001600160a01b0386811682528516602082015260a0604082018190525f9061516e908301866149a2565b828103606084015261518081866149a2565b905082810360808401526151948185614424565b9897505050505050505056fea2646970667358221220f1ae0b12511a0a47d7115f3d5543e2dfe707aae44664a1b86b27a37ffc0683d464736f6c634300081a003368747470733a2f2f746f6b656e2d63646e2d646f6d61696e2f7b69647d2e6a736f6e","linkReferences":{}},"methodIdentifiers":{"addDonationToBatch(uint256,uint256)":"718966cf","addMember(string,address,uint8)":"7ce8dc78","balanceOf(address,uint256)":"00fdd58e","balanceOfBatch(address[],uint256[])":"4e1273f4","claimBatchForDelivery(uint256)":"a1cc2939","claimBatchForTransporter(uint256)":"98f681c8","closeBatch(uint256)":"d2c411d3","createBatch(string,string)":"92b8f021","createDonation(string,uint8,string)":"bd99c344","getAllBatches()":"e80e076b","getAllBatchesInTransitAndDelivery()":"2e0fabaf","getAllBatchesWithStatusClosedReadyForTransporter()":"e9cf8c06","getAllBatchesWithStatusDeliveryReadyForDeliveryOut()":"2597881b","getAllBatchesWithStatusInTransitReadyForDeliveryIn()":"7a692ba2","getAllDonations()":"38a59a07","getAllDonationsInAllBatches()":"17b42c77","getAllListOfMembers()":"7ef2a569","getBatch(uint256)":"5ac44282","getDonation(uint256,uint256)":"76ff7bf4","isApprovedForAll(address,address)":"e985e9c5","safeBatchTransferFrom(address,address,uint256[],uint256[],bytes)":"2eb2c2d6","safeTransferFrom(address,address,uint256,uint256,bytes)":"f242432a","setApprovalForAll(address,bool)":"a22cb465","supportsInterface(bytes4)":"01ffc9a7","transferBatch(uint256,address,string,string)":"b3641cfd","updateLocation(uint256,string,string)":"b7472885","uri(uint256)":"0e89341c"},"id":42}