{"abi":[{"type":"constructor","inputs":[],"stateMutability":"nonpayable"},{"type":"function","name":"addDonationToBatch","inputs":[{"name":"batchId","type":"uint256","internalType":"uint256"},{"name":"donationId","type":"uint256","internalType":"uint256"}],"outputs":[],"stateMutability":"nonpayable"},{"type":"function","name":"addMember","inputs":[{"name":"name","type":"string","internalType":"string"},{"name":"account","type":"address","internalType":"address"},{"name":"role","type":"uint8","internalType":"enum IDataTypes.Role"}],"outputs":[],"stateMutability":"nonpayable"},{"type":"function","name":"balanceOf","inputs":[{"name":"account","type":"address","internalType":"address"},{"name":"id","type":"uint256","internalType":"uint256"}],"outputs":[{"name":"","type":"uint256","internalType":"uint256"}],"stateMutability":"view"},{"type":"function","name":"balanceOfBatch","inputs":[{"name":"accounts","type":"address[]","internalType":"address[]"},{"name":"ids","type":"uint256[]","internalType":"uint256[]"}],"outputs":[{"name":"","type":"uint256[]","internalType":"uint256[]"}],"stateMutability":"view"},{"type":"function","name":"claimBatchForDelivery","inputs":[{"name":"batchId","type":"uint256","internalType":"uint256"}],"outputs":[],"stateMutability":"nonpayable"},{"type":"function","name":"claimBatchForTransporter","inputs":[{"name":"batchId","type":"uint256","internalType":"uint256"}],"outputs":[],"stateMutability":"nonpayable"},{"type":"function","name":"closeBatch","inputs":[{"name":"batchId","type":"uint256","internalType":"uint256"}],"outputs":[],"stateMutability":"nonpayable"},{"type":"function","name":"createBatch","inputs":[{"name":"latitude","type":"string","internalType":"string"},{"name":"longitude","type":"string","internalType":"string"}],"outputs":[],"stateMutability":"nonpayable"},{"type":"function","name":"createDonation","inputs":[{"name":"productDescription","type":"string","internalType":"string"},{"name":"donation","type":"uint8","internalType":"enum IDataTypes.DonationType"},{"name":"image","type":"string","internalType":"string"}],"outputs":[{"name":"","type":"uint256","internalType":"uint256"}],"stateMutability":"nonpayable"},{"type":"function","name":"getAllBatches","inputs":[],"outputs":[{"name":"","type":"tuple[]","internalType":"struct IDataTypes.Batch[]","components":[{"name":"id","type":"uint256","internalType":"uint256"},{"name":"destinationZone","type":"uint8","internalType":"enum IDataTypes.DistributionZones"},{"name":"status","type":"uint8","internalType":"enum IDataTypes.BatchStatus"},{"name":"currentHandler","type":"address","internalType":"address"},{"name":"donations","type":"tuple[]","internalType":"struct IDataTypes.Donation[]","components":[{"name":"donor","type":"address","internalType":"address"},{"name":"description","type":"string","internalType":"string"},{"name":"timestamp","type":"uint256","internalType":"uint256"},{"name":"donationType","type":"uint8","internalType":"enum IDataTypes.DonationType"},{"name":"imageUrl","type":"string","internalType":"string"}]},{"name":"locations","type":"tuple[]","internalType":"struct IDataTypes.Location[]","components":[{"name":"latitude","type":"string","internalType":"string"},{"name":"longitude","type":"string","internalType":"string"}]}]}],"stateMutability":"view"},{"type":"function","name":"getAllBatchesInTransitAndDelivery","inputs":[],"outputs":[{"name":"","type":"tuple[]","internalType":"struct IDataTypes.Batch[]","components":[{"name":"id","type":"uint256","internalType":"uint256"},{"name":"destinationZone","type":"uint8","internalType":"enum IDataTypes.DistributionZones"},{"name":"status","type":"uint8","internalType":"enum IDataTypes.BatchStatus"},{"name":"currentHandler","type":"address","internalType":"address"},{"name":"donations","type":"tuple[]","internalType":"struct IDataTypes.Donation[]","components":[{"name":"donor","type":"address","internalType":"address"},{"name":"description","type":"string","internalType":"string"},{"name":"timestamp","type":"uint256","internalType":"uint256"},{"name":"donationType","type":"uint8","internalType":"enum IDataTypes.DonationType"},{"name":"imageUrl","type":"string","internalType":"string"}]},{"name":"locations","type":"tuple[]","internalType":"struct IDataTypes.Location[]","components":[{"name":"latitude","type":"string","internalType":"string"},{"name":"longitude","type":"string","internalType":"string"}]}]}],"stateMutability":"view"},{"type":"function","name":"getAllBatchesWithStatusClosedReadyForTransporter","inputs":[],"outputs":[{"name":"","type":"tuple[]","internalType":"struct IDataTypes.Batch[]","components":[{"name":"id","type":"uint256","internalType":"uint256"},{"name":"destinationZone","type":"uint8","internalType":"enum IDataTypes.DistributionZones"},{"name":"status","type":"uint8","internalType":"enum IDataTypes.BatchStatus"},{"name":"currentHandler","type":"address","internalType":"address"},{"name":"donations","type":"tuple[]","internalType":"struct IDataTypes.Donation[]","components":[{"name":"donor","type":"address","internalType":"address"},{"name":"description","type":"string","internalType":"string"},{"name":"timestamp","type":"uint256","internalType":"uint256"},{"name":"donationType","type":"uint8","internalType":"enum IDataTypes.DonationType"},{"name":"imageUrl","type":"string","internalType":"string"}]},{"name":"locations","type":"tuple[]","internalType":"struct IDataTypes.Location[]","components":[{"name":"latitude","type":"string","internalType":"string"},{"name":"longitude","type":"string","internalType":"string"}]}]}],"stateMutability":"view"},{"type":"function","name":"getAllBatchesWithStatusDeliveryReadyForDeliveryOut","inputs":[],"outputs":[{"name":"","type":"tuple[]","internalType":"struct IDataTypes.Batch[]","components":[{"name":"id","type":"uint256","internalType":"uint256"},{"name":"destinationZone","type":"uint8","internalType":"enum IDataTypes.DistributionZones"},{"name":"status","type":"uint8","internalType":"enum IDataTypes.BatchStatus"},{"name":"currentHandler","type":"address","internalType":"address"},{"name":"donations","type":"tuple[]","internalType":"struct IDataTypes.Donation[]","components":[{"name":"donor","type":"address","internalType":"address"},{"name":"description","type":"string","internalType":"string"},{"name":"timestamp","type":"uint256","internalType":"uint256"},{"name":"donationType","type":"uint8","internalType":"enum IDataTypes.DonationType"},{"name":"imageUrl","type":"string","internalType":"string"}]},{"name":"locations","type":"tuple[]","internalType":"struct IDataTypes.Location[]","components":[{"name":"latitude","type":"string","internalType":"string"},{"name":"longitude","type":"string","internalType":"string"}]}]}],"stateMutability":"view"},{"type":"function","name":"getAllBatchesWithStatusInTransitReadyForDeliveryIn","inputs":[],"outputs":[{"name":"","type":"tuple[]","internalType":"struct IDataTypes.Batch[]","components":[{"name":"id","type":"uint256","internalType":"uint256"},{"name":"destinationZone","type":"uint8","internalType":"enum IDataTypes.DistributionZones"},{"name":"status","type":"uint8","internalType":"enum IDataTypes.BatchStatus"},{"name":"currentHandler","type":"address","internalType":"address"},{"name":"donations","type":"tuple[]","internalType":"struct IDataTypes.Donation[]","components":[{"name":"donor","type":"address","internalType":"address"},{"name":"description","type":"string","internalType":"string"},{"name":"timestamp","type":"uint256","internalType":"uint256"},{"name":"donationType","type":"uint8","internalType":"enum IDataTypes.DonationType"},{"name":"imageUrl","type":"string","internalType":"string"}]},{"name":"locations","type":"tuple[]","internalType":"struct IDataTypes.Location[]","components":[{"name":"latitude","type":"string","internalType":"string"},{"name":"longitude","type":"string","internalType":"string"}]}]}],"stateMutability":"view"},{"type":"function","name":"getAllDonations","inputs":[],"outputs":[{"name":"","type":"tuple[]","internalType":"struct IDataTypes.Donation[]","components":[{"name":"donor","type":"address","internalType":"address"},{"name":"description","type":"string","internalType":"string"},{"name":"timestamp","type":"uint256","internalType":"uint256"},{"name":"donationType","type":"uint8","internalType":"enum IDataTypes.DonationType"},{"name":"imageUrl","type":"string","internalType":"string"}]}],"stateMutability":"view"},{"type":"function","name":"getAllDonationsInAllBatches","inputs":[],"outputs":[{"name":"","type":"tuple[]","internalType":"struct IDataTypes.Donation[]","components":[{"name":"donor","type":"address","internalType":"address"},{"name":"description","type":"string","internalType":"string"},{"name":"timestamp","type":"uint256","internalType":"uint256"},{"name":"donationType","type":"uint8","internalType":"enum IDataTypes.DonationType"},{"name":"imageUrl","type":"string","internalType":"string"}]}],"stateMutability":"view"},{"type":"function","name":"getAllListOfMembers","inputs":[],"outputs":[{"name":"","type":"tuple[]","internalType":"struct IDataTypes.Members[]","components":[{"name":"name","type":"string","internalType":"string"},{"name":"account","type":"address","internalType":"address"},{"name":"role","type":"uint8","internalType":"enum IDataTypes.Role"},{"name":"isActive","type":"bool","internalType":"bool"}]}],"stateMutability":"view"},{"type":"function","name":"getBatch","inputs":[{"name":"batchId","type":"uint256","internalType":"uint256"}],"outputs":[{"name":"","type":"tuple","internalType":"struct IDataTypes.Batch","components":[{"name":"id","type":"uint256","internalType":"uint256"},{"name":"destinationZone","type":"uint8","internalType":"enum IDataTypes.DistributionZones"},{"name":"status","type":"uint8","internalType":"enum IDataTypes.BatchStatus"},{"name":"currentHandler","type":"address","internalType":"address"},{"name":"donations","type":"tuple[]","internalType":"struct IDataTypes.Donation[]","components":[{"name":"donor","type":"address","internalType":"address"},{"name":"description","type":"string","internalType":"string"},{"name":"timestamp","type":"uint256","internalType":"uint256"},{"name":"donationType","type":"uint8","internalType":"enum IDataTypes.DonationType"},{"name":"imageUrl","type":"string","internalType":"string"}]},{"name":"locations","type":"tuple[]","internalType":"struct IDataTypes.Location[]","components":[{"name":"latitude","type":"string","internalType":"string"},{"name":"longitude","type":"string","internalType":"string"}]}]}],"stateMutability":"view"},{"type":"function","name":"getDonation","inputs":[{"name":"batchId","type":"uint256","internalType":"uint256"},{"name":"index","type":"uint256","internalType":"uint256"}],"outputs":[{"name":"","type":"tuple","internalType":"struct IDataTypes.Donation","components":[{"name":"donor","type":"address","internalType":"address"},{"name":"description","type":"string","internalType":"string"},{"name":"timestamp","type":"uint256","internalType":"uint256"},{"name":"donationType","type":"uint8","internalType":"enum IDataTypes.DonationType"},{"name":"imageUrl","type":"string","internalType":"string"}]}],"stateMutability":"view"},{"type":"function","name":"isApprovedForAll","inputs":[{"name":"account","type":"address","internalType":"address"},{"name":"operator","type":"address","internalType":"address"}],"outputs":[{"name":"","type":"bool","internalType":"bool"}],"stateMutability":"view"},{"type":"function","name":"safeBatchTransferFrom","inputs":[{"name":"from","type":"address","internalType":"address"},{"name":"to","type":"address","internalType":"address"},{"name":"ids","type":"uint256[]","internalType":"uint256[]"},{"name":"values","type":"uint256[]","internalType":"uint256[]"},{"name":"data","type":"bytes","internalType":"bytes"}],"outputs":[],"stateMutability":"nonpayable"},{"type":"function","name":"safeTransferFrom","inputs":[{"name":"from","type":"address","internalType":"address"},{"name":"to","type":"address","internalType":"address"},{"name":"id","type":"uint256","internalType":"uint256"},{"name":"value","type":"uint256","internalType":"uint256"},{"name":"data","type":"bytes","internalType":"bytes"}],"outputs":[],"stateMutability":"nonpayable"},{"type":"function","name":"setApprovalForAll","inputs":[{"name":"operator","type":"address","internalType":"address"},{"name":"approved","type":"bool","internalType":"bool"}],"outputs":[],"stateMutability":"nonpayable"},{"type":"function","name":"supportsInterface","inputs":[{"name":"interfaceId","type":"bytes4","internalType":"bytes4"}],"outputs":[{"name":"","type":"bool","internalType":"bool"}],"stateMutability":"view"},{"type":"function","name":"transferBatch","inputs":[{"name":"batchId","type":"uint256","internalType":"uint256"},{"name":"newHandler","type":"address","internalType":"address"},{"name":"latitude","type":"string","internalType":"string"},{"name":"longitude","type":"string","internalType":"string"}],"outputs":[],"stateMutability":"nonpayable"},{"type":"function","name":"updateLocation","inputs":[{"name":"batchId","type":"uint256","internalType":"uint256"},{"name":"latitude","type":"string","internalType":"string"},{"name":"longitude","type":"string","internalType":"string"}],"outputs":[],"stateMutability":"nonpayable"},{"type":"function","name":"uri","inputs":[{"name":"","type":"uint256","internalType":"uint256"}],"outputs":[{"name":"","type":"string","internalType":"string"}],"stateMutability":"view"},{"type":"event","name":"ApprovalForAll","inputs":[{"name":"account","type":"address","indexed":true,"internalType":"address"},{"name":"operator","type":"address","indexed":true,"internalType":"address"},{"name":"approved","type":"bool","indexed":false,"internalType":"bool"}],"anonymous":false},{"type":"event","name":"BatchClaimed","inputs":[{"name":"batchId","type":"uint256","indexed":false,"internalType":"uint256"},{"name":"status","type":"uint8","indexed":false,"internalType":"enum IDataTypes.BatchStatus"}],"anonymous":false},{"type":"event","name":"BatchClosed","inputs":[{"name":"batchId","type":"uint256","indexed":false,"internalType":"uint256"}],"anonymous":false},{"type":"event","name":"BatchCreated","inputs":[{"name":"batchId","type":"uint256","indexed":false,"internalType":"uint256"},{"name":"currentHandler","type":"address","indexed":false,"internalType":"address"}],"anonymous":false},{"type":"event","name":"BatchTransferred","inputs":[{"name":"batchId","type":"uint256","indexed":true,"internalType":"uint256"},{"name":"newHandler","type":"address","indexed":true,"internalType":"address"},{"name":"latitude","type":"string","indexed":false,"internalType":"string"},{"name":"longitude","type":"string","indexed":false,"internalType":"string"}],"anonymous":false},{"type":"event","name":"DistributionZoneUpdated","inputs":[{"name":"batchId","type":"uint256","indexed":false,"internalType":"uint256"},{"name":"destinationZone","type":"uint8","indexed":false,"internalType":"enum IDataTypes.DistributionZones"}],"anonymous":false},{"type":"event","name":"DonationCreated","inputs":[{"name":"donationId","type":"uint256","indexed":false,"internalType":"uint256"},{"name":"donor","type":"address","indexed":false,"internalType":"address"}],"anonymous":false},{"type":"event","name":"LocationUpdated","inputs":[{"name":"batchId","type":"uint256","indexed":false,"internalType":"uint256"},{"name":"latitude","type":"string","indexed":false,"internalType":"string"},{"name":"longitude","type":"string","indexed":false,"internalType":"string"}],"anonymous":false},{"type":"event","name":"ProductAdded","inputs":[{"name":"batchId","type":"uint256","indexed":false,"internalType":"uint256"},{"name":"productIndex","type":"uint256","indexed":false,"internalType":"uint256"},{"name":"donor","type":"address","indexed":false,"internalType":"address"}],"anonymous":false},{"type":"event","name":"TransferBatch","inputs":[{"name":"operator","type":"address","indexed":true,"internalType":"address"},{"name":"from","type":"address","indexed":true,"internalType":"address"},{"name":"to","type":"address","indexed":true,"internalType":"address"},{"name":"ids","type":"uint256[]","indexed":false,"internalType":"uint256[]"},{"name":"values","type":"uint256[]","indexed":false,"internalType":"uint256[]"}],"anonymous":false},{"type":"event","name":"TransferSingle","inputs":[{"name":"operator","type":"address","indexed":true,"internalType":"address"},{"name":"from","type":"address","indexed":true,"internalType":"address"},{"name":"to","type":"address","indexed":true,"internalType":"address"},{"name":"id","type":"uint256","indexed":false,"internalType":"uint256"},{"name":"value","type":"uint256","indexed":false,"internalType":"uint256"}],"anonymous":false},{"type":"event","name":"URI","inputs":[{"name":"value","type":"string","indexed":false,"internalType":"string"},{"name":"id","type":"uint256","indexed":true,"internalType":"uint256"}],"anonymous":false},{"type":"error","name":"ERC1155InsufficientBalance","inputs":[{"name":"sender","type":"address","internalType":"address"},{"name":"balance","type":"uint256","internalType":"uint256"},{"name":"needed","type":"uint256","internalType":"uint256"},{"name":"tokenId","type":"uint256","internalType":"uint256"}]},{"type":"error","name":"ERC1155InvalidApprover","inputs":[{"name":"approver","type":"address","internalType":"address"}]},{"type":"error","name":"ERC1155InvalidArrayLength","inputs":[{"name":"idsLength","type":"uint256","internalType":"uint256"},{"name":"valuesLength","type":"uint256","internalType":"uint256"}]},{"type":"error","name":"ERC1155InvalidOperator","inputs":[{"name":"operator","type":"address","internalType":"address"}]},{"type":"error","name":"ERC1155InvalidReceiver","inputs":[{"name":"receiver","type":"address","internalType":"address"}]},{"type":"error","name":"ERC1155InvalidSender","inputs":[{"name":"sender","type":"address","internalType":"address"}]},{"type":"error","name":"ERC1155MissingApprovalForAll","inputs":[{"name":"operator","type":"address","internalType":"address"},{"name":"owner","type":"address","internalType":"address"}]}],"bytecode":{"object":"0x608060405260016003556000600455600160055534801561001f57600080fd5b506040518060600160405280602281526020016157c460229139610042816101e3565b506040805160c081018252600d608082019081526c20b236b4b734b9ba3930ba37b960991b60a08301528152336020820152908101600081526001602091820152336000908152600690915260409020815181906100a090826102a8565b5060208201516001820180546001600160a01b039092166001600160a01b03198316811782556040850151926001600160a81b03191617600160a01b8360028111156100ee576100ee6101f3565b02179055506060919091015160019091018054911515600160a81b0260ff60a81b1990921691909117905533600090815260066020908152604080832060045484526007909252909120806101438382610369565b506001828101805491830180546001600160a01b031981166001600160a01b039094169384178255915460ff600160a01b91829004169391926001600160a81b0319169091179083600281111561019c5761019c6101f3565b02179055506001918201549101805460ff60a81b1916600160a81b9283900460ff161515909202919091179055600480549060006101d98361043d565b9190505550610464565b60026101ef82826102a8565b5050565b634e487b7160e01b600052602160045260246000fd5b634e487b7160e01b600052604160045260246000fd5b600181811c9082168061023357607f821691505b60208210810361025357634e487b7160e01b600052602260045260246000fd5b50919050565b601f8211156102a357806000526020600020601f840160051c810160208510156102805750805b601f840160051c820191505b818110156102a0576000815560010161028c565b50505b505050565b81516001600160401b038111156102c1576102c1610209565b6102d5816102cf845461021f565b84610259565b6020601f82116001811461030c57600083156102f15750848201515b600184901b600019600386901b1c198216175b8555506102a0565b600084815260208120601f198516915b8281101561033c578785015182556020948501946001909201910161031c565b508482101561035a5786840151600019600387901b60f8161c191681555b50505050600190811b01905550565b818103610374575050565b61037e825461021f565b6001600160401b0381111561039557610395610209565b6103a3816102cf845461021f565b6000601f8211600181146103d557600083156102f1575081850154600184901b600019600386901b1c19821617610304565b600085815260209020601f19841690600086815260209020845b8381101561040f57828601548255600195860195909101906020016103ef565b508583101561042d5781850154600019600388901b60f8161c191681555b5050505050600190811b01905550565b60006001820161045d57634e487b7160e01b600052601160045260246000fd5b5060010190565b615351806104736000396000f3fe608060405234801561001057600080fd5b50600436106101a85760003560e01c80637ce8dc78116100f9578063b747288511610097578063e80e076b11610071578063e80e076b146103a0578063e985e9c5146103a8578063e9cf8c06146103bb578063f242432a146103c357600080fd5b8063b747288514610367578063bd99c3441461037a578063d2c411d31461038d57600080fd5b806398f681c8116100d357806398f681c81461031b578063a1cc29391461032e578063a22cb46514610341578063b3641cfd1461035457600080fd5b80637ce8dc78146102e05780637ef2a569146102f357806392b8f0211461030857600080fd5b80632eb2c2d6116101665780635ac44282116101405780635ac4428214610285578063718966cf146102a557806376ff7bf4146102b85780637a692ba2146102d857600080fd5b80632eb2c2d61461024857806338a59a071461025d5780634e1273f41461026557600080fd5b8062fdd58e146101ad57806301ffc9a7146101d35780630e89341c146101f657806317b42c77146102165780632597881b1461022b5780632e0fabaf14610240575b600080fd5b6101c06101bb36600461449b565b6103d6565b6040519081526020015b60405180910390f35b6101e66101e13660046144de565b6103fe565b60405190151581526020016101ca565b610209610204366004614502565b61044e565b6040516101ca9190614561565b61021e6104e2565b6040516101ca9190614602565b610233610794565b6040516101ca91906147b6565b610233610cb3565b61025b61025636600461495b565b61123e565b005b61021e6112aa565b610278610273366004614a0e565b6115bb565b6040516101ca9190614b11565b610298610293366004614502565b611687565b6040516101ca9190614b24565b61025b6102b3366004614b37565b611a8f565b6102cb6102c6366004614b37565b611d5e565b6040516101ca9190614b59565b610233611f22565b61025b6102ee366004614b79565b612441565b6102fb612677565b6040516101ca9190614bda565b61025b610316366004614c71565b61284b565b61025b610329366004614502565b6129be565b61025b61033c366004614502565b612b20565b61025b61034f366004614cce565b612c7b565b61025b610362366004614d0a565b612c8a565b61025b610375366004614d8b565b612ec2565b6101c0610388366004614dfb565b61302b565b61025b61039b366004614502565b613213565b61023361335d565b6101e66103b6366004614e5e565b6137f9565b610233613827565b61025b6103d1366004614e91565b613d46565b6000818152602081815260408083206001600160a01b03861684529091529020545b92915050565b60006001600160e01b03198216636cdb3d1360e11b148061042f57506001600160e01b031982166303a24d0760e21b145b806103f857506301ffc9a760e01b6001600160e01b03198316146103f8565b60606002805461045d90614ee9565b80601f016020809104026020016040519081016040528092919081815260200182805461048990614ee9565b80156104d65780601f106104ab576101008083540402835291602001916104d6565b820191906000526020600020905b8154815290600101906020018083116104b957829003601f168201915b50505050509050919050565b6060600060015b6003548110156105195760008181526008602052604090206002015461050f9083614f39565b91506001016104e9565b506000816001600160401b038111156105345761053461480f565b60405190808252806020026020018201604052801561056d57816020015b61055a614401565b8152602001906001900390816105525790505b509050600060015b60035481101561078b5760005b6000828152600860205260409020600201548110156107825760008281526008602052604090206002018054829081106105be576105be614f4c565b60009182526020918290206040805160a0810190915260059092020180546001600160a01b0316825260018101805492939192918401916105fe90614ee9565b80601f016020809104026020016040519081016040528092919081815260200182805461062a90614ee9565b80156106775780601f1061064c57610100808354040283529160200191610677565b820191906000526020600020905b81548152906001019060200180831161065a57829003601f168201915b50505091835250506002828101546020830152600383015460409092019160ff16908111156106a8576106a8614574565b60028111156106b9576106b9614574565b81526020016004820180546106cd90614ee9565b80601f01602080910402602001604051908101604052809291908181526020018280546106f990614ee9565b80156107465780601f1061071b57610100808354040283529160200191610746565b820191906000526020600020905b81548152906001019060200180831161072957829003601f168201915b50505050508152505084848151811061076157610761614f4c565b6020026020010181905250828061077790614f62565b935050600101610582565b50600101610575565b50909392505050565b6060600060015b6003548110156107ed576003600082815260086020526040902060010154610100900460ff1660038111156107d2576107d2614574565b036107e557816107e181614f62565b9250505b60010161079b565b506000816001600160401b038111156108085761080861480f565b60405190808252806020026020018201604052801561084157816020015b61082e61444a565b8152602001906001900390816108265790505b509050600060015b60035481101561078b576003600082815260086020526040902060010154610100900460ff16600381111561088057610880614574565b03610cab57600081815260086020908152604091829020825160c08101909352805483526001810154909183019060ff1660038111156108c2576108c2614574565b60038111156108d3576108d3614574565b81526020016001820160019054906101000a900460ff1660038111156108fb576108fb614574565b600381111561090c5761090c614574565b815260018201546201000090046001600160a01b0316602080830191909152600283018054604080518285028101850182528281529401939260009084015b82821015610af45760008481526020908190206040805160a081019091526005850290910180546001600160a01b03168252600181018054929391929184019161099490614ee9565b80601f01602080910402602001604051908101604052809291908181526020018280546109c090614ee9565b8015610a0d5780601f106109e257610100808354040283529160200191610a0d565b820191906000526020600020905b8154815290600101906020018083116109f057829003601f168201915b50505091835250506002828101546020830152600383015460409092019160ff1690811115610a3e57610a3e614574565b6002811115610a4f57610a4f614574565b8152602001600482018054610a6390614ee9565b80601f0160208091040260200160405190810160405280929190818152602001828054610a8f90614ee9565b8015610adc5780601f10610ab157610100808354040283529160200191610adc565b820191906000526020600020905b815481529060010190602001808311610abf57829003601f168201915b5050505050815250508152602001906001019061094b565b50505050815260200160038201805480602002602001604051908101604052809291908181526020016000905b82821015610c775783829060005260206000209060020201604051806040016040529081600082018054610b5490614ee9565b80601f0160208091040260200160405190810160405280929190818152602001828054610b8090614ee9565b8015610bcd5780601f10610ba257610100808354040283529160200191610bcd565b820191906000526020600020905b815481529060010190602001808311610bb057829003601f168201915b50505050508152602001600182018054610be690614ee9565b80601f0160208091040260200160405190810160405280929190818152602001828054610c1290614ee9565b8015610c5f5780601f10610c3457610100808354040283529160200191610c5f565b820191906000526020600020905b815481529060010190602001808311610c4257829003601f168201915b50505050508152505081526020019060010190610b21565b5050505081525050838381518110610c9157610c91614f4c565b60200260200101819052508180610ca790614f62565b9250505b600101610849565b6060600060015b600354811015610d42576002600082815260086020526040902060010154610100900460ff166003811115610cf157610cf1614574565b1480610d2757506003600082815260086020526040902060010154610100900460ff166003811115610d2557610d25614574565b145b15610d3a5781610d3681614f62565b9250505b600101610cba565b506000816001600160401b03811115610d5d57610d5d61480f565b604051908082528060200260200182016040528015610d9657816020015b610d8361444a565b815260200190600190039081610d7b5790505b509050600060015b60035481101561078b576002600082815260086020526040902060010154610100900460ff166003811115610dd557610dd5614574565b1480610e0b57506003600082815260086020526040902060010154610100900460ff166003811115610e0957610e09614574565b145b1561123657600081815260086020908152604091829020825160c08101909352805483526001810154909183019060ff166003811115610e4d57610e4d614574565b6003811115610e5e57610e5e614574565b81526020016001820160019054906101000a900460ff166003811115610e8657610e86614574565b6003811115610e9757610e97614574565b815260018201546201000090046001600160a01b0316602080830191909152600283018054604080518285028101850182528281529401939260009084015b8282101561107f5760008481526020908190206040805160a081019091526005850290910180546001600160a01b031682526001810180549293919291840191610f1f90614ee9565b80601f0160208091040260200160405190810160405280929190818152602001828054610f4b90614ee9565b8015610f985780601f10610f6d57610100808354040283529160200191610f98565b820191906000526020600020905b815481529060010190602001808311610f7b57829003601f168201915b50505091835250506002828101546020830152600383015460409092019160ff1690811115610fc957610fc9614574565b6002811115610fda57610fda614574565b8152602001600482018054610fee90614ee9565b80601f016020809104026020016040519081016040528092919081815260200182805461101a90614ee9565b80156110675780601f1061103c57610100808354040283529160200191611067565b820191906000526020600020905b81548152906001019060200180831161104a57829003601f168201915b50505050508152505081526020019060010190610ed6565b50505050815260200160038201805480602002602001604051908101604052809291908181526020016000905b8282101561120257838290600052602060002090600202016040518060400160405290816000820180546110df90614ee9565b80601f016020809104026020016040519081016040528092919081815260200182805461110b90614ee9565b80156111585780601f1061112d57610100808354040283529160200191611158565b820191906000526020600020905b81548152906001019060200180831161113b57829003601f168201915b5050505050815260200160018201805461117190614ee9565b80601f016020809104026020016040519081016040528092919081815260200182805461119d90614ee9565b80156111ea5780601f106111bf576101008083540402835291602001916111ea565b820191906000526020600020905b8154815290600101906020018083116111cd57829003601f168201915b505050505081525050815260200190600101906110ac565b505050508152505083838151811061121c5761121c614f4c565b6020026020010181905250818061123290614f62565b9250505b600101610d9e565b336001600160a01b038616811480159061125f575061125d86826137f9565b155b156112955760405163711bec9160e11b81526001600160a01b038083166004830152871660248201526044015b60405180910390fd5b6112a28686868686613da5565b505050505050565b6060600033600090815260066020526040902060010154600160a01b900460ff1660028111156112dc576112dc614574565b14806113155750600233600090815260066020526040902060010154600160a01b900460ff16600281111561131357611313614574565b145b801561133a575033600090815260066020526040902060010154600160a81b900460ff165b6113865760405162461bcd60e51b815260206004820152601e60248201527f4f6e6c792061646d696e206f7220646f6e6f722063616e206163636573730000604482015260640161128c565b600060016005546113979190614f7b565b6001600160401b038111156113ae576113ae61480f565b6040519080825280602002602001820160405280156113e757816020015b6113d4614401565b8152602001906001900390816113cc5790505b50905060015b6005548110156115b557600081815260096020908152604091829020825160a0810190935280546001600160a01b03168352600181018054919284019161143390614ee9565b80601f016020809104026020016040519081016040528092919081815260200182805461145f90614ee9565b80156114ac5780601f10611481576101008083540402835291602001916114ac565b820191906000526020600020905b81548152906001019060200180831161148f57829003601f168201915b50505091835250506002828101546020830152600383015460409092019160ff16908111156114dd576114dd614574565b60028111156114ee576114ee614574565b815260200160048201805461150290614ee9565b80601f016020809104026020016040519081016040528092919081815260200182805461152e90614ee9565b801561157b5780601f106115505761010080835404028352916020019161157b565b820191906000526020600020905b81548152906001019060200180831161155e57829003601f168201915b505050505081525050826001836115929190614f7b565b815181106115a2576115a2614f4c565b60209081029190910101526001016113ed565b50905090565b606081518351146115ec5781518351604051635b05999160e01b81526004810192909252602482015260440161128c565b600083516001600160401b038111156116075761160761480f565b604051908082528060200260200182016040528015611630578160200160208202803683370190505b50905060005b845181101561167f5760208082028601015161165a906020808402870101516103d6565b82828151811061166c5761166c614f4c565b6020908102919091010152600101611636565b509392505050565b61168f61444a565b600082815260086020908152604091829020825160c08101909352805483526001810154909183019060ff1660038111156116cc576116cc614574565b60038111156116dd576116dd614574565b81526020016001820160019054906101000a900460ff16600381111561170557611705614574565b600381111561171657611716614574565b815260018201546201000090046001600160a01b0316602080830191909152600283018054604080518285028101850182528281529401939260009084015b828210156118fe5760008481526020908190206040805160a081019091526005850290910180546001600160a01b03168252600181018054929391929184019161179e90614ee9565b80601f01602080910402602001604051908101604052809291908181526020018280546117ca90614ee9565b80156118175780601f106117ec57610100808354040283529160200191611817565b820191906000526020600020905b8154815290600101906020018083116117fa57829003601f168201915b50505091835250506002828101546020830152600383015460409092019160ff169081111561184857611848614574565b600281111561185957611859614574565b815260200160048201805461186d90614ee9565b80601f016020809104026020016040519081016040528092919081815260200182805461189990614ee9565b80156118e65780601f106118bb576101008083540402835291602001916118e6565b820191906000526020600020905b8154815290600101906020018083116118c957829003601f168201915b50505050508152505081526020019060010190611755565b50505050815260200160038201805480602002602001604051908101604052809291908181526020016000905b82821015611a81578382906000526020600020906002020160405180604001604052908160008201805461195e90614ee9565b80601f016020809104026020016040519081016040528092919081815260200182805461198a90614ee9565b80156119d75780601f106119ac576101008083540402835291602001916119d7565b820191906000526020600020905b8154815290600101906020018083116119ba57829003601f168201915b505050505081526020016001820180546119f090614ee9565b80601f0160208091040260200160405190810160405280929190818152602001828054611a1c90614ee9565b8015611a695780601f10611a3e57610100808354040283529160200191611a69565b820191906000526020600020905b815481529060010190602001808311611a4c57829003601f168201915b5050505050815250508152602001906001019061192b565b505050915250909392505050565b60008033600090815260066020526040902060010154600160a01b900460ff166002811115611ac057611ac0614574565b14611add5760405162461bcd60e51b815260040161128c90614f8e565b33600090815260066020526040902060010154600160a81b900460ff16611b165760405162461bcd60e51b815260040161128c90614fb4565b60008084815260086020526040902060010154610100900460ff166003811115611b4257611b42614574565b14611b805760405162461bcd60e51b815260206004820152600e60248201526d2130ba31b4103737ba1037b832b760911b604482015260640161128c565b6000828152600b602052604090205460ff1615611bdf5760405162461bcd60e51b815260206004820152601960248201527f446f6e6174696f6e20616c72656164792061737369676e656400000000000000604482015260640161128c565b600083815260086020526040902060020154600511611c305760405162461bcd60e51b815260206004820152600d60248201526c10985d18da081a5cc8199d5b1b609a1b604482015260640161128c565b600082815260096020526040902080546001600160a01b0316611c955760405162461bcd60e51b815260206004820152601760248201527f446f6e6174696f6e20646f6573206e6f74206578697374000000000000000000604482015260640161128c565b6000848152600860209081526040822060020180546001818101835591845291909220835460059092020180546001600160a01b0319166001600160a01b03909216919091178155829181810190611cef9084018261502a565b5060028281015482820155600380840154908301805460ff90921692909160ff1916906001908490811115611d2657611d26614574565b0217905550600481810190611d3d9084018261502a565b50505060009283525050600b60205260409020805460ff1916600117905550565b611d66614401565b6000838152600860205260409020600201805483908110611d8957611d89614f4c565b60009182526020918290206040805160a0810190915260059092020180546001600160a01b031682526001810180549293919291840191611dc990614ee9565b80601f0160208091040260200160405190810160405280929190818152602001828054611df590614ee9565b8015611e425780601f10611e1757610100808354040283529160200191611e42565b820191906000526020600020905b815481529060010190602001808311611e2557829003601f168201915b50505091835250506002828101546020830152600383015460409092019160ff1690811115611e7357611e73614574565b6002811115611e8457611e84614574565b8152602001600482018054611e9890614ee9565b80601f0160208091040260200160405190810160405280929190818152602001828054611ec490614ee9565b8015611f115780601f10611ee657610100808354040283529160200191611f11565b820191906000526020600020905b815481529060010190602001808311611ef457829003601f168201915b505050505081525050905092915050565b6060600060015b600354811015611f7b576002600082815260086020526040902060010154610100900460ff166003811115611f6057611f60614574565b03611f735781611f6f81614f62565b9250505b600101611f29565b506000816001600160401b03811115611f9657611f9661480f565b604051908082528060200260200182016040528015611fcf57816020015b611fbc61444a565b815260200190600190039081611fb45790505b509050600060015b60035481101561078b576002600082815260086020526040902060010154610100900460ff16600381111561200e5761200e614574565b0361243957600081815260086020908152604091829020825160c08101909352805483526001810154909183019060ff16600381111561205057612050614574565b600381111561206157612061614574565b81526020016001820160019054906101000a900460ff16600381111561208957612089614574565b600381111561209a5761209a614574565b815260018201546201000090046001600160a01b0316602080830191909152600283018054604080518285028101850182528281529401939260009084015b828210156122825760008481526020908190206040805160a081019091526005850290910180546001600160a01b03168252600181018054929391929184019161212290614ee9565b80601f016020809104026020016040519081016040528092919081815260200182805461214e90614ee9565b801561219b5780601f106121705761010080835404028352916020019161219b565b820191906000526020600020905b81548152906001019060200180831161217e57829003601f168201915b50505091835250506002828101546020830152600383015460409092019160ff16908111156121cc576121cc614574565b60028111156121dd576121dd614574565b81526020016004820180546121f190614ee9565b80601f016020809104026020016040519081016040528092919081815260200182805461221d90614ee9565b801561226a5780601f1061223f5761010080835404028352916020019161226a565b820191906000526020600020905b81548152906001019060200180831161224d57829003601f168201915b505050505081525050815260200190600101906120d9565b50505050815260200160038201805480602002602001604051908101604052809291908181526020016000905b8282101561240557838290600052602060002090600202016040518060400160405290816000820180546122e290614ee9565b80601f016020809104026020016040519081016040528092919081815260200182805461230e90614ee9565b801561235b5780601f106123305761010080835404028352916020019161235b565b820191906000526020600020905b81548152906001019060200180831161233e57829003601f168201915b5050505050815260200160018201805461237490614ee9565b80601f01602080910402602001604051908101604052809291908181526020018280546123a090614ee9565b80156123ed5780601f106123c2576101008083540402835291602001916123ed565b820191906000526020600020905b8154815290600101906020018083116123d057829003601f168201915b505050505081525050815260200190600101906122af565b505050508152505083838151811061241f5761241f614f4c565b6020026020010181905250818061243590614f62565b9250505b600101611fd7565b60008033600090815260066020526040902060010154600160a01b900460ff16600281111561247257612472614574565b1461248f5760405162461bcd60e51b815260040161128c90614f8e565b33600090815260066020526040902060010154600160a81b900460ff166124c85760405162461bcd60e51b815260040161128c90614fb4565b6040518060800160405280858152602001846001600160a01b031681526020018360028111156124fa576124fa614574565b815260016020918201526001600160a01b03851660009081526006909152604090208151819061252a9082615109565b5060208201516001820180546001600160a01b039092166001600160a01b03198316811782556040850151926001600160a81b03191617600160a01b83600281111561257857612578614574565b02179055506060919091015160019091018054911515600160a81b0260ff60a81b199092169190911790556001600160a01b038316600090815260066020908152604080832060045484526007909252909120806125d6838261502a565b506001828101805491830180546001600160a01b031981166001600160a01b039094169384178255915460ff600160a01b91829004169391926001600160a81b0319169091179083600281111561262f5761262f614574565b02179055506001918201549101805460ff60a81b1916600160a81b9283900460ff1615159092029190911790556004805490600061266c83614f62565b919050555050505050565b606060006004546001600160401b038111156126955761269561480f565b6040519080825280602002602001820160405280156126e857816020015b604080516080810182526060808252600060208084018290529383018190529082015282526000199092019101816126b35790505b50905060005b6004548110156115b557600081815260076020526040902060010154600160a81b900460ff1615612843576000818152600760205260409081902081516080810190925280548290829061274190614ee9565b80601f016020809104026020016040519081016040528092919081815260200182805461276d90614ee9565b80156127ba5780601f1061278f576101008083540402835291602001916127ba565b820191906000526020600020905b81548152906001019060200180831161279d57829003601f168201915b505050918352505060018201546001600160a01b0381166020830152604090910190600160a01b900460ff1660028111156127f7576127f7614574565b600281111561280857612808614574565b815260019190910154600160a81b900460ff161515602090910152825183908390811061283757612837614f4c565b60200260200101819052505b6001016126ee565b60008033600090815260066020526040902060010154600160a01b900460ff16600281111561287c5761287c614574565b146128995760405162461bcd60e51b815260040161128c90614f8e565b33600090815260066020526040902060010154600160a81b900460ff166128d25760405162461bcd60e51b815260040161128c90614fb4565b6128f033600354600160405180602001604052806000815250613e0c565b60038054600081815260086020908152604080832093845560018085018054610100600160b01b0319163362010000021790558151808301909252888252818301889052948401805495860181558352912081519293919260029092020190819061295b9082615109565b50602082015160018201906129709082615109565b5050600354604080519182523360208301527f03b090a5f073126ba1311454936e50b13b4eb5a69549338b4886ff9a0c1bfaed92500160405180910390a16003805490600061266c83614f62565b60018033600090815260066020526040902060010154600160a01b900460ff1660028111156129ef576129ef614574565b14612a0c5760405162461bcd60e51b815260040161128c90614f8e565b33600090815260066020526040902060010154600160a81b900460ff16612a455760405162461bcd60e51b815260040161128c90614fb4565b6001600083815260086020526040902060010154610100900460ff166003811115612a7257612a72614574565b14612ab15760405162461bcd60e51b815260206004820152600f60248201526e4261746368206e6f7420726561647960881b604482015260640161128c565b600082815260086020526040908190206001018054610100600160b01b03191633620100000261ff00191617610200179055517fc73ef165ea3d5a0161b64208f0ce43072ee61627d652c5b824a795315419503f90612b149084906002906151bf565b60405180910390a15050565b60008033600090815260066020526040902060010154600160a01b900460ff166002811115612b5157612b51614574565b14612b6e5760405162461bcd60e51b815260040161128c90614f8e565b33600090815260066020526040902060010154600160a81b900460ff16612ba75760405162461bcd60e51b815260040161128c90614fb4565b6002600083815260086020526040902060010154610100900460ff166003811115612bd457612bd4614574565b14612c185760405162461bcd60e51b815260206004820152601460248201527310985d18da081b9bdd081a5b881d1c985b9cda5d60621b604482015260640161128c565b600082815260086020526040908190206001018054610100600160b01b03191633620100000261ff00191617610300179055517fc73ef165ea3d5a0161b64208f0ce43072ee61627d652c5b824a795315419503f90612b149084906003906151bf565b612c86338383613e69565b5050565b60018033600090815260066020526040902060010154600160a01b900460ff166002811115612cbb57612cbb614574565b14612cd85760405162461bcd60e51b815260040161128c90614f8e565b33600090815260066020526040902060010154600160a81b900460ff16612d115760405162461bcd60e51b815260040161128c90614fb4565b6000858152600860205260409020600101546201000090046001600160a01b03163314612d805760405162461bcd60e51b815260206004820152601760248201527f4e6f74207468652063757272656e742068616e646c6572000000000000000000604482015260640161128c565b6002600086815260086020526040902060010154610100900460ff166003811115612dad57612dad614574565b14612df15760405162461bcd60e51b815260206004820152601460248201527310985d18da081b9bdd081a5b881d1c985b9cda5d60621b604482015260640161128c565b60008581526008602090815260408083206001808201805462010000600160b01b031916620100006001600160a01b038c160217905582518084019093528783528284018790526003909101805491820181558452919092208251600290920201908190612e5f9082615109565b5060208201516001820190612e749082615109565b505050836001600160a01b0316857f3d4c1e51e991e881ea130ad20e8ceb50acd92250ac0acde4bc7d82e29e84f5b28585604051612eb39291906151dc565b60405180910390a35050505050565b6000838152600860205260409020600101546201000090046001600160a01b03163314612f1f5760405162461bcd60e51b815260206004820152600b60248201526a2737ba103430b7323632b960a91b604482015260640161128c565b6002600084815260086020526040902060010154610100900460ff166003811115612f4c57612f4c614574565b14612f8a5760405162461bcd60e51b815260206004820152600e60248201526d139bdd081a5b881d1c985b9cda5d60921b604482015260640161128c565b600083815260086020908152604080832081518083019092528582528183018590526003018054600181018255908452919092208251600290920201908190612fd39082615109565b5060208201516001820190612fe89082615109565b5050507f5386c66b9ad3ab4d97f42fc9a18b9c5b6526c0acda4e9902a147f9df07f184ca83838360405161301e93929190615201565b60405180910390a1505050565b600060028033600090815260066020526040902060010154600160a01b900460ff16600281111561305e5761305e614574565b1461307b5760405162461bcd60e51b815260040161128c90614f8e565b33600090815260066020526040902060010154600160a81b900460ff166130b45760405162461bcd60e51b815260040161128c90614fb4565b600060055490506040518060a00160405280336001600160a01b031681526020018781526020014281526020018660028111156130f3576130f3614574565b8152602090810186905260008381526009825260409020825181546001600160a01b0319166001600160a01b039091161781559082015160018201906131399082615109565b506040820151816002015560608201518160030160006101000a81548160ff0219169083600281111561316e5761316e614574565b0217905550608082015160048201906131879082615109565b5050600a805460018101825560009182527fc65a7bb8d6351c1cf70c95a316cc6a92839c986682d98bc35f958f4883f9d2a801839055600580549250906131cd83614f62565b9091555050604080518281523360208201527f9b5fba485f7739d84caad84e1e07e7c9f2515477bd6b5854ecf133ce191a0a2a910160405180910390a195945050505050565b60008033600090815260066020526040902060010154600160a01b900460ff16600281111561324457613244614574565b146132615760405162461bcd60e51b815260040161128c90614f8e565b33600090815260066020526040902060010154600160a81b900460ff1661329a5760405162461bcd60e51b815260040161128c90614fb4565b60008083815260086020526040902060010154610100900460ff1660038111156132c6576132c6614574565b1461330a5760405162461bcd60e51b8152602060048201526014602482015273496e76616c69642062617463682073746174757360601b604482015260640161128c565b60008281526008602052604090206001908101805461ff0019166101008302179055506040518281527f0d12a96208f78b6b173d4bc5f7de1d8a9377c4e33639c8ef954056f7d350858790602001612b14565b6060600060016003546133709190614f7b565b6001600160401b038111156133875761338761480f565b6040519080825280602002602001820160405280156133c057816020015b6133ad61444a565b8152602001906001900390816133a55790505b50905060015b6003548110156115b557600081815260086020908152604091829020825160c08101909352805483526001810154909183019060ff16600381111561340d5761340d614574565b600381111561341e5761341e614574565b81526020016001820160019054906101000a900460ff16600381111561344657613446614574565b600381111561345757613457614574565b815260018201546201000090046001600160a01b0316602080830191909152600283018054604080518285028101850182528281529401939260009084015b8282101561363f5760008481526020908190206040805160a081019091526005850290910180546001600160a01b0316825260018101805492939192918401916134df90614ee9565b80601f016020809104026020016040519081016040528092919081815260200182805461350b90614ee9565b80156135585780601f1061352d57610100808354040283529160200191613558565b820191906000526020600020905b81548152906001019060200180831161353b57829003601f168201915b50505091835250506002828101546020830152600383015460409092019160ff169081111561358957613589614574565b600281111561359a5761359a614574565b81526020016004820180546135ae90614ee9565b80601f01602080910402602001604051908101604052809291908181526020018280546135da90614ee9565b80156136275780601f106135fc57610100808354040283529160200191613627565b820191906000526020600020905b81548152906001019060200180831161360a57829003601f168201915b50505050508152505081526020019060010190613496565b50505050815260200160038201805480602002602001604051908101604052809291908181526020016000905b828210156137c2578382906000526020600020906002020160405180604001604052908160008201805461369f90614ee9565b80601f01602080910402602001604051908101604052809291908181526020018280546136cb90614ee9565b80156137185780601f106136ed57610100808354040283529160200191613718565b820191906000526020600020905b8154815290600101906020018083116136fb57829003601f168201915b5050505050815260200160018201805461373190614ee9565b80601f016020809104026020016040519081016040528092919081815260200182805461375d90614ee9565b80156137aa5780601f1061377f576101008083540402835291602001916137aa565b820191906000526020600020905b81548152906001019060200180831161378d57829003601f168201915b5050505050815250508152602001906001019061366c565b5050509152508390506137d6600184614f7b565b815181106137e6576137e6614f4c565b60209081029190910101526001016133c6565b6001600160a01b03918216600090815260016020908152604080832093909416825291909152205460ff1690565b6060600060015b600354811015613880576001600082815260086020526040902060010154610100900460ff16600381111561386557613865614574565b03613878578161387481614f62565b9250505b60010161382e565b506000816001600160401b0381111561389b5761389b61480f565b6040519080825280602002602001820160405280156138d457816020015b6138c161444a565b8152602001906001900390816138b95790505b509050600060015b60035481101561078b576001600082815260086020526040902060010154610100900460ff16600381111561391357613913614574565b03613d3e57600081815260086020908152604091829020825160c08101909352805483526001810154909183019060ff16600381111561395557613955614574565b600381111561396657613966614574565b81526020016001820160019054906101000a900460ff16600381111561398e5761398e614574565b600381111561399f5761399f614574565b815260018201546201000090046001600160a01b0316602080830191909152600283018054604080518285028101850182528281529401939260009084015b82821015613b875760008481526020908190206040805160a081019091526005850290910180546001600160a01b031682526001810180549293919291840191613a2790614ee9565b80601f0160208091040260200160405190810160405280929190818152602001828054613a5390614ee9565b8015613aa05780601f10613a7557610100808354040283529160200191613aa0565b820191906000526020600020905b815481529060010190602001808311613a8357829003601f168201915b50505091835250506002828101546020830152600383015460409092019160ff1690811115613ad157613ad1614574565b6002811115613ae257613ae2614574565b8152602001600482018054613af690614ee9565b80601f0160208091040260200160405190810160405280929190818152602001828054613b2290614ee9565b8015613b6f5780601f10613b4457610100808354040283529160200191613b6f565b820191906000526020600020905b815481529060010190602001808311613b5257829003601f168201915b505050505081525050815260200190600101906139de565b50505050815260200160038201805480602002602001604051908101604052809291908181526020016000905b82821015613d0a5783829060005260206000209060020201604051806040016040529081600082018054613be790614ee9565b80601f0160208091040260200160405190810160405280929190818152602001828054613c1390614ee9565b8015613c605780601f10613c3557610100808354040283529160200191613c60565b820191906000526020600020905b815481529060010190602001808311613c4357829003601f168201915b50505050508152602001600182018054613c7990614ee9565b80601f0160208091040260200160405190810160405280929190818152602001828054613ca590614ee9565b8015613cf25780601f10613cc757610100808354040283529160200191613cf2565b820191906000526020600020905b815481529060010190602001808311613cd557829003601f168201915b50505050508152505081526020019060010190613bb4565b5050505081525050838381518110613d2457613d24614f4c565b60200260200101819052508180613d3a90614f62565b9250505b6001016138dc565b336001600160a01b0386168114801590613d675750613d6586826137f9565b155b15613d985760405163711bec9160e11b81526001600160a01b0380831660048301528716602482015260440161128c565b6112a28686868686613eff565b6001600160a01b038416613dcf57604051632bfa23e760e11b81526000600482015260240161128c565b6001600160a01b038516613df857604051626a0d4560e21b81526000600482015260240161128c565b613e058585858585613f8d565b5050505050565b6001600160a01b038416613e3657604051632bfa23e760e11b81526000600482015260240161128c565b604080516001808252602082018690528183019081526060820185905260808201909252906112a2600087848487613f8d565b6001600160a01b038216613e925760405162ced3e160e81b81526000600482015260240161128c565b6001600160a01b03838116600081815260016020908152604080832094871680845294825291829020805460ff191686151590811790915591519182527f17307eab39ab6107e8899845ad3d59bd9653f200f220920489ca2b5937696c31910160405180910390a3505050565b6001600160a01b038416613f2957604051632bfa23e760e11b81526000600482015260240161128c565b6001600160a01b038516613f5257604051626a0d4560e21b81526000600482015260240161128c565b60408051600180825260208201869052818301908152606082018590526080820190925290613f848787848487613f8d565b50505050505050565b613f9985858585613fe0565b6001600160a01b03841615613e055782513390600103613fd25760208481015190840151613fcb8389898585896141f4565b50506112a2565b6112a2818787878787614318565b805182511461400f5781518151604051635b05999160e01b81526004810192909252602482015260440161128c565b3360005b8351811015614115576020818102858101820151908501909101516001600160a01b038816156140c6576000828152602081815260408083206001600160a01b038c1684529091529020548181101561409f576040516303dee4c560e01b81526001600160a01b038a16600482015260248101829052604481018390526064810184905260840161128c565b6000838152602081815260408083206001600160a01b038d16845290915290209082900390555b6001600160a01b0387161561410b576000828152602081815260408083206001600160a01b038b16845290915281208054839290614105908490614f39565b90915550505b5050600101614013565b5082516001036141965760208301516000906020840151909150856001600160a01b0316876001600160a01b0316846001600160a01b03167fc3d58168c5ae7397731d063d5bbf3d657854427343f4c083240f7aacaa2d0f628585604051614187929190918252602082015260400190565b60405180910390a45050613e05565b836001600160a01b0316856001600160a01b0316826001600160a01b03167f4a39dc06d4c0dbc64b70af90fd698a233a518aa5d07e595d983b8c0526c8f7fb86866040516141e5929190615236565b60405180910390a45050505050565b6001600160a01b0384163b156112a25760405163f23a6e6160e01b81526001600160a01b0385169063f23a6e6190614238908990899088908890889060040161525b565b6020604051808303816000875af1925050508015614273575060408051601f3d908101601f19168201909252614270918101906152a0565b60015b6142dc573d8080156142a1576040519150601f19603f3d011682016040523d82523d6000602084013e6142a6565b606091505b5080516000036142d457604051632bfa23e760e11b81526001600160a01b038616600482015260240161128c565b805181602001fd5b6001600160e01b0319811663f23a6e6160e01b14613f8457604051632bfa23e760e11b81526001600160a01b038616600482015260240161128c565b6001600160a01b0384163b156112a25760405163bc197c8160e01b81526001600160a01b0385169063bc197c819061435c90899089908890889088906004016152bd565b6020604051808303816000875af1925050508015614397575060408051601f3d908101601f19168201909252614394918101906152a0565b60015b6143c5573d8080156142a1576040519150601f19603f3d011682016040523d82523d6000602084013e6142a6565b6001600160e01b0319811663bc197c8160e01b14613f8457604051632bfa23e760e11b81526001600160a01b038616600482015260240161128c565b6040518060a0016040528060006001600160a01b0316815260200160608152602001600081526020016000600281111561443d5761443d614574565b8152602001606081525090565b6040805160c0810190915260008082526020820190815260200160008152600060208201526060604082018190529081015290565b80356001600160a01b038116811461449657600080fd5b919050565b600080604083850312156144ae57600080fd5b6144b78361447f565b946020939093013593505050565b6001600160e01b0319811681146144db57600080fd5b50565b6000602082840312156144f057600080fd5b81356144fb816144c5565b9392505050565b60006020828403121561451457600080fd5b5035919050565b6000815180845260005b8181101561454157602081850181015186830182015201614525565b506000602082860101526020601f19601f83011685010191505092915050565b6020815260006144fb602083018461451b565b634e487b7160e01b600052602160045260246000fd5b600381106144db576144db614574565b60018060a01b0381511682526000602082015160a060208501526145c160a085018261451b565b90506040830151604085015260608301516145db8161458a565b80606086015250608083015184820360808601526145f9828261451b565b95945050505050565b6000602082016020835280845180835260408501915060408160051b86010192506020860160005b8281101561465b57603f1987860301845261464685835161459a565b9450602093840193919091019060010161462a565b50929695505050505050565b600481106144db576144db614574565b600082825180855260208501945060208160051b8301016020850160005b838110156146ee57601f1985840301885281518051604085526146bb604086018261451b565b90506020820151915084810360208601526146d6818361451b565b60209a8b019a90955093909301925050600101614695565b50909695505050505050565b600060c0830182518452602083015161471281614667565b6020850152604083015161472581614667565b8060408601525060018060a01b036060840151166060850152608083015160c0608086015281815180845260e08701915060e08160051b880101935060208301925060005b8181101561479b5760df1988860301835261478685855161459a565b9450602093840193929092019160010161476a565b5050505060a083015184820360a08601526145f98282614677565b6000602082016020835280845180835260408501915060408160051b86010192506020860160005b8281101561465b57603f198786030184526147fa8583516146fa565b945060209384019391909101906001016147de565b634e487b7160e01b600052604160045260246000fd5b604051601f8201601f191681016001600160401b038111828210171561484d5761484d61480f565b604052919050565b60006001600160401b0382111561486e5761486e61480f565b5060051b60200190565b600082601f83011261488957600080fd5b813561489c61489782614855565b614825565b8082825260208201915060208360051b8601019250858311156148be57600080fd5b602085015b838110156148db5780358352602092830192016148c3565b5095945050505050565b600082601f8301126148f657600080fd5b8135602083016000806001600160401b038411156149165761491661480f565b50601f8301601f191660200161492b81614825565b91505082815285838301111561494057600080fd5b82826020830137600092810160200192909252509392505050565b600080600080600060a0868803121561497357600080fd5b61497c8661447f565b945061498a6020870161447f565b935060408601356001600160401b038111156149a557600080fd5b6149b188828901614878565b93505060608601356001600160401b038111156149cd57600080fd5b6149d988828901614878565b92505060808601356001600160401b038111156149f557600080fd5b614a01888289016148e5565b9150509295509295909350565b60008060408385031215614a2157600080fd5b82356001600160401b03811115614a3757600080fd5b8301601f81018513614a4857600080fd5b8035614a5661489782614855565b8082825260208201915060208360051b850101925087831115614a7857600080fd5b6020840193505b82841015614aa157614a908461447f565b825260209384019390910190614a7f565b945050505060208301356001600160401b03811115614abf57600080fd5b614acb85828601614878565b9150509250929050565b600081518084526020840193506020830160005b82811015614b07578151865260209586019590910190600101614ae9565b5093949350505050565b6020815260006144fb6020830184614ad5565b6020815260006144fb60208301846146fa565b60008060408385031215614b4a57600080fd5b50508035926020909101359150565b6020815260006144fb602083018461459a565b600381106144db57600080fd5b600080600060608486031215614b8e57600080fd5b83356001600160401b03811115614ba457600080fd5b614bb0868287016148e5565b935050614bbf6020850161447f565b91506040840135614bcf81614b6c565b809150509250925092565b6000602082016020835280845180835260408501915060408160051b86010192506020860160005b8281101561465b57603f198786030184528151805160808752614c28608088018261451b565b6020838101516001600160a01b0316908901526040830151909150614c4c8161458a565b6040880152606091820151151591909601526020938401939190910190600101614c02565b60008060408385031215614c8457600080fd5b82356001600160401b03811115614c9a57600080fd5b614ca6858286016148e5565b92505060208301356001600160401b03811115614cc257600080fd5b614acb858286016148e5565b60008060408385031215614ce157600080fd5b614cea8361447f565b915060208301358015158114614cff57600080fd5b809150509250929050565b60008060008060808587031215614d2057600080fd5b84359350614d306020860161447f565b925060408501356001600160401b03811115614d4b57600080fd5b614d57878288016148e5565b92505060608501356001600160401b03811115614d7357600080fd5b614d7f878288016148e5565b91505092959194509250565b600080600060608486031215614da057600080fd5b8335925060208401356001600160401b03811115614dbd57600080fd5b614dc9868287016148e5565b92505060408401356001600160401b03811115614de557600080fd5b614df1868287016148e5565b9150509250925092565b600080600060608486031215614e1057600080fd5b83356001600160401b03811115614e2657600080fd5b614e32868287016148e5565b9350506020840135614e4381614b6c565b915060408401356001600160401b03811115614de557600080fd5b60008060408385031215614e7157600080fd5b614e7a8361447f565b9150614e886020840161447f565b90509250929050565b600080600080600060a08688031215614ea957600080fd5b614eb28661447f565b9450614ec06020870161447f565b9350604086013592506060860135915060808601356001600160401b038111156149f557600080fd5b600181811c90821680614efd57607f821691505b602082108103614f1d57634e487b7160e01b600052602260045260246000fd5b50919050565b634e487b7160e01b600052601160045260246000fd5b808201808211156103f8576103f8614f23565b634e487b7160e01b600052603260045260246000fd5b600060018201614f7457614f74614f23565b5060010190565b818103818111156103f8576103f8614f23565b6020808252600c908201526b155b985d5d1a1bdc9a5e995960a21b604082015260600190565b60208082526010908201526f4163636f756e7420696e61637469766560801b604082015260600190565b601f82111561502557806000526020600020601f840160051c810160208510156150055750805b601f840160051c820191505b81811015613e055760008155600101615011565b505050565b818103615035575050565b61503f8254614ee9565b6001600160401b038111156150565761505661480f565b61506a816150648454614ee9565b84614fde565b6000601f8211600181146150a157600083156150865750848201545b600184901b600019600386901b1c198216175b855550613e05565b600085815260209020601f19841690600086815260209020845b838110156150db57828601548255600195860195909101906020016150bb565b50858310156150f95781850154600019600388901b60f8161c191681555b5050505050600190811b01905550565b81516001600160401b038111156151225761512261480f565b615130816150648454614ee9565b6020601f8211600181146151625760008315615086575081850151600184901b600019600386901b1c19821617615099565b600084815260208120601f198516915b828110156151925787850151825560209485019460019092019101615172565b50848210156151b05786840151600019600387901b60f8161c191681555b50505050600190811b01905550565b828152604081016151cf83614667565b8260208301529392505050565b6040815260006151ef604083018561451b565b82810360208401526145f9818561451b565b83815260606020820152600061521a606083018561451b565b828103604084015261522c818561451b565b9695505050505050565b6040815260006152496040830185614ad5565b82810360208401526145f98185614ad5565b6001600160a01b03868116825285166020820152604081018490526060810183905260a0608082018190526000906152959083018461451b565b979650505050505050565b6000602082840312156152b257600080fd5b81516144fb816144c5565b6001600160a01b0386811682528516602082015260a0604082018190526000906152e990830186614ad5565b82810360608401526152fb8186614ad5565b9050828103608084015261530f818561451b565b9897505050505050505056fea26469706673582212207d01032c215372e192ec09d4d2f3cba32fb9aa831e0ac82aa234d5f22439a3b864736f6c634300081c003368747470733a2f2f746f6b656e2d63646e2d646f6d61696e2f7b69647d2e6a736f6e","linkReferences":{}},"methodIdentifiers":{"addDonationToBatch(uint256,uint256)":"718966cf","addMember(string,address,uint8)":"7ce8dc78","balanceOf(address,uint256)":"00fdd58e","balanceOfBatch(address[],uint256[])":"4e1273f4","claimBatchForDelivery(uint256)":"a1cc2939","claimBatchForTransporter(uint256)":"98f681c8","closeBatch(uint256)":"d2c411d3","createBatch(string,string)":"92b8f021","createDonation(string,uint8,string)":"bd99c344","getAllBatches()":"e80e076b","getAllBatchesInTransitAndDelivery()":"2e0fabaf","getAllBatchesWithStatusClosedReadyForTransporter()":"e9cf8c06","getAllBatchesWithStatusDeliveryReadyForDeliveryOut()":"2597881b","getAllBatchesWithStatusInTransitReadyForDeliveryIn()":"7a692ba2","getAllDonations()":"38a59a07","getAllDonationsInAllBatches()":"17b42c77","getAllListOfMembers()":"7ef2a569","getBatch(uint256)":"5ac44282","getDonation(uint256,uint256)":"76ff7bf4","isApprovedForAll(address,address)":"e985e9c5","safeBatchTransferFrom(address,address,uint256[],uint256[],bytes)":"2eb2c2d6","safeTransferFrom(address,address,uint256,uint256,bytes)":"f242432a","setApprovalForAll(address,bool)":"a22cb465","supportsInterface(bytes4)":"01ffc9a7","transferBatch(uint256,address,string,string)":"b3641cfd","updateLocation(uint256,string,string)":"b7472885","uri(uint256)":"0e89341c"},"id":42}